{
  "contractName": "AuctionNFT",
  "abi": [
    {
      "inputs": [
        {
          "internalType": "contract IZNS",
          "name": "_znsRegAdd",
          "type": "address"
        },
        {
          "internalType": "address",
          "name": "_ZND721",
          "type": "address"
        }
      ],
      "stateMutability": "nonpayable",
      "type": "constructor"
    },
    {
      "inputs": [
        {
          "internalType": "address",
          "name": "",
          "type": "address"
        }
      ],
      "name": "addressNFTtoAddressFeeERC20",
      "outputs": [
        {
          "internalType": "contract IERC20",
          "name": "",
          "type": "address"
        }
      ],
      "stateMutability": "view",
      "type": "function"
    },
    {
      "inputs": [
        {
          "internalType": "address",
          "name": "",
          "type": "address"
        }
      ],
      "name": "addressNFTtoCreator",
      "outputs": [
        {
          "internalType": "address",
          "name": "",
          "type": "address"
        }
      ],
      "stateMutability": "view",
      "type": "function"
    },
    {
      "inputs": [
        {
          "internalType": "address",
          "name": "",
          "type": "address"
        }
      ],
      "name": "addressNFTtoFee",
      "outputs": [
        {
          "internalType": "uint256",
          "name": "",
          "type": "uint256"
        }
      ],
      "stateMutability": "view",
      "type": "function"
    },
    {
      "inputs": [],
      "name": "auctionID",
      "outputs": [
        {
          "internalType": "uint256",
          "name": "",
          "type": "uint256"
        }
      ],
      "stateMutability": "view",
      "type": "function"
    },
    {
      "inputs": [
        {
          "internalType": "uint256",
          "name": "",
          "type": "uint256"
        }
      ],
      "name": "auctionIDtoType",
      "outputs": [
        {
          "internalType": "bool",
          "name": "",
          "type": "bool"
        }
      ],
      "stateMutability": "view",
      "type": "function"
    },
    {
      "inputs": [
        {
          "internalType": "uint256",
          "name": "",
          "type": "uint256"
        }
      ],
      "name": "idToAuction1155",
      "outputs": [
        {
          "internalType": "contract IERC1155",
          "name": "nftContract",
          "type": "address"
        },
        {
          "internalType": "contract IERC20",
          "name": "bidERC20Contract",
          "type": "address"
        },
        {
          "internalType": "address",
          "name": "seller",
          "type": "address"
        },
        {
          "internalType": "address",
          "name": "highestBidder",
          "type": "address"
        },
        {
          "internalType": "uint256",
          "name": "highestBid",
          "type": "uint256"
        },
        {
          "internalType": "uint256",
          "name": "nftId",
          "type": "uint256"
        },
        {
          "internalType": "uint256",
          "name": "startPrice",
          "type": "uint256"
        },
        {
          "internalType": "uint256",
          "name": "bidID",
          "type": "uint256"
        },
        {
          "internalType": "uint256",
          "name": "amount",
          "type": "uint256"
        },
        {
          "internalType": "bytes",
          "name": "callData",
          "type": "bytes"
        }
      ],
      "stateMutability": "view",
      "type": "function"
    },
    {
      "inputs": [
        {
          "internalType": "uint256",
          "name": "",
          "type": "uint256"
        }
      ],
      "name": "idToAuction721",
      "outputs": [
        {
          "internalType": "contract IERC721",
          "name": "nftContract",
          "type": "address"
        },
        {
          "internalType": "contract IERC20",
          "name": "bidERC20Contract",
          "type": "address"
        },
        {
          "internalType": "address",
          "name": "seller",
          "type": "address"
        },
        {
          "internalType": "address",
          "name": "highestBidder",
          "type": "address"
        },
        {
          "internalType": "uint256",
          "name": "highestBid",
          "type": "uint256"
        },
        {
          "internalType": "uint256",
          "name": "nftId",
          "type": "uint256"
        },
        {
          "internalType": "uint256",
          "name": "startPrice",
          "type": "uint256"
        },
        {
          "internalType": "uint256",
          "name": "bidID",
          "type": "uint256"
        }
      ],
      "stateMutability": "view",
      "type": "function"
    },
    {
      "inputs": [
        {
          "internalType": "address",
          "name": "",
          "type": "address"
        },
        {
          "internalType": "address",
          "name": "",
          "type": "address"
        },
        {
          "internalType": "uint256[]",
          "name": "",
          "type": "uint256[]"
        },
        {
          "internalType": "uint256[]",
          "name": "",
          "type": "uint256[]"
        },
        {
          "internalType": "bytes",
          "name": "",
          "type": "bytes"
        }
      ],
      "name": "onERC1155BatchReceived",
      "outputs": [
        {
          "internalType": "bytes4",
          "name": "",
          "type": "bytes4"
        }
      ],
      "stateMutability": "nonpayable",
      "type": "function"
    },
    {
      "inputs": [
        {
          "internalType": "address",
          "name": "",
          "type": "address"
        },
        {
          "internalType": "address",
          "name": "",
          "type": "address"
        },
        {
          "internalType": "uint256",
          "name": "",
          "type": "uint256"
        },
        {
          "internalType": "uint256",
          "name": "",
          "type": "uint256"
        },
        {
          "internalType": "bytes",
          "name": "",
          "type": "bytes"
        }
      ],
      "name": "onERC1155Received",
      "outputs": [
        {
          "internalType": "bytes4",
          "name": "",
          "type": "bytes4"
        }
      ],
      "stateMutability": "nonpayable",
      "type": "function"
    },
    {
      "inputs": [
        {
          "internalType": "address",
          "name": "",
          "type": "address"
        },
        {
          "internalType": "address",
          "name": "",
          "type": "address"
        },
        {
          "internalType": "uint256",
          "name": "",
          "type": "uint256"
        },
        {
          "internalType": "bytes",
          "name": "",
          "type": "bytes"
        }
      ],
      "name": "onERC721Received",
      "outputs": [
        {
          "internalType": "bytes4",
          "name": "",
          "type": "bytes4"
        }
      ],
      "stateMutability": "nonpayable",
      "type": "function"
    },
    {
      "inputs": [
        {
          "internalType": "uint256",
          "name": "",
          "type": "uint256"
        }
      ],
      "name": "openAuction",
      "outputs": [
        {
          "internalType": "bool",
          "name": "",
          "type": "bool"
        }
      ],
      "stateMutability": "view",
      "type": "function"
    },
    {
      "inputs": [
        {
          "internalType": "bytes4",
          "name": "interfaceId",
          "type": "bytes4"
        }
      ],
      "name": "supportsInterface",
      "outputs": [
        {
          "internalType": "bool",
          "name": "",
          "type": "bool"
        }
      ],
      "stateMutability": "view",
      "type": "function"
    },
    {
      "inputs": [],
      "name": "zns721",
      "outputs": [
        {
          "internalType": "address",
          "name": "",
          "type": "address"
        }
      ],
      "stateMutability": "view",
      "type": "function"
    },
    {
      "inputs": [
        {
          "internalType": "uint256",
          "name": "",
          "type": "uint256"
        }
      ],
      "name": "znsIDtoAddressFeeERC20",
      "outputs": [
        {
          "internalType": "contract IERC20",
          "name": "",
          "type": "address"
        }
      ],
      "stateMutability": "view",
      "type": "function"
    },
    {
      "inputs": [
        {
          "internalType": "uint256",
          "name": "",
          "type": "uint256"
        }
      ],
      "name": "znsIDtoCreator",
      "outputs": [
        {
          "internalType": "address",
          "name": "",
          "type": "address"
        }
      ],
      "stateMutability": "view",
      "type": "function"
    },
    {
      "inputs": [
        {
          "internalType": "uint256",
          "name": "",
          "type": "uint256"
        }
      ],
      "name": "znsIDtoFee",
      "outputs": [
        {
          "internalType": "uint256",
          "name": "",
          "type": "uint256"
        }
      ],
      "stateMutability": "view",
      "type": "function"
    },
    {
      "inputs": [],
      "name": "znsRegistryContract",
      "outputs": [
        {
          "internalType": "contract IZNS",
          "name": "",
          "type": "address"
        }
      ],
      "stateMutability": "view",
      "type": "function"
    },
    {
      "inputs": [
        {
          "internalType": "address",
          "name": "_NFTcontract",
          "type": "address"
        },
        {
          "internalType": "contract IERC20",
          "name": "_bidERC20",
          "type": "address"
        },
        {
          "internalType": "uint256",
          "name": "_tokenId",
          "type": "uint256"
        },
        {
          "internalType": "uint256",
          "name": "_startPrice",
          "type": "uint256"
        },
        {
          "internalType": "uint256",
          "name": "_amount",
          "type": "uint256"
        },
        {
          "internalType": "bool",
          "name": "_is1155",
          "type": "bool"
        },
        {
          "internalType": "bytes",
          "name": "_callData",
          "type": "bytes"
        }
      ],
      "name": "createAuction",
      "outputs": [],
      "stateMutability": "nonpayable",
      "type": "function"
    },
    {
      "inputs": [
        {
          "internalType": "uint256",
          "name": "_auctionID",
          "type": "uint256"
        },
        {
          "internalType": "uint256",
          "name": "_bidAmount",
          "type": "uint256"
        },
        {
          "internalType": "string",
          "name": "_IPFShash",
          "type": "string"
        }
      ],
      "name": "bid",
      "outputs": [],
      "stateMutability": "nonpayable",
      "type": "function"
    },
    {
      "inputs": [
        {
          "internalType": "uint256",
          "name": "_auctionID",
          "type": "uint256"
        },
        {
          "internalType": "uint256",
          "name": "_bidID",
          "type": "uint256"
        }
      ],
      "name": "acceptBid",
      "outputs": [],
      "stateMutability": "nonpayable",
      "type": "function"
    },
    {
      "inputs": [
        {
          "internalType": "uint256",
          "name": "_auctionID",
          "type": "uint256"
        }
      ],
      "name": "cancel",
      "outputs": [],
      "stateMutability": "nonpayable",
      "type": "function"
    },
    {
      "inputs": [
        {
          "internalType": "uint256",
          "name": "_auctionID",
          "type": "uint256"
        },
        {
          "internalType": "uint256",
          "name": "_bidID",
          "type": "uint256"
        }
      ],
      "name": "cancelBid",
      "outputs": [],
      "stateMutability": "nonpayable",
      "type": "function"
    },
    {
      "inputs": [
        {
          "internalType": "contract IERC20",
          "name": "_ERC20FeeAdd",
          "type": "address"
        },
        {
          "internalType": "address",
          "name": "_NFTContractAdd",
          "type": "address"
        },
        {
          "internalType": "uint256",
          "name": "_feePercentage",
          "type": "uint256"
        },
        {
          "internalType": "uint256",
          "name": "_znsID",
          "type": "uint256"
        },
        {
          "internalType": "bool",
          "name": "_isZNS",
          "type": "bool"
        }
      ],
      "name": "setCreatorFees",
      "outputs": [],
      "stateMutability": "nonpayable",
      "type": "function"
    }
  ],
  "bytecode": "0x60806040523480156200001157600080fd5b5060405162004e6038038062004e60833981810160405260408110156200003757600080fd5b8101908080519060200190929190805190602001909291905050506200008f6301ffc9a77c0100000000000000000000000000000000000000000000000000000000026200017b640100000000026401000000009004565b620000f163bc197c817c01000000000000000000000000000000000000000000000000000000000263f23a6e617c010000000000000000000000000000000000000000000000000000000002186200017b640100000000026401000000009004565b81600260006101000a81548173ffffffffffffffffffffffffffffffffffffffff021916908373ffffffffffffffffffffffffffffffffffffffff16021790555080600360006101000a81548173ffffffffffffffffffffffffffffffffffffffff021916908373ffffffffffffffffffffffffffffffffffffffff1602179055505050620002a0565b63ffffffff7c010000000000000000000000000000000000000000000000000000000002817bffffffffffffffffffffffffffffffffffffffffffffffffffffffff1916141562000234576040517f08c379a000000000000000000000000000000000000000000000000000000000815260040180806020018281038252601c8152602001807f4552433136353a20696e76616c696420696e746572666163652069640000000081525060200191505060405180910390fd5b6001600080837bffffffffffffffffffffffffffffffffffffffffffffffffffffffff19167bffffffffffffffffffffffffffffffffffffffffffffffffffffffff1916815260200190815260200160002060006101000a81548160ff02191690831515021790555050565b614bb080620002b06000396000f3fe608060405234801561001057600080fd5b506004361061016a576000357c0100000000000000000000000000000000000000000000000000000000900480636a29646e116100e0578063bf683c1211610099578063bf683c1214610d3b578063d075a59414610d81578063d2aaf1bf14610e05578063f23a6e6114610e89578063f7545f0314610fea578063fe7127f9146110425761016a565b80636a29646e1461079657806376d4fc571461081a5780637735705f146108e95780637a5447c214610957578063bc197c8114610a7c578063bebadcf214610cf15761016a565b80631edc8f91116101325780631edc8f911461056757806327047e88146105ad5780632d07091f146106d05780633c4799e6146106ee57806340e58ee5146107305780634b3936051461075e5761016a565b806301ffc9a71461016f57806302e9d5e4146101d4578063150b7a021461020c57806318b3fce0146103635780631de96983146104f9575b600080fd5b6101ba6004803603602081101561018557600080fd5b8101908080357bffffffffffffffffffffffffffffffffffffffffffffffffffffffff1916906020019092919050505061108c565b604051808215151515815260200191505060405180910390f35b61020a600480360360408110156101ea57600080fd5b8101908080359060200190929190803590602001909291905050506110f3565b005b61030f6004803603608081101561022257600080fd5b81019080803573ffffffffffffffffffffffffffffffffffffffff169060200190929190803573ffffffffffffffffffffffffffffffffffffffff169060200190929190803590602001909291908035906020019064010000000081111561028957600080fd5b82018360208201111561029b57600080fd5b803590602001918460018302840111640100000000831117156102bd57600080fd5b91908080601f016020809104026020016040519081016040528093929190818152602001838380828437600081840152601f19601f8201169050808301925050505050505091929192905050506123fe565b60405180827bffffffffffffffffffffffffffffffffffffffffffffffffffffffff19167bffffffffffffffffffffffffffffffffffffffffffffffffffffffff1916815260200191505060405180910390f35b61038f6004803603602081101561037957600080fd5b810190808035906020019092919050505061242e565b604051808b73ffffffffffffffffffffffffffffffffffffffff1673ffffffffffffffffffffffffffffffffffffffff1681526020018a73ffffffffffffffffffffffffffffffffffffffff1673ffffffffffffffffffffffffffffffffffffffff1681526020018973ffffffffffffffffffffffffffffffffffffffff1673ffffffffffffffffffffffffffffffffffffffff1681526020018873ffffffffffffffffffffffffffffffffffffffff1673ffffffffffffffffffffffffffffffffffffffff16815260200187815260200186815260200185815260200184815260200183815260200180602001828103825283818151815260200191508051906020019080838360005b838110156104b557808201518184015260208101905061049a565b50505050905090810190601f1680156104e25780820380516001836020036101000a031916815260200191505b509b50505050505050505050505060405180910390f35b6105256004803603602081101561050f57600080fd5b810190808035906020019092919050505061259a565b604051808273ffffffffffffffffffffffffffffffffffffffff1673ffffffffffffffffffffffffffffffffffffffff16815260200191505060405180910390f35b6105936004803603602081101561057d57600080fd5b81019080803590602001909291905050506125cd565b604051808215151515815260200191505060405180910390f35b6105d9600480360360208110156105c357600080fd5b81019080803590602001909291905050506125ed565b604051808973ffffffffffffffffffffffffffffffffffffffff1673ffffffffffffffffffffffffffffffffffffffff1681526020018873ffffffffffffffffffffffffffffffffffffffff1673ffffffffffffffffffffffffffffffffffffffff1681526020018773ffffffffffffffffffffffffffffffffffffffff1673ffffffffffffffffffffffffffffffffffffffff1681526020018673ffffffffffffffffffffffffffffffffffffffff1673ffffffffffffffffffffffffffffffffffffffff1681526020018581526020018481526020018381526020018281526020019850505050505050505060405180910390f35b6106d86126b5565b6040518082815260200191505060405180910390f35b61071a6004803603602081101561070457600080fd5b81019080803590602001909291905050506126bb565b6040518082815260200191505060405180910390f35b61075c6004803603602081101561074657600080fd5b81019080803590602001909291905050506126d3565b005b6107946004803603604081101561077457600080fd5b810190808035906020019092919080359060200190929190505050612e0d565b005b610818600480360360a08110156107ac57600080fd5b81019080803573ffffffffffffffffffffffffffffffffffffffff169060200190929190803573ffffffffffffffffffffffffffffffffffffffff16906020019092919080359060200190929190803590602001909291908035151590602001909291905050506130b6565b005b6108e76004803603606081101561083057600080fd5b8101908080359060200190929190803590602001909291908035906020019064010000000081111561086157600080fd5b82018360208201111561087357600080fd5b8035906020019184600183028401116401000000008311171561089557600080fd5b91908080601f016020809104026020016040519081016040528093929190818152602001838380828437600081840152601f19601f8201169050808301925050505050505091929192905050506134a0565b005b610915600480360360208110156108ff57600080fd5b810190808035906020019092919050505061385a565b604051808273ffffffffffffffffffffffffffffffffffffffff1673ffffffffffffffffffffffffffffffffffffffff16815260200191505060405180910390f35b610a7a600480360360e081101561096d57600080fd5b81019080803573ffffffffffffffffffffffffffffffffffffffff169060200190929190803573ffffffffffffffffffffffffffffffffffffffff169060200190929190803590602001909291908035906020019092919080359060200190929190803515159060200190929190803590602001906401000000008111156109f457600080fd5b820183602082011115610a0657600080fd5b80359060200191846001830284011164010000000083111715610a2857600080fd5b91908080601f016020809104026020016040519081016040528093929190818152602001838380828437600081840152601f19601f82011690508083019250505050505050919291929050505061388d565b005b610c9d600480360360a0811015610a9257600080fd5b81019080803573ffffffffffffffffffffffffffffffffffffffff169060200190929190803573ffffffffffffffffffffffffffffffffffffffff16906020019092919080359060200190640100000000811115610aef57600080fd5b820183602082011115610b0157600080fd5b80359060200191846020830284011164010000000083111715610b2357600080fd5b919080806020026020016040519081016040528093929190818152602001838360200280828437600081840152601f19601f82011690508083019250505050505050919291929080359060200190640100000000811115610b8357600080fd5b820183602082011115610b9557600080fd5b80359060200191846020830284011164010000000083111715610bb757600080fd5b919080806020026020016040519081016040528093929190818152602001838360200280828437600081840152601f19601f82011690508083019250505050505050919291929080359060200190640100000000811115610c1757600080fd5b820183602082011115610c2957600080fd5b80359060200191846001830284011164010000000083111715610c4b57600080fd5b91908080601f016020809104026020016040519081016040528093929190818152602001838380828437600081840152601f19601f820116905080830192505050505050509192919290505050614609565b60405180827bffffffffffffffffffffffffffffffffffffffffffffffffffffffff19167bffffffffffffffffffffffffffffffffffffffffffffffffffffffff1916815260200191505060405180910390f35b610cf961463a565b604051808273ffffffffffffffffffffffffffffffffffffffff1673ffffffffffffffffffffffffffffffffffffffff16815260200191505060405180910390f35b610d6760048036036020811015610d5157600080fd5b8101908080359060200190929190505050614660565b604051808215151515815260200191505060405180910390f35b610dc360048036036020811015610d9757600080fd5b81019080803573ffffffffffffffffffffffffffffffffffffffff169060200190929190505050614680565b604051808273ffffffffffffffffffffffffffffffffffffffff1673ffffffffffffffffffffffffffffffffffffffff16815260200191505060405180910390f35b610e4760048036036020811015610e1b57600080fd5b81019080803573ffffffffffffffffffffffffffffffffffffffff1690602001909291905050506146b3565b604051808273ffffffffffffffffffffffffffffffffffffffff1673ffffffffffffffffffffffffffffffffffffffff16815260200191505060405180910390f35b610f96600480360360a0811015610e9f57600080fd5b81019080803573ffffffffffffffffffffffffffffffffffffffff169060200190929190803573ffffffffffffffffffffffffffffffffffffffff169060200190929190803590602001909291908035906020019092919080359060200190640100000000811115610f1057600080fd5b820183602082011115610f2257600080fd5b80359060200191846001830284011164010000000083111715610f4457600080fd5b91908080601f016020809104026020016040519081016040528093929190818152602001838380828437600081840152601f19601f8201169050808301925050505050505091929192905050506146e6565b60405180827bffffffffffffffffffffffffffffffffffffffffffffffffffffffff19167bffffffffffffffffffffffffffffffffffffffffffffffffffffffff1916815260200191505060405180910390f35b61102c6004803603602081101561100057600080fd5b81019080803573ffffffffffffffffffffffffffffffffffffffff169060200190929190505050614717565b6040518082815260200191505060405180910390f35b61104a61472f565b604051808273ffffffffffffffffffffffffffffffffffffffff1673ffffffffffffffffffffffffffffffffffffffff16815260200191505060405180910390f35b6000806000837bffffffffffffffffffffffffffffffffffffffffffffffffffffffff19167bffffffffffffffffffffffffffffffffffffffffffffffffffffffff1916815260200190815260200160002060009054906101000a900460ff169050919050565b6004600083815260200190815260200160002060009054906101000a900460ff16611186576040517f08c379a00000000000000000000000000000000000000000000000000000000081526004018080602001828103825260188152602001807f4552524f523a2041756374696f6e2068617320656e646564000000000000000081525060200191505060405180910390fd5b6005600083815260200190815260200160002060009054906101000a900460ff1615611ab75760006007600084815260200190815260200160002090506111cb61480d565b81600a0160008481526020019081526020016000206040518060800160405290816000820160009054906101000a900473ffffffffffffffffffffffffffffffffffffffff1673ffffffffffffffffffffffffffffffffffffffff1673ffffffffffffffffffffffffffffffffffffffff168152602001600182015481526020016002820160009054906101000a900460ff16151515158152602001600382018054600181600116156101000203166002900480601f0160208091040260200160405190810160405280929190818152602001828054600181600116156101000203166002900480156112ff5780601f106112d4576101008083540402835291602001916112ff565b820191906000526020600020905b8154815290600101906020018083116112e257829003601f168201915b50505050508152505090503373ffffffffffffffffffffffffffffffffffffffff168260020160009054906101000a900473ffffffffffffffffffffffffffffffffffffffff1673ffffffffffffffffffffffffffffffffffffffff16146113b2576040517f08c379a0000000000000000000000000000000000000000000000000000000008152600401808060200182810382526030815260200180614b4b6030913960400191505060405180910390fd5b80602001518260010160009054906101000a900473ffffffffffffffffffffffffffffffffffffffff1673ffffffffffffffffffffffffffffffffffffffff166370a0823183600001516040518263ffffffff167c0100000000000000000000000000000000000000000000000000000000028152600401808273ffffffffffffffffffffffffffffffffffffffff1673ffffffffffffffffffffffffffffffffffffffff16815260200191505060206040518083038186803b15801561147857600080fd5b505afa15801561148c573d6000803e3d6000fd5b505050506040513d60208110156114a257600080fd5b81019080805190602001909291905050501015611527576040517f08c379a00000000000000000000000000000000000000000000000000000000081526004018080602001828103825260178152602001807f426964646572732062616c616e636520746f6f206c6f7700000000000000000081525060200191505060405180910390fd5b600061159c8260200151600860008660000160009054906101000a900473ffffffffffffffffffffffffffffffffffffffff1673ffffffffffffffffffffffffffffffffffffffff1673ffffffffffffffffffffffffffffffffffffffff168152602001908152602001600020546002614755565b905060006115b782846020015161478a90919063ffffffff16565b90508360010160009054906101000a900473ffffffffffffffffffffffffffffffffffffffff1673ffffffffffffffffffffffffffffffffffffffff166323b872dd84600001518660020160009054906101000a900473ffffffffffffffffffffffffffffffffffffffff16846040518463ffffffff167c0100000000000000000000000000000000000000000000000000000000028152600401808473ffffffffffffffffffffffffffffffffffffffff1673ffffffffffffffffffffffffffffffffffffffff1681526020018373ffffffffffffffffffffffffffffffffffffffff1673ffffffffffffffffffffffffffffffffffffffff1681526020018281526020019350505050602060405180830381600087803b1580156116dc57600080fd5b505af11580156116f0573d6000803e3d6000fd5b505050506040513d602081101561170657600080fd5b8101908080519060200190929190505050508360010160009054906101000a900473ffffffffffffffffffffffffffffffffffffffff1673ffffffffffffffffffffffffffffffffffffffff166323b872dd8460000151600c60008860000160009054906101000a900473ffffffffffffffffffffffffffffffffffffffff1673ffffffffffffffffffffffffffffffffffffffff1673ffffffffffffffffffffffffffffffffffffffff16815260200190815260200160002060009054906101000a900473ffffffffffffffffffffffffffffffffffffffff16856040518463ffffffff167c0100000000000000000000000000000000000000000000000000000000028152600401808473ffffffffffffffffffffffffffffffffffffffff1673ffffffffffffffffffffffffffffffffffffffff1681526020018373ffffffffffffffffffffffffffffffffffffffff1673ffffffffffffffffffffffffffffffffffffffff1681526020018281526020019350505050602060405180830381600087803b15801561189a57600080fd5b505af11580156118ae573d6000803e3d6000fd5b505050506040513d60208110156118c457600080fd5b8101908080519060200190929190505050508360000160009054906101000a900473ffffffffffffffffffffffffffffffffffffffff1673ffffffffffffffffffffffffffffffffffffffff1663f242432a8560020160009054906101000a900473ffffffffffffffffffffffffffffffffffffffff16856000015187600501548860080154896009016040518663ffffffff167c0100000000000000000000000000000000000000000000000000000000028152600401808673ffffffffffffffffffffffffffffffffffffffff1673ffffffffffffffffffffffffffffffffffffffff1681526020018573ffffffffffffffffffffffffffffffffffffffff1673ffffffffffffffffffffffffffffffffffffffff16815260200184815260200183815260200180602001828103825283818154600181600116156101000203166002900481526020019150805460018160011615610100020316600290048015611a725780601f10611a4757610100808354040283529160200191611a72565b820191906000526020600020905b815481529060010190602001808311611a5557829003601f168201915b50509650505050505050600060405180830381600087803b158015611a9657600080fd5b505af1158015611aaa573d6000803e3d6000fd5b50505050505050506123ce565b6000600660008481526020019081526020016000209050611ad661480d565b8160080160008481526020019081526020016000206040518060800160405290816000820160009054906101000a900473ffffffffffffffffffffffffffffffffffffffff1673ffffffffffffffffffffffffffffffffffffffff1673ffffffffffffffffffffffffffffffffffffffff168152602001600182015481526020016002820160009054906101000a900460ff16151515158152602001600382018054600181600116156101000203166002900480601f016020809104026020016040519081016040528092919081815260200182805460018160011615610100020316600290048015611c0a5780601f10611bdf57610100808354040283529160200191611c0a565b820191906000526020600020905b815481529060010190602001808311611bed57829003601f168201915b50505050508152505090503373ffffffffffffffffffffffffffffffffffffffff168260020160009054906101000a900473ffffffffffffffffffffffffffffffffffffffff1673ffffffffffffffffffffffffffffffffffffffff1614611cbd576040517f08c379a0000000000000000000000000000000000000000000000000000000008152600401808060200182810382526030815260200180614b4b6030913960400191505060405180910390fd5b80602001518260010160009054906101000a900473ffffffffffffffffffffffffffffffffffffffff1673ffffffffffffffffffffffffffffffffffffffff166370a0823183600001516040518263ffffffff167c0100000000000000000000000000000000000000000000000000000000028152600401808273ffffffffffffffffffffffffffffffffffffffff1673ffffffffffffffffffffffffffffffffffffffff16815260200191505060206040518083038186803b158015611d8357600080fd5b505afa158015611d97573d6000803e3d6000fd5b505050506040513d6020811015611dad57600080fd5b81019080805190602001909291905050501015611e32576040517f08c379a00000000000000000000000000000000000000000000000000000000081526004018080602001828103825260178152602001807f426964646572732062616c616e636520746f6f206c6f7700000000000000000081525060200191505060405180910390fd5b60008260000160009054906101000a900473ffffffffffffffffffffffffffffffffffffffff1673ffffffffffffffffffffffffffffffffffffffff16600360009054906101000a900473ffffffffffffffffffffffffffffffffffffffff1673ffffffffffffffffffffffffffffffffffffffff161415611f2857611f218260200151600860008660000160009054906101000a900473ffffffffffffffffffffffffffffffffffffffff1673ffffffffffffffffffffffffffffffffffffffff1673ffffffffffffffffffffffffffffffffffffffff168152602001908152602001600020546002614755565b9050611f52565b611f4f82602001516009600086600501548152602001908152602001600020546002614755565b90505b6000611f6b82846020015161478a90919063ffffffff16565b90508360010160009054906101000a900473ffffffffffffffffffffffffffffffffffffffff1673ffffffffffffffffffffffffffffffffffffffff166323b872dd84600001518660020160009054906101000a900473ffffffffffffffffffffffffffffffffffffffff16846040518463ffffffff167c0100000000000000000000000000000000000000000000000000000000028152600401808473ffffffffffffffffffffffffffffffffffffffff1673ffffffffffffffffffffffffffffffffffffffff1681526020018373ffffffffffffffffffffffffffffffffffffffff1673ffffffffffffffffffffffffffffffffffffffff1681526020018281526020019350505050602060405180830381600087803b15801561209057600080fd5b505af11580156120a4573d6000803e3d6000fd5b505050506040513d60208110156120ba57600080fd5b8101908080519060200190929190505050508360010160009054906101000a900473ffffffffffffffffffffffffffffffffffffffff1673ffffffffffffffffffffffffffffffffffffffff166323b872dd8460000151600c60008860000160009054906101000a900473ffffffffffffffffffffffffffffffffffffffff1673ffffffffffffffffffffffffffffffffffffffff1673ffffffffffffffffffffffffffffffffffffffff16815260200190815260200160002060009054906101000a900473ffffffffffffffffffffffffffffffffffffffff16856040518463ffffffff167c0100000000000000000000000000000000000000000000000000000000028152600401808473ffffffffffffffffffffffffffffffffffffffff1673ffffffffffffffffffffffffffffffffffffffff1681526020018373ffffffffffffffffffffffffffffffffffffffff1673ffffffffffffffffffffffffffffffffffffffff1681526020018281526020019350505050602060405180830381600087803b15801561224e57600080fd5b505af1158015612262573d6000803e3d6000fd5b505050506040513d602081101561227857600080fd5b8101908080519060200190929190505050508360000160009054906101000a900473ffffffffffffffffffffffffffffffffffffffff1673ffffffffffffffffffffffffffffffffffffffff166342842e0e8560020160009054906101000a900473ffffffffffffffffffffffffffffffffffffffff16856000015187600501546040518463ffffffff167c0100000000000000000000000000000000000000000000000000000000028152600401808473ffffffffffffffffffffffffffffffffffffffff1673ffffffffffffffffffffffffffffffffffffffff1681526020018373ffffffffffffffffffffffffffffffffffffffff1673ffffffffffffffffffffffffffffffffffffffff1681526020018281526020019350505050600060405180830381600087803b1580156123b157600080fd5b505af11580156123c5573d6000803e3d6000fd5b50505050505050505b60006004600084815260200190815260200160002060006101000a81548160ff0219169083151502179055505050565b600063150b7a027c0100000000000000000000000000000000000000000000000000000000029050949350505050565b60076020528060005260406000206000915090508060000160009054906101000a900473ffffffffffffffffffffffffffffffffffffffff16908060010160009054906101000a900473ffffffffffffffffffffffffffffffffffffffff16908060020160009054906101000a900473ffffffffffffffffffffffffffffffffffffffff16908060030160009054906101000a900473ffffffffffffffffffffffffffffffffffffffff1690806004015490806005015490806006015490806007015490806008015490806009018054600181600116156101000203166002900480601f0160208091040260200160405190810160405280929190818152602001828054600181600116156101000203166002900480156125905780601f1061256557610100808354040283529160200191612590565b820191906000526020600020905b81548152906001019060200180831161257357829003601f168201915b505050505090508a565b600d6020528060005260406000206000915054906101000a900473ffffffffffffffffffffffffffffffffffffffff1681565b60046020528060005260406000206000915054906101000a900460ff1681565b60066020528060005260406000206000915090508060000160009054906101000a900473ffffffffffffffffffffffffffffffffffffffff16908060010160009054906101000a900473ffffffffffffffffffffffffffffffffffffffff16908060020160009054906101000a900473ffffffffffffffffffffffffffffffffffffffff16908060030160009054906101000a900473ffffffffffffffffffffffffffffffffffffffff16908060040154908060050154908060060154908060070154905088565b60015481565b60096020528060005260406000206000915090505481565b6004600082815260200190815260200160002060009054906101000a900460ff16612766576040517f08c379a00000000000000000000000000000000000000000000000000000000081526004018080602001828103825260188152602001807f4552524f523a2041756374696f6e2068617320656e646564000000000000000081525060200191505060405180910390fd5b6005600082815260200190815260200160002060009054906101000a900460ff1615612b0d5761279461484d565b60076000838152602001908152602001600020604051806101400160405290816000820160009054906101000a900473ffffffffffffffffffffffffffffffffffffffff1673ffffffffffffffffffffffffffffffffffffffff1673ffffffffffffffffffffffffffffffffffffffff1681526020016001820160009054906101000a900473ffffffffffffffffffffffffffffffffffffffff1673ffffffffffffffffffffffffffffffffffffffff1673ffffffffffffffffffffffffffffffffffffffff1681526020016002820160009054906101000a900473ffffffffffffffffffffffffffffffffffffffff1673ffffffffffffffffffffffffffffffffffffffff1673ffffffffffffffffffffffffffffffffffffffff1681526020016003820160009054906101000a900473ffffffffffffffffffffffffffffffffffffffff1673ffffffffffffffffffffffffffffffffffffffff1673ffffffffffffffffffffffffffffffffffffffff1681526020016004820154815260200160058201548152602001600682015481526020016007820154815260200160088201548152602001600982018054600181600116156101000203166002900480601f0160208091040260200160405190810160405280929190818152602001828054600181600116156101000203166002900480156129d65780601f106129ab576101008083540402835291602001916129d6565b820191906000526020600020905b8154815290600101906020018083116129b957829003601f168201915b50505050508152505090503373ffffffffffffffffffffffffffffffffffffffff16816040015173ffffffffffffffffffffffffffffffffffffffff1614612a1d57600080fd5b60076000838152602001908152602001600020600080820160006101000a81549073ffffffffffffffffffffffffffffffffffffffff02191690556001820160006101000a81549073ffffffffffffffffffffffffffffffffffffffff02191690556002820160006101000a81549073ffffffffffffffffffffffffffffffffffffffff02191690556003820160006101000a81549073ffffffffffffffffffffffffffffffffffffffff021916905560048201600090556005820160009055600682016000905560078201600090556008820160009055600982016000612b0591906148f8565b505050612dde565b612b15614940565b60066000838152602001908152602001600020604051806101000160405290816000820160009054906101000a900473ffffffffffffffffffffffffffffffffffffffff1673ffffffffffffffffffffffffffffffffffffffff1673ffffffffffffffffffffffffffffffffffffffff1681526020016001820160009054906101000a900473ffffffffffffffffffffffffffffffffffffffff1673ffffffffffffffffffffffffffffffffffffffff1673ffffffffffffffffffffffffffffffffffffffff1681526020016002820160009054906101000a900473ffffffffffffffffffffffffffffffffffffffff1673ffffffffffffffffffffffffffffffffffffffff1673ffffffffffffffffffffffffffffffffffffffff1681526020016003820160009054906101000a900473ffffffffffffffffffffffffffffffffffffffff1673ffffffffffffffffffffffffffffffffffffffff1673ffffffffffffffffffffffffffffffffffffffff16815260200160048201548152602001600582015481526020016006820154815260200160078201548152505090503373ffffffffffffffffffffffffffffffffffffffff16816040015173ffffffffffffffffffffffffffffffffffffffff1614612cf257600080fd5b60076000838152602001908152602001600020600080820160006101000a81549073ffffffffffffffffffffffffffffffffffffffff02191690556001820160006101000a81549073ffffffffffffffffffffffffffffffffffffffff02191690556002820160006101000a81549073ffffffffffffffffffffffffffffffffffffffff02191690556003820160006101000a81549073ffffffffffffffffffffffffffffffffffffffff021916905560048201600090556005820160009055600682016000905560078201600090556008820160009055600982016000612dda91906148f8565b5050505b60006004600083815260200190815260200160002060006101000a81548160ff02191690831515021790555050565b6004600083815260200190815260200160002060009054906101000a900460ff16612ea0576040517f08c379a00000000000000000000000000000000000000000000000000000000081526004018080602001828103825260188152602001807f4552524f523a2041756374696f6e2068617320656e646564000000000000000081525060200191505060405180910390fd5b6005600083815260200190815260200160002060009054906101000a900460ff1615612fbe5760006007600084815260200190815260200160002090503373ffffffffffffffffffffffffffffffffffffffff1681600a01600084815260200190815260200160002060000160009054906101000a900473ffffffffffffffffffffffffffffffffffffffff1673ffffffffffffffffffffffffffffffffffffffff1614612f4d57600080fd5b80600a016000838152602001908152602001600020600080820160006101000a81549073ffffffffffffffffffffffffffffffffffffffff021916905560018201600090556002820160006101000a81549060ff0219169055600382016000612fb691906149dd565b5050506130b2565b60006006600084815260200190815260200160002090503373ffffffffffffffffffffffffffffffffffffffff1681600801600084815260200190815260200160002060000160009054906101000a900473ffffffffffffffffffffffffffffffffffffffff1673ffffffffffffffffffffffffffffffffffffffff161461304557600080fd5b806008016000838152602001908152602001600020600080820160006101000a81549073ffffffffffffffffffffffffffffffffffffffff021916905560018201600090556002820160006101000a81549060ff02191690556003820160006130ae91906149dd565b5050505b5050565b801561327e57600260009054906101000a900473ffffffffffffffffffffffffffffffffffffffff1673ffffffffffffffffffffffffffffffffffffffff1663589a1743836040518263ffffffff167c01000000000000000000000000000000000000000000000000000000000281526004018082815260200191505060206040518083038186803b15801561314b57600080fd5b505afa15801561315f573d6000803e3d6000fd5b505050506040513d602081101561317557600080fd5b810190808051906020019092919050505073ffffffffffffffffffffffffffffffffffffffff163373ffffffffffffffffffffffffffffffffffffffff16146131bd57600080fd5b82600960008481526020019081526020016000208190555084600b600084815260200190815260200160002060006101000a81548173ffffffffffffffffffffffffffffffffffffffff021916908373ffffffffffffffffffffffffffffffffffffffff16021790555033600d600084815260200190815260200160002060006101000a81548173ffffffffffffffffffffffffffffffffffffffff021916908373ffffffffffffffffffffffffffffffffffffffff160217905550613499565b60008490508073ffffffffffffffffffffffffffffffffffffffff16638da5cb5b6040518163ffffffff167c010000000000000000000000000000000000000000000000000000000002815260040160206040518083038186803b1580156132e557600080fd5b505afa1580156132f9573d6000803e3d6000fd5b505050506040513d602081101561330f57600080fd5b810190808051906020019092919050505073ffffffffffffffffffffffffffffffffffffffff163373ffffffffffffffffffffffffffffffffffffffff161461335757600080fd5b83600860008773ffffffffffffffffffffffffffffffffffffffff1673ffffffffffffffffffffffffffffffffffffffff1681526020019081526020016000208190555085600a60008773ffffffffffffffffffffffffffffffffffffffff1673ffffffffffffffffffffffffffffffffffffffff16815260200190815260200160002060006101000a81548173ffffffffffffffffffffffffffffffffffffffff021916908373ffffffffffffffffffffffffffffffffffffffff16021790555033600c60008773ffffffffffffffffffffffffffffffffffffffff1673ffffffffffffffffffffffffffffffffffffffff16815260200190815260200160002060006101000a81548173ffffffffffffffffffffffffffffffffffffffff021916908373ffffffffffffffffffffffffffffffffffffffff160217905550505b5050505050565b6004600084815260200190815260200160002060009054906101000a900460ff16613533576040517f08c379a00000000000000000000000000000000000000000000000000000000081526004018080602001828103825260188152602001807f4552524f523a2041756374696f6e2068617320656e646564000000000000000081525060200191505060405180910390fd5b6005600084815260200190815260200160002060009054906101000a900460ff16156136d957600060076000858152602001908152602001600020905080600701600081548092919060010191905055816007018190555061359361480d565b60405180608001604052803373ffffffffffffffffffffffffffffffffffffffff1681526020018581526020016000151581526020018481525090508082600a0160008460070154815260200190815260200160002060008201518160000160006101000a81548173ffffffffffffffffffffffffffffffffffffffff021916908373ffffffffffffffffffffffffffffffffffffffff1602179055506020820151816001015560408201518160020160006101000a81548160ff0219169083151502179055506060820151816003019080519060200190613676929190614a25565b50905050816004015484106136d257338260030160006101000a81548173ffffffffffffffffffffffffffffffffffffffff021916908373ffffffffffffffffffffffffffffffffffffffff1602179055508382600401819055505b5050613855565b600060066000858152602001908152602001600020905080600701600081548092919060010191905055816007018190555061371361480d565b60405180608001604052803373ffffffffffffffffffffffffffffffffffffffff168152602001858152602001600015158152602001848152509050808260080160008460070154815260200190815260200160002060008201518160000160006101000a81548173ffffffffffffffffffffffffffffffffffffffff021916908373ffffffffffffffffffffffffffffffffffffffff1602179055506020820151816001015560408201518160020160006101000a81548160ff02191690831515021790555060608201518160030190805190602001906137f6929190614a25565b509050508160040154841061385257338260030160006101000a81548173ffffffffffffffffffffffffffffffffffffffff021916908373ffffffffffffffffffffffffffffffffffffffff1602179055508382600401819055505b50505b505050565b600b6020528060005260406000206000915054906101000a900473ffffffffffffffffffffffffffffffffffffffff1681565b6001600081548092919060010191905055508115613fce576000879050600073ffffffffffffffffffffffffffffffffffffffff16600a60008a73ffffffffffffffffffffffffffffffffffffffff1673ffffffffffffffffffffffffffffffffffffffff16815260200190815260200160002060009054906101000a900473ffffffffffffffffffffffffffffffffffffffff1673ffffffffffffffffffffffffffffffffffffffff16146139d5578673ffffffffffffffffffffffffffffffffffffffff16600a60008a73ffffffffffffffffffffffffffffffffffffffff1673ffffffffffffffffffffffffffffffffffffffff16815260200190815260200160002060009054906101000a900473ffffffffffffffffffffffffffffffffffffffff1673ffffffffffffffffffffffffffffffffffffffff16146139d457600080fd5b5b60018173ffffffffffffffffffffffffffffffffffffffff1662fdd58e33896040518363ffffffff167c0100000000000000000000000000000000000000000000000000000000028152600401808373ffffffffffffffffffffffffffffffffffffffff1673ffffffffffffffffffffffffffffffffffffffff1681526020018281526020019250505060206040518083038186803b158015613a7757600080fd5b505afa158015613a8b573d6000803e3d6000fd5b505050506040513d6020811015613aa157600080fd5b81019080805190602001909291905050501015613abd57600080fd5b613ac561484d565b600760006001548152602001908152602001600020604051806101400160405290816000820160009054906101000a900473ffffffffffffffffffffffffffffffffffffffff1673ffffffffffffffffffffffffffffffffffffffff1673ffffffffffffffffffffffffffffffffffffffff1681526020016001820160009054906101000a900473ffffffffffffffffffffffffffffffffffffffff1673ffffffffffffffffffffffffffffffffffffffff1673ffffffffffffffffffffffffffffffffffffffff1681526020016002820160009054906101000a900473ffffffffffffffffffffffffffffffffffffffff1673ffffffffffffffffffffffffffffffffffffffff1673ffffffffffffffffffffffffffffffffffffffff1681526020016003820160009054906101000a900473ffffffffffffffffffffffffffffffffffffffff1673ffffffffffffffffffffffffffffffffffffffff1673ffffffffffffffffffffffffffffffffffffffff1681526020016004820154815260200160058201548152602001600682015481526020016007820154815260200160088201548152602001600982018054600181600116156101000203166002900480601f016020809104026020016040519081016040528092919081815260200182805460018160011615610100020316600290048015613d095780601f10613cde57610100808354040283529160200191613d09565b820191906000526020600020905b815481529060010190602001808311613cec57829003601f168201915b505050505081525050905081816000019073ffffffffffffffffffffffffffffffffffffffff16908173ffffffffffffffffffffffffffffffffffffffff168152505033816040019073ffffffffffffffffffffffffffffffffffffffff16908173ffffffffffffffffffffffffffffffffffffffff168152505087816020019073ffffffffffffffffffffffffffffffffffffffff16908173ffffffffffffffffffffffffffffffffffffffff1681525050858160c0018181525050868160a00181815250508481610100018181525050828161012001819052508060076000600154815260200190815260200160002060008201518160000160006101000a81548173ffffffffffffffffffffffffffffffffffffffff021916908373ffffffffffffffffffffffffffffffffffffffff16021790555060208201518160010160006101000a81548173ffffffffffffffffffffffffffffffffffffffff021916908373ffffffffffffffffffffffffffffffffffffffff16021790555060408201518160020160006101000a81548173ffffffffffffffffffffffffffffffffffffffff021916908373ffffffffffffffffffffffffffffffffffffffff16021790555060608201518160030160006101000a81548173ffffffffffffffffffffffffffffffffffffffff021916908373ffffffffffffffffffffffffffffffffffffffff1602179055506080820151816004015560a0820151816005015560c0820151816006015560e082015181600701556101008201518160080155610120820151816009019080519060200190613f67929190614aa5565b50905050600160046000600154815260200190815260200160002060006101000a81548160ff021916908315150217905550600160056000600154815260200190815260200160002060006101000a81548160ff0219169083151502179055505050614600565b60008790508073ffffffffffffffffffffffffffffffffffffffff16636352211e876040518263ffffffff167c01000000000000000000000000000000000000000000000000000000000281526004018082815260200191505060206040518083038186803b15801561404057600080fd5b505afa158015614054573d6000803e3d6000fd5b505050506040513d602081101561406a57600080fd5b810190808051906020019092919050505073ffffffffffffffffffffffffffffffffffffffff163373ffffffffffffffffffffffffffffffffffffffff16146140b257600080fd5b600073ffffffffffffffffffffffffffffffffffffffff16600a60008a73ffffffffffffffffffffffffffffffffffffffff1673ffffffffffffffffffffffffffffffffffffffff16815260200190815260200160002060009054906101000a900473ffffffffffffffffffffffffffffffffffffffff1673ffffffffffffffffffffffffffffffffffffffff16146141dd578673ffffffffffffffffffffffffffffffffffffffff16600a60008a73ffffffffffffffffffffffffffffffffffffffff1673ffffffffffffffffffffffffffffffffffffffff16815260200190815260200160002060009054906101000a900473ffffffffffffffffffffffffffffffffffffffff1673ffffffffffffffffffffffffffffffffffffffff16146141dc57600080fd5b5b6141e5614940565b600660006001548152602001908152602001600020604051806101000160405290816000820160009054906101000a900473ffffffffffffffffffffffffffffffffffffffff1673ffffffffffffffffffffffffffffffffffffffff1673ffffffffffffffffffffffffffffffffffffffff1681526020016001820160009054906101000a900473ffffffffffffffffffffffffffffffffffffffff1673ffffffffffffffffffffffffffffffffffffffff1673ffffffffffffffffffffffffffffffffffffffff1681526020016002820160009054906101000a900473ffffffffffffffffffffffffffffffffffffffff1673ffffffffffffffffffffffffffffffffffffffff1673ffffffffffffffffffffffffffffffffffffffff1681526020016003820160009054906101000a900473ffffffffffffffffffffffffffffffffffffffff1673ffffffffffffffffffffffffffffffffffffffff1673ffffffffffffffffffffffffffffffffffffffff168152602001600482015481526020016005820154815260200160068201548152602001600782015481525050905081816000019073ffffffffffffffffffffffffffffffffffffffff16908173ffffffffffffffffffffffffffffffffffffffff168152505033816040019073ffffffffffffffffffffffffffffffffffffffff16908173ffffffffffffffffffffffffffffffffffffffff168152505087816020019073ffffffffffffffffffffffffffffffffffffffff16908173ffffffffffffffffffffffffffffffffffffffff1681525050858160c0018181525050868160a00181815250508060066000600154815260200190815260200160002060008201518160000160006101000a81548173ffffffffffffffffffffffffffffffffffffffff021916908373ffffffffffffffffffffffffffffffffffffffff16021790555060208201518160010160006101000a81548173ffffffffffffffffffffffffffffffffffffffff021916908373ffffffffffffffffffffffffffffffffffffffff16021790555060408201518160020160006101000a81548173ffffffffffffffffffffffffffffffffffffffff021916908373ffffffffffffffffffffffffffffffffffffffff16021790555060608201518160030160006101000a81548173ffffffffffffffffffffffffffffffffffffffff021916908373ffffffffffffffffffffffffffffffffffffffff1602179055506080820151816004015560a0820151816005015560c0820151816006015560e08201518160070155905050600160046000600154815260200190815260200160002060006101000a81548160ff021916908315150217905550600060056000600154815260200190815260200160002060006101000a81548160ff02191690831515021790555050505b50505050505050565b600063bc197c817c010000000000000000000000000000000000000000000000000000000002905095945050505050565b600360009054906101000a900473ffffffffffffffffffffffffffffffffffffffff1681565b60056020528060005260406000206000915054906101000a900460ff1681565b600a6020528060005260406000206000915054906101000a900473ffffffffffffffffffffffffffffffffffffffff1681565b600c6020528060005260406000206000915054906101000a900473ffffffffffffffffffffffffffffffffffffffff1681565b600063f23a6e617c010000000000000000000000000000000000000000000000000000000002905095945050505050565b60086020528060005260406000206000915090505481565b600260009054906101000a900473ffffffffffffffffffffffffffffffffffffffff1681565b60008060018301600a0a850290506000600a600586848161477257fe5b04018161477b57fe5b04905080925050509392505050565b600082821115614802576040517f08c379a000000000000000000000000000000000000000000000000000000000815260040180806020018281038252601e8152602001807f536166654d6174683a207375627472616374696f6e206f766572666c6f77000081525060200191505060405180910390fd5b818303905092915050565b6040518060800160405280600073ffffffffffffffffffffffffffffffffffffffff16815260200160008152602001600015158152602001606081525090565b604051806101400160405280600073ffffffffffffffffffffffffffffffffffffffff168152602001600073ffffffffffffffffffffffffffffffffffffffff168152602001600073ffffffffffffffffffffffffffffffffffffffff168152602001600073ffffffffffffffffffffffffffffffffffffffff1681526020016000815260200160008152602001600081526020016000815260200160008152602001606081525090565b50805460018160011615610100020316600290046000825580601f1061491e575061493d565b601f01602090049060005260206000209081019061493c9190614b25565b5b50565b604051806101000160405280600073ffffffffffffffffffffffffffffffffffffffff168152602001600073ffffffffffffffffffffffffffffffffffffffff168152602001600073ffffffffffffffffffffffffffffffffffffffff168152602001600073ffffffffffffffffffffffffffffffffffffffff168152602001600081526020016000815260200160008152602001600081525090565b50805460018160011615610100020316600290046000825580601f10614a035750614a22565b601f016020900490600052602060002090810190614a219190614b25565b5b50565b828054600181600116156101000203166002900490600052602060002090601f016020900481019282601f10614a6657805160ff1916838001178555614a94565b82800160010185558215614a94579182015b82811115614a93578251825591602001919060010190614a78565b5b509050614aa19190614b25565b5090565b828054600181600116156101000203166002900490600052602060002090601f016020900481019282601f10614ae657805160ff1916838001178555614b14565b82800160010185558215614b14579182015b82811115614b13578251825591602001919060010190614af8565b5b509050614b219190614b25565b5090565b614b4791905b80821115614b43576000816000905550600101614b2b565b5090565b9056fe4552524f523a20596f7520617265206e6f7420746865206f776e6572206f662074686973204e46542041756374696f6ea2646970667358221220f2232d3e43752e87ec2a7fcfb5e68f63f3db7ebd05e369a433102e42d946f17b64736f6c63430006060033",
  "immutableReferences": {},
  "source": "pragma solidity ^0.6.6;\n\nimport \"@openzeppelin/contracts/access/Ownable.sol\";\nimport \"@openzeppelin/contracts/math/SafeMath.sol\";\nimport \"@openzeppelin/contracts/token/ERC20/IERC20.sol\";\nimport \"@openzeppelin/contracts/token/ERC721/IERC721.sol\";\nimport \"@openzeppelin/contracts/token/ERC721/ERC721Holder.sol\";\nimport \"@openzeppelin/contracts/token/ERC1155/IERC1155.sol\";\nimport \"@openzeppelin/contracts/token/ERC1155/ERC1155Holder.sol\";\nimport \"./interfaces/IZNS.sol\";\n\ncontract AuctionNFT is ERC721Holder, ERC1155Holder {\n  using SafeMath for uint;\n    uint256 public auctionID;\n    IZNS public znsRegistryContract;\n    address public zns721;\n\n    mapping(uint256 => bool) public openAuction;\n    mapping(uint256 => bool) public auctionIDtoType;\n    mapping(uint256 => Auction721) public idToAuction721;\n    mapping(uint256 => Auction1155) public idToAuction1155;\n    mapping(address => uint256) public addressNFTtoFee;\n    mapping(uint256 => uint256) public znsIDtoFee;\n    mapping(address => IERC20) public addressNFTtoAddressFeeERC20;\n    mapping(uint256 => IERC20) public znsIDtoAddressFeeERC20;\n    mapping(address => address) public addressNFTtoCreator;\n    mapping(uint256 => address) public znsIDtoCreator;\n\n    struct Auction721 {\n        IERC721 nftContract;\n        IERC20 bidERC20Contract;\n        address seller;\n        address highestBidder;\n        uint256 highestBid;\n        uint256 nftId;\n        uint256 startPrice;\n        uint256 bidID;\n        mapping(uint256 => BidInfo) bids;\n    }\n\n    struct Auction1155 {\n        IERC1155 nftContract;\n        IERC20 bidERC20Contract;\n        address seller;\n        address highestBidder;\n        uint256 highestBid;\n        uint256 nftId;\n        uint256 startPrice;\n        uint256 bidID;\n        uint256 amount;\n        bytes callData;\n        mapping(uint256 => BidInfo) bids;\n    }\n\n    struct BidInfo {\n        address bidder;\n        uint256 bidAmount;\n        bool bidApproved;\n        string IPFShash;\n    }\n\n    constructor(IZNS _znsRegAdd, address _ZND721) public {\n        znsRegistryContract = _znsRegAdd;\n        zns721 = _ZND721;\n    }\n\n    /**\n@notice createAuction allows a NFT owner to create an auction for both a 721 and 1155 NFT\n@param _NFTcontract is the address of the NFT contract whos token is being auctioned\n@param _bidERC20 is the address of the ERC20 contract this auction will be held in\n@param _tokenId is the ID of the NFT token(s) being auctioned\n@param _startPrice is the starting price of the auction priced in the bid ERC20 token\n@param _amount is an amount of NFTs to be transfered(1155 only, set to 0 if ERC721)\n@param _is1155 is a bool representing whether or not the NFT being auctioned is ERC1155\n@param _callData is the relevant call data for the NFT if it is ERC1155(leave blank if ERC721)\n**/\n    function createAuction(\n        address _NFTcontract,\n        IERC20 _bidERC20,\n        uint256 _tokenId,\n        uint256 _startPrice,\n        uint256 _amount,\n        bool _is1155,\n        bytes memory _callData\n    ) public {\n        auctionID++;\n        if (_is1155) {\n            IERC1155 nft = IERC1155(_NFTcontract);\n            if(address(addressNFTtoAddressFeeERC20[_NFTcontract]) != address(0)){\n              require(addressNFTtoAddressFeeERC20[_NFTcontract] == _bidERC20);\n            }\n            require(nft.balanceOf(msg.sender, _tokenId) >= 1);\n            Auction1155 memory auction = idToAuction1155[auctionID];\n            auction.nftContract = nft;\n            auction.seller = msg.sender;\n            auction.bidERC20Contract = _bidERC20;\n            auction.startPrice = _startPrice;\n            auction.nftId = _tokenId;\n            auction.amount = _amount;\n            auction.callData = _callData;\n\n            idToAuction1155[auctionID] = auction;\n            openAuction[auctionID] = true;\n            auctionIDtoType[auctionID] = true;\n        } else {\n            IERC721 nft = IERC721(_NFTcontract);\n            require(msg.sender == nft.ownerOf(_tokenId));\n            if(address(addressNFTtoAddressFeeERC20[_NFTcontract]) != address(0)){\n              require(addressNFTtoAddressFeeERC20[_NFTcontract] == _bidERC20);\n            }\n            Auction721 memory auction = idToAuction721[auctionID];\n            auction.nftContract = nft;\n            auction.seller = msg.sender;\n            auction.bidERC20Contract = _bidERC20;\n            auction.startPrice = _startPrice;\n            auction.nftId = _tokenId;\n\n            idToAuction721[auctionID] = auction;\n            openAuction[auctionID] = true;\n            auctionIDtoType[auctionID] = false;\n        }\n    }\n\n    /**\n@notice bid allows any user to bid on an auction\n@param _auctionID is the number representing the ID of the auction being bid on\n@param _bidAmount is the ERC20 amount being placed as a bid for the auction\n@param _IPFShash is an optional IPFS hash that allows a bidder to relay a message to the NFT owner\n**/\n    function bid(\n        uint256 _auctionID,\n        uint256 _bidAmount,\n        string memory _IPFShash\n    ) public {\n        require(openAuction[_auctionID], \"ERROR: Auction has ended\");\n        if (auctionIDtoType[_auctionID]) {\n            Auction1155 storage auction = idToAuction1155[_auctionID];\n            auction.bidID = auction.bidID++;\n\n            BidInfo memory currentBid =\n                BidInfo({\n                    bidder: msg.sender,\n                    bidAmount: _bidAmount,\n                    bidApproved: false,\n                    IPFShash: _IPFShash\n                });\n\n            auction.bids[auction.bidID] = currentBid;\n\n            if (_bidAmount >= auction.highestBid) {\n                auction.highestBidder = msg.sender;\n                auction.highestBid = _bidAmount;\n            }\n        } else {\n            Auction721 storage auction = idToAuction721[_auctionID];\n            auction.bidID = auction.bidID++;\n            BidInfo memory currentBid =\n                BidInfo({\n                    bidder: msg.sender,\n                    bidAmount: _bidAmount,\n                    bidApproved: false,\n                    IPFShash: _IPFShash\n                });\n\n            auction.bids[auction.bidID] = currentBid;\n            if (_bidAmount >= auction.highestBid) {\n                auction.highestBidder = msg.sender;\n                auction.highestBid = _bidAmount;\n            }\n        }\n    }\n\n    /**\n@notice acceptBid allows an NFT owner/auctioner to accept a placed bid\n@param _auctionID is the number representing the Auction where the bid is placed\n@param _bidID is the number representing the bid being accepted\n@dev this function allows an NFT owner to accept ANY placed bid regardless of if it is the highest bid or not\n**/\n    function acceptBid(uint256 _auctionID, uint256 _bidID) public {\n        require(openAuction[_auctionID], \"ERROR: Auction has ended\");\n\n        if (auctionIDtoType[_auctionID]) {\n            Auction1155 storage auction = idToAuction1155[_auctionID];\n            BidInfo memory currentBid = auction.bids[_bidID];\n            require(\n                auction.seller == msg.sender,\n                \"ERROR: You are not the owner of this NFT Auction\"\n            );\n            require(\n                auction.bidERC20Contract.balanceOf(currentBid.bidder) >=\n                    currentBid.bidAmount,\n                \"Bidders balance too low\"\n            );\n            uint fee = _percent(\n              currentBid.bidAmount,\n              addressNFTtoFee[address(auction.nftContract)],\n              2\n            );\n            uint remainder = currentBid.bidAmount.sub(fee);\n\n            auction.bidERC20Contract.transferFrom(\n                currentBid.bidder,\n                auction.seller,\n                remainder\n            );\n            auction.bidERC20Contract.transferFrom(\n                currentBid.bidder,\n                addressNFTtoCreator[address(auction.nftContract)],\n                fee\n            );\n            auction.nftContract.safeTransferFrom(\n                auction.seller,\n                currentBid.bidder,\n                auction.nftId,\n                auction.amount,\n                auction.callData\n            );\n        } else {\n            Auction721 storage auction = idToAuction721[_auctionID];\n            BidInfo memory currentBid = auction.bids[_bidID];\n            require(\n                auction.seller == msg.sender,\n                \"ERROR: You are not the owner of this NFT Auction\"\n            );\n            require(\n                auction.bidERC20Contract.balanceOf(currentBid.bidder) >=\n                    currentBid.bidAmount,\n                \"Bidders balance too low\"\n            );\n            uint fee;\n            if(zns721 == address(auction.nftContract)){\n               fee = _percent(\n                currentBid.bidAmount,\n                addressNFTtoFee[address(auction.nftContract)],\n                2\n              );\n            } else {\n               fee = _percent(\n                currentBid.bidAmount,\n                znsIDtoFee[auction.nftId],\n                2\n              );\n\n            }\n            uint remainder = currentBid.bidAmount.sub(fee);\n\n            auction.bidERC20Contract.transferFrom(\n                currentBid.bidder,\n                auction.seller,\n                remainder\n            );\n            auction.bidERC20Contract.transferFrom(\n                currentBid.bidder,\n                addressNFTtoCreator[address(auction.nftContract)],\n                fee\n            );\n            auction.nftContract.safeTransferFrom(\n                auction.seller,\n                currentBid.bidder,\n                auction.nftId\n            );\n        }\n        openAuction[_auctionID] = false;\n\n    }\n\n    /**\n@notice cancel allows an NFT owner/ auction creator to cancle their auction\n@param _auctionID is the number representing the auction that is being cancled\n**/\n    function cancel(uint256 _auctionID) public {\n        require(openAuction[_auctionID], \"ERROR: Auction has ended\");\n        if (auctionIDtoType[_auctionID]) {\n            Auction1155 memory auction = idToAuction1155[_auctionID];\n            require(auction.seller == msg.sender);\n            delete idToAuction1155[_auctionID];\n        } else {\n            Auction721 memory auction = idToAuction721[_auctionID];\n            require(auction.seller == msg.sender);\n            delete idToAuction1155[_auctionID];\n        }\n        openAuction[_auctionID] = false;\n    }\n\n    /**\n@notice cancelBid allows a bidder to cancel their bid\n@param _auctionID is the number representing the auction that is being cancled\n@param _bidID is the number representing the users bid\n**/\n    function cancelBid(uint256 _auctionID, uint256 _bidID) public {\n        require(openAuction[_auctionID], \"ERROR: Auction has ended\");\n        if (auctionIDtoType[_auctionID]) {\n            Auction1155 storage auction = idToAuction1155[_auctionID];\n            require(auction.bids[_bidID].bidder == msg.sender);\n            delete auction.bids[_bidID];\n        } else {\n            Auction721 storage auction = idToAuction721[_auctionID];\n            require(auction.bids[_bidID].bidder == msg.sender);\n            delete auction.bids[_bidID];\n        }\n    }\n\n    /**\n@notice setCreatorFees allows the owner of an NFT contract OR the owner of a ZNS domain to\n        set a creator fee for all sales of their NFTs through the platform\n@param _ERC20FeeAdd is the address of the ERC20 contract NFT will be purchased in\n@param _NFTContractAdd is the address of the NFT contract they own\n@param _feePercentage is the percentage of a sale that will be collected in fee's\n@param _znsID is the ZNS ID for a ZNS domain\n@param _isZNS is a bool representing whether or not the NFT set is a ZNS domain\n**/\n    function setCreatorFees(\n        IERC20 _ERC20FeeAdd,\n        address _NFTContractAdd,\n        uint256 _feePercentage,\n        uint256 _znsID,\n        bool _isZNS\n    ) public {\n        if (_isZNS) {\n          require(msg.sender == znsRegistryContract.creatorOf(_znsID));\n          znsIDtoFee[_znsID] = _feePercentage;\n          znsIDtoAddressFeeERC20[_znsID] = _ERC20FeeAdd;\n          znsIDtoCreator[_znsID] = msg.sender;\n        } else {\n          Ownable nft = Ownable(_NFTContractAdd);\n          require(msg.sender == nft.owner());\n          addressNFTtoFee[_NFTContractAdd] = _feePercentage;\n          addressNFTtoAddressFeeERC20[_NFTContractAdd] = _ERC20FeeAdd;\n          addressNFTtoCreator[_NFTContractAdd] = msg.sender;\n        }\n    }\n\n    /**\n    @notice percent is an internal function used to calculate the ratio between a given numerator && denominator\n    @param _numerator is the numerator of the equation\n    @param _denominator is the denominator of the equation\n    @param _precision is a precision point to ensure that decimals dont trail outside what the EVM can handle\n    **/\n    function _percent(\n        uint256 _numerator,\n        uint256 _denominator,\n        uint256 _precision\n    ) internal pure returns (uint256 quotient) {\n        // caution, check safe-to-multiply here\n        uint256 numerator = _numerator * 10**(_precision + 1);\n        // with rounding of last digit\n        uint256 _quotient = ((numerator / _denominator) + 5) / 10;\n        return (_quotient);\n    }\n}\n",
  "sourcePath": "/home/stan36/repos/zer0/auction/contracts/AuctionNFT.sol",
  "compiler": {
    "name": "solc",
    "version": "0.6.6+commit.6c089d02.Emscripten.clang"
  },
  "schemaVersion": "3.3.2",
  "updatedAt": "2021-02-18T03:01:34.302Z",
  "devdoc": {
    "methods": {
      "acceptBid(uint256,uint256)": {
        "details": "this function allows an NFT owner to accept ANY placed bid regardless of if it is the highest bid or not*",
        "params": {
          "_auctionID": "is the number representing the Auction where the bid is placed",
          "_bidID": "is the number representing the bid being accepted"
        }
      },
      "bid(uint256,uint256,string)": {
        "params": {
          "_IPFShash": "is an optional IPFS hash that allows a bidder to relay a message to the NFT owner*",
          "_auctionID": "is the number representing the ID of the auction being bid on",
          "_bidAmount": "is the ERC20 amount being placed as a bid for the auction"
        }
      },
      "cancel(uint256)": {
        "params": {
          "_auctionID": "is the number representing the auction that is being cancled*"
        }
      },
      "cancelBid(uint256,uint256)": {
        "params": {
          "_auctionID": "is the number representing the auction that is being cancled",
          "_bidID": "is the number representing the users bid*"
        }
      },
      "createAuction(address,address,uint256,uint256,uint256,bool,bytes)": {
        "params": {
          "_NFTcontract": "is the address of the NFT contract whos token is being auctioned",
          "_amount": "is an amount of NFTs to be transfered(1155 only, set to 0 if ERC721)",
          "_bidERC20": "is the address of the ERC20 contract this auction will be held in",
          "_callData": "is the relevant call data for the NFT if it is ERC1155(leave blank if ERC721)*",
          "_is1155": "is a bool representing whether or not the NFT being auctioned is ERC1155",
          "_startPrice": "is the starting price of the auction priced in the bid ERC20 token",
          "_tokenId": "is the ID of the NFT token(s) being auctioned"
        }
      },
      "onERC721Received(address,address,uint256,bytes)": {
        "details": "See {IERC721Receiver-onERC721Received}.     * Always returns `IERC721Receiver.onERC721Received.selector`."
      },
      "setCreatorFees(address,address,uint256,uint256,bool)": {
        "params": {
          "_ERC20FeeAdd": "is the address of the ERC20 contract NFT will be purchased in",
          "_NFTContractAdd": "is the address of the NFT contract they own",
          "_feePercentage": "is the percentage of a sale that will be collected in fee's",
          "_isZNS": "is a bool representing whether or not the NFT set is a ZNS domain*",
          "_znsID": "is the ZNS ID for a ZNS domain"
        }
      },
      "supportsInterface(bytes4)": {
        "details": "See {IERC165-supportsInterface}.     * Time complexity O(1), guaranteed to always use less than 30 000 gas."
      }
    }
  },
  "userdoc": {
    "methods": {
      "acceptBid(uint256,uint256)": {
        "notice": "acceptBid allows an NFT owner/auctioner to accept a placed bid"
      },
      "bid(uint256,uint256,string)": {
        "notice": "bid allows any user to bid on an auction"
      },
      "cancel(uint256)": {
        "notice": "cancel allows an NFT owner/ auction creator to cancle their auction"
      },
      "cancelBid(uint256,uint256)": {
        "notice": "cancelBid allows a bidder to cancel their bid"
      },
      "createAuction(address,address,uint256,uint256,uint256,bool,bytes)": {
        "notice": "createAuction allows a NFT owner to create an auction for both a 721 and 1155 NFT"
      },
      "setCreatorFees(address,address,uint256,uint256,bool)": {
        "notice": "setCreatorFees allows the owner of an NFT contract OR the owner of a ZNS domain to set a creator fee for all sales of their NFTs through the platform"
      }
    }
  }
}