{
  "contractName": "Fake721",
  "abi": [
    {
      "inputs": [],
      "stateMutability": "nonpayable",
      "type": "constructor"
    },
    {
      "anonymous": false,
      "inputs": [
        {
          "indexed": true,
          "internalType": "address",
          "name": "owner",
          "type": "address"
        },
        {
          "indexed": true,
          "internalType": "address",
          "name": "approved",
          "type": "address"
        },
        {
          "indexed": true,
          "internalType": "uint256",
          "name": "tokenId",
          "type": "uint256"
        }
      ],
      "name": "Approval",
      "type": "event"
    },
    {
      "anonymous": false,
      "inputs": [
        {
          "indexed": true,
          "internalType": "address",
          "name": "owner",
          "type": "address"
        },
        {
          "indexed": true,
          "internalType": "address",
          "name": "operator",
          "type": "address"
        },
        {
          "indexed": false,
          "internalType": "bool",
          "name": "approved",
          "type": "bool"
        }
      ],
      "name": "ApprovalForAll",
      "type": "event"
    },
    {
      "anonymous": false,
      "inputs": [
        {
          "indexed": true,
          "internalType": "address",
          "name": "previousOwner",
          "type": "address"
        },
        {
          "indexed": true,
          "internalType": "address",
          "name": "newOwner",
          "type": "address"
        }
      ],
      "name": "OwnershipTransferred",
      "type": "event"
    },
    {
      "anonymous": false,
      "inputs": [
        {
          "indexed": true,
          "internalType": "address",
          "name": "from",
          "type": "address"
        },
        {
          "indexed": true,
          "internalType": "address",
          "name": "to",
          "type": "address"
        },
        {
          "indexed": true,
          "internalType": "uint256",
          "name": "tokenId",
          "type": "uint256"
        }
      ],
      "name": "Transfer",
      "type": "event"
    },
    {
      "inputs": [
        {
          "internalType": "address",
          "name": "to",
          "type": "address"
        },
        {
          "internalType": "uint256",
          "name": "tokenId",
          "type": "uint256"
        }
      ],
      "name": "approve",
      "outputs": [],
      "stateMutability": "nonpayable",
      "type": "function"
    },
    {
      "inputs": [
        {
          "internalType": "address",
          "name": "owner",
          "type": "address"
        }
      ],
      "name": "balanceOf",
      "outputs": [
        {
          "internalType": "uint256",
          "name": "",
          "type": "uint256"
        }
      ],
      "stateMutability": "view",
      "type": "function"
    },
    {
      "inputs": [],
      "name": "baseURI",
      "outputs": [
        {
          "internalType": "string",
          "name": "",
          "type": "string"
        }
      ],
      "stateMutability": "view",
      "type": "function"
    },
    {
      "inputs": [
        {
          "internalType": "uint256",
          "name": "tokenId",
          "type": "uint256"
        }
      ],
      "name": "getApproved",
      "outputs": [
        {
          "internalType": "address",
          "name": "",
          "type": "address"
        }
      ],
      "stateMutability": "view",
      "type": "function"
    },
    {
      "inputs": [],
      "name": "idTracker",
      "outputs": [
        {
          "internalType": "uint256",
          "name": "",
          "type": "uint256"
        }
      ],
      "stateMutability": "view",
      "type": "function"
    },
    {
      "inputs": [
        {
          "internalType": "address",
          "name": "owner",
          "type": "address"
        },
        {
          "internalType": "address",
          "name": "operator",
          "type": "address"
        }
      ],
      "name": "isApprovedForAll",
      "outputs": [
        {
          "internalType": "bool",
          "name": "",
          "type": "bool"
        }
      ],
      "stateMutability": "view",
      "type": "function"
    },
    {
      "inputs": [],
      "name": "name",
      "outputs": [
        {
          "internalType": "string",
          "name": "",
          "type": "string"
        }
      ],
      "stateMutability": "view",
      "type": "function"
    },
    {
      "inputs": [],
      "name": "owner",
      "outputs": [
        {
          "internalType": "address",
          "name": "",
          "type": "address"
        }
      ],
      "stateMutability": "view",
      "type": "function"
    },
    {
      "inputs": [
        {
          "internalType": "uint256",
          "name": "tokenId",
          "type": "uint256"
        }
      ],
      "name": "ownerOf",
      "outputs": [
        {
          "internalType": "address",
          "name": "",
          "type": "address"
        }
      ],
      "stateMutability": "view",
      "type": "function"
    },
    {
      "inputs": [],
      "name": "renounceOwnership",
      "outputs": [],
      "stateMutability": "nonpayable",
      "type": "function"
    },
    {
      "inputs": [
        {
          "internalType": "address",
          "name": "from",
          "type": "address"
        },
        {
          "internalType": "address",
          "name": "to",
          "type": "address"
        },
        {
          "internalType": "uint256",
          "name": "tokenId",
          "type": "uint256"
        }
      ],
      "name": "safeTransferFrom",
      "outputs": [],
      "stateMutability": "nonpayable",
      "type": "function"
    },
    {
      "inputs": [
        {
          "internalType": "address",
          "name": "from",
          "type": "address"
        },
        {
          "internalType": "address",
          "name": "to",
          "type": "address"
        },
        {
          "internalType": "uint256",
          "name": "tokenId",
          "type": "uint256"
        },
        {
          "internalType": "bytes",
          "name": "_data",
          "type": "bytes"
        }
      ],
      "name": "safeTransferFrom",
      "outputs": [],
      "stateMutability": "nonpayable",
      "type": "function"
    },
    {
      "inputs": [
        {
          "internalType": "address",
          "name": "operator",
          "type": "address"
        },
        {
          "internalType": "bool",
          "name": "approved",
          "type": "bool"
        }
      ],
      "name": "setApprovalForAll",
      "outputs": [],
      "stateMutability": "nonpayable",
      "type": "function"
    },
    {
      "inputs": [
        {
          "internalType": "bytes4",
          "name": "interfaceId",
          "type": "bytes4"
        }
      ],
      "name": "supportsInterface",
      "outputs": [
        {
          "internalType": "bool",
          "name": "",
          "type": "bool"
        }
      ],
      "stateMutability": "view",
      "type": "function"
    },
    {
      "inputs": [],
      "name": "symbol",
      "outputs": [
        {
          "internalType": "string",
          "name": "",
          "type": "string"
        }
      ],
      "stateMutability": "view",
      "type": "function"
    },
    {
      "inputs": [
        {
          "internalType": "uint256",
          "name": "index",
          "type": "uint256"
        }
      ],
      "name": "tokenByIndex",
      "outputs": [
        {
          "internalType": "uint256",
          "name": "",
          "type": "uint256"
        }
      ],
      "stateMutability": "view",
      "type": "function"
    },
    {
      "inputs": [
        {
          "internalType": "address",
          "name": "owner",
          "type": "address"
        },
        {
          "internalType": "uint256",
          "name": "index",
          "type": "uint256"
        }
      ],
      "name": "tokenOfOwnerByIndex",
      "outputs": [
        {
          "internalType": "uint256",
          "name": "",
          "type": "uint256"
        }
      ],
      "stateMutability": "view",
      "type": "function"
    },
    {
      "inputs": [
        {
          "internalType": "uint256",
          "name": "tokenId",
          "type": "uint256"
        }
      ],
      "name": "tokenURI",
      "outputs": [
        {
          "internalType": "string",
          "name": "",
          "type": "string"
        }
      ],
      "stateMutability": "view",
      "type": "function"
    },
    {
      "inputs": [],
      "name": "totalSupply",
      "outputs": [
        {
          "internalType": "uint256",
          "name": "",
          "type": "uint256"
        }
      ],
      "stateMutability": "view",
      "type": "function"
    },
    {
      "inputs": [
        {
          "internalType": "address",
          "name": "from",
          "type": "address"
        },
        {
          "internalType": "address",
          "name": "to",
          "type": "address"
        },
        {
          "internalType": "uint256",
          "name": "tokenId",
          "type": "uint256"
        }
      ],
      "name": "transferFrom",
      "outputs": [],
      "stateMutability": "nonpayable",
      "type": "function"
    },
    {
      "inputs": [
        {
          "internalType": "address",
          "name": "newOwner",
          "type": "address"
        }
      ],
      "name": "transferOwnership",
      "outputs": [],
      "stateMutability": "nonpayable",
      "type": "function"
    },
    {
      "inputs": [
        {
          "internalType": "string",
          "name": "_tokenURI",
          "type": "string"
        }
      ],
      "name": "mintNewNFT",
      "outputs": [],
      "stateMutability": "nonpayable",
      "type": "function"
    }
  ],
  "bytecode": "0x60806040523480156200001157600080fd5b506040518060400160405280600b81526020016a46616b652045524337323160a81b815250604051806040016040528060048152602001634637323160e01b8152506000620000656200015460201b60201c565b600080546001600160a01b0319166001600160a01b0383169081178255604051929350917f8be0079c531659141344cd1fd0a4f28419497f9722a3daafe3b4186f6b6457e0908290a350620000ca6301ffc9a760e01b6001600160e01b036200015916565b8151620000df906007906020850190620001e1565b508051620000f5906008906020840190620001e1565b50620001116380ac58cd60e01b6001600160e01b036200015916565b6200012c635b5e139f60e01b6001600160e01b036200015916565b6200014763780e9d6360e01b6001600160e01b036200015916565b50506000600b5562000283565b335b90565b6001600160e01b03198082161415620001b9576040805162461bcd60e51b815260206004820152601c60248201527f4552433136353a20696e76616c696420696e7465726661636520696400000000604482015290519081900360640190fd5b6001600160e01b0319166000908152600160208190526040909120805460ff19169091179055565b828054600181600116156101000203166002900490600052602060002090601f016020900481019282601f106200022457805160ff191683800117855562000254565b8280016001018555821562000254579182015b828111156200025457825182559160200191906001019062000237565b506200026292915062000266565b5090565b6200015691905b808211156200026257600081556001016200026d565b61206880620002936000396000f3fe608060405234801561001057600080fd5b50600436106101425760003560e01c80636352211e116100b857806395d89b411161007c57806395d89b411461043e578063a22cb46514610446578063b88d4fde14610474578063c87b56dd1461053a578063e985e9c514610557578063f2fde38b1461058557610142565b80636352211e146103e35780636c0360eb1461040057806370a0823114610408578063715018a61461042e5780638da5cb5b1461043657610142565b80631b7fe6b61161010a5780631b7fe6b61461028057806323b872dd146102885780632f745c59146102be5780633157631f146102ea57806342842e0e146103905780634f6ccce7146103c657610142565b806301ffc9a71461014757806306fdde0314610182578063081812fc146101ff578063095ea7b31461023857806318160ddd14610266575b600080fd5b61016e6004803603602081101561015d57600080fd5b50356001600160e01b0319166105ab565b604080519115158252519081900360200190f35b61018a6105ce565b6040805160208082528351818301528351919283929083019185019080838360005b838110156101c45781810151838201526020016101ac565b50505050905090810190601f1680156101f15780820380516001836020036101000a031916815260200191505b509250505060405180910390f35b61021c6004803603602081101561021557600080fd5b5035610665565b604080516001600160a01b039092168252519081900360200190f35b6102646004803603604081101561024e57600080fd5b506001600160a01b0381351690602001356106c7565b005b61026e6107a2565b60408051918252519081900360200190f35b61026e6107b3565b6102646004803603606081101561029e57600080fd5b506001600160a01b038135811691602081013590911690604001356107b9565b61026e600480360360408110156102d457600080fd5b506001600160a01b038135169060200135610810565b6102646004803603602081101561030057600080fd5b81019060208101813564010000000081111561031b57600080fd5b82018360208201111561032d57600080fd5b8035906020019184600183028401116401000000008311171561034f57600080fd5b91908080601f016020809104026020016040519081016040528093929190818152602001838380828437600092019190915250929550610841945050505050565b610264600480360360608110156103a657600080fd5b506001600160a01b038135811691602081013590911690604001356108da565b61026e600480360360208110156103dc57600080fd5b50356108f5565b61021c600480360360208110156103f957600080fd5b5035610911565b61018a61093f565b61026e6004803603602081101561041e57600080fd5b50356001600160a01b03166109a0565b610264610a08565b61021c610ac6565b61018a610ad5565b6102646004803603604081101561045c57600080fd5b506001600160a01b0381351690602001351515610b36565b6102646004803603608081101561048a57600080fd5b6001600160a01b038235811692602081013590911691604082013591908101906080810160608201356401000000008111156104c557600080fd5b8201836020820111156104d757600080fd5b803590602001918460018302840111640100000000831117156104f957600080fd5b91908080601f016020809104026020016040519081016040528093929190818152602001838380828437600092019190915250929550610c3b945050505050565b61018a6004803603602081101561055057600080fd5b5035610c99565b61016e6004803603604081101561056d57600080fd5b506001600160a01b0381358116916020013516610f1c565b6102646004803603602081101561059b57600080fd5b50356001600160a01b0316610f4a565b6001600160e01b0319811660009081526001602052604090205460ff165b919050565b60078054604080516020601f600260001961010060018816150201909516949094049384018190048102820181019092528281526060939092909183018282801561065a5780601f1061062f5761010080835404028352916020019161065a565b820191906000526020600020905b81548152906001019060200180831161063d57829003601f168201915b505050505090505b90565b60006106708261105e565b6106ab5760405162461bcd60e51b815260040180806020018281038252602c815260200180611f31602c913960400191505060405180910390fd5b506000908152600560205260409020546001600160a01b031690565b60006106d282610911565b9050806001600160a01b0316836001600160a01b031614156107255760405162461bcd60e51b8152600401808060200182810382526021815260200180611fe16021913960400191505060405180910390fd5b806001600160a01b0316610737611071565b6001600160a01b03161480610758575061075881610753611071565b610f1c565b6107935760405162461bcd60e51b8152600401808060200182810382526038815260200180611e846038913960400191505060405180910390fd5b61079d8383611075565b505050565b60006107ae60036110e3565b905090565b600b5481565b6107ca6107c4611071565b826110ee565b6108055760405162461bcd60e51b81526004018080602001828103825260318152602001806120026031913960400191505060405180910390fd5b61079d838383611192565b6001600160a01b0382166000908152600260205260408120610838908363ffffffff6112f016565b90505b92915050565b610849611071565b6001600160a01b031661085a610ac6565b6001600160a01b0316146108b5576040805162461bcd60e51b815260206004820181905260248201527f4f776e61626c653a2063616c6c6572206973206e6f7420746865206f776e6572604482015290519081900360640190fd5b600b8054600101908190556108cb9033906112fc565b6108d7600b548261131a565b50565b61079d83838360405180602001604052806000815250610c3b565b60008061090960038463ffffffff61137d16565b509392505050565b600061083b82604051806060016040528060298152602001611ee6602991396003919063ffffffff61139916565b600a8054604080516020601f600260001961010060018816150201909516949094049384018190048102820181019092528281526060939092909183018282801561065a5780601f1061062f5761010080835404028352916020019161065a565b60006001600160a01b0382166109e75760405162461bcd60e51b815260040180806020018281038252602a815260200180611ebc602a913960400191505060405180910390fd5b6001600160a01b038216600090815260026020526040902061083b906110e3565b610a10611071565b6001600160a01b0316610a21610ac6565b6001600160a01b031614610a7c576040805162461bcd60e51b815260206004820181905260248201527f4f776e61626c653a2063616c6c6572206973206e6f7420746865206f776e6572604482015290519081900360640190fd5b600080546040516001600160a01b03909116907f8be0079c531659141344cd1fd0a4f28419497f9722a3daafe3b4186f6b6457e0908390a3600080546001600160a01b0319169055565b6000546001600160a01b031690565b60088054604080516020601f600260001961010060018816150201909516949094049384018190048102820181019092528281526060939092909183018282801561065a5780601f1061062f5761010080835404028352916020019161065a565b610b3e611071565b6001600160a01b0316826001600160a01b03161415610ba4576040805162461bcd60e51b815260206004820152601960248201527f4552433732313a20617070726f766520746f2063616c6c657200000000000000604482015290519081900360640190fd5b8060066000610bb1611071565b6001600160a01b03908116825260208083019390935260409182016000908120918716808252919093529120805460ff191692151592909217909155610bf5611071565b60408051841515815290516001600160a01b0392909216917f17307eab39ab6107e8899845ad3d59bd9653f200f220920489ca2b5937696c319181900360200190a35050565b610c4c610c46611071565b836110ee565b610c875760405162461bcd60e51b81526004018080602001828103825260318152602001806120026031913960400191505060405180910390fd5b610c93848484846113b0565b50505050565b6060610ca48261105e565b610cdf5760405162461bcd60e51b815260040180806020018281038252602f815260200180611fb2602f913960400191505060405180910390fd5b60008281526009602090815260409182902080548351601f6002600019610100600186161502019093169290920491820184900484028101840190945280845260609392830182828015610d745780601f10610d4957610100808354040283529160200191610d74565b820191906000526020600020905b815481529060010190602001808311610d5757829003601f168201915b505050505090506060610d8561093f565b9050805160001415610d99575090506105c9565b815115610e5a5780826040516020018083805190602001908083835b60208310610dd45780518252601f199092019160209182019101610db5565b51815160209384036101000a600019018019909216911617905285519190930192850191508083835b60208310610e1c5780518252601f199092019160209182019101610dfd565b6001836020036101000a03801982511681845116808217855250505050505090500192505050604051602081830303815290604052925050506105c9565b80610e6485611402565b6040516020018083805190602001908083835b60208310610e965780518252601f199092019160209182019101610e77565b51815160209384036101000a600019018019909216911617905285519190930192850191508083835b60208310610ede5780518252601f199092019160209182019101610ebf565b6001836020036101000a0380198251168184511680821785525050505050509050019250505060405160208183030381529060405292505050919050565b6001600160a01b03918216600090815260066020908152604080832093909416825291909152205460ff1690565b610f52611071565b6001600160a01b0316610f63610ac6565b6001600160a01b031614610fbe576040805162461bcd60e51b815260206004820181905260248201527f4f776e61626c653a2063616c6c6572206973206e6f7420746865206f776e6572604482015290519081900360640190fd5b6001600160a01b0381166110035760405162461bcd60e51b8152600401808060200182810382526026815260200180611e0e6026913960400191505060405180910390fd5b600080546040516001600160a01b03808516939216917f8be0079c531659141344cd1fd0a4f28419497f9722a3daafe3b4186f6b6457e091a3600080546001600160a01b0319166001600160a01b0392909216919091179055565b600061083b60038363ffffffff6114dd16565b3390565b600081815260056020526040902080546001600160a01b0319166001600160a01b03841690811790915581906110aa82610911565b6001600160a01b03167f8c5be1e5ebec7d5bd14f71427d1e84f3dd0314c0f7b2291e5b200ac8c7c3b92560405160405180910390a45050565b600061083b826114e9565b60006110f98261105e565b6111345760405162461bcd60e51b815260040180806020018281038252602c815260200180611e58602c913960400191505060405180910390fd5b600061113f83610911565b9050806001600160a01b0316846001600160a01b0316148061117a5750836001600160a01b031661116f84610665565b6001600160a01b0316145b8061118a575061118a8185610f1c565b949350505050565b826001600160a01b03166111a582610911565b6001600160a01b0316146111ea5760405162461bcd60e51b8152600401808060200182810382526029815260200180611f896029913960400191505060405180910390fd5b6001600160a01b03821661122f5760405162461bcd60e51b8152600401808060200182810382526024815260200180611e346024913960400191505060405180910390fd5b61123a83838361079d565b611245600082611075565b6001600160a01b038316600090815260026020526040902061126d908263ffffffff6114ed16565b506001600160a01b0382166000908152600260205260409020611296908263ffffffff6114f916565b506112a96003828463ffffffff61150516565b5080826001600160a01b0316846001600160a01b03167fddf252ad1be2c89b69c2b068fc378daa952ba7f163c4a11628f55a4df523b3ef60405160405180910390a4505050565b6000610838838361151b565b61131682826040518060200160405280600081525061157f565b5050565b6113238261105e565b61135e5760405162461bcd60e51b815260040180806020018281038252602c815260200180611f5d602c913960400191505060405180910390fd5b6000828152600960209081526040909120825161079d92840190611d21565b600080808061138c86866115d1565b9097909650945050505050565b60006113a684848461164c565b90505b9392505050565b6113bb848484611192565b6113c784848484611716565b610c935760405162461bcd60e51b8152600401808060200182810382526032815260200180611ddc6032913960400191505060405180910390fd5b60608161142757506040805180820190915260018152600360fc1b60208201526105c9565b8160005b811561143f57600101600a8204915061142b565b60608167ffffffffffffffff8111801561145857600080fd5b506040519080825280601f01601f191660200182016040528015611483576020820181803683370190505b50859350905060001982015b83156114d457600a840660300160f81b828280600190039350815181106114b257fe5b60200101906001600160f81b031916908160001a905350600a8404935061148f565b50949350505050565b60006108388383611896565b5490565b600061083883836118ae565b60006108388383611974565b60006113a684846001600160a01b0385166119be565b8154600090821061155d5760405162461bcd60e51b8152600401808060200182810382526022815260200180611dba6022913960400191505060405180910390fd5b82600001828154811061156c57fe5b9060005260206000200154905092915050565b6115898383611a55565b6115966000848484611716565b61079d5760405162461bcd60e51b8152600401808060200182810382526032815260200180611ddc6032913960400191505060405180910390fd5b8154600090819083106116155760405162461bcd60e51b8152600401808060200182810382526022815260200180611f0f6022913960400191505060405180910390fd5b600084600001848154811061162657fe5b906000526020600020906002020190508060000154816001015492509250509250929050565b600082815260018401602052604081205482816116e75760405162461bcd60e51b81526004018080602001828103825283818151815260200191508051906020019080838360005b838110156116ac578181015183820152602001611694565b50505050905090810190601f1680156116d95780820380516001836020036101000a031916815260200191505b509250505060405180910390fd5b508460000160018203815481106116fa57fe5b9060005260206000209060020201600101549150509392505050565b600061172a846001600160a01b0316611b8f565b6117365750600161118a565b606061185c630a85bd0160e11b61174b611071565b88878760405160240180856001600160a01b03166001600160a01b03168152602001846001600160a01b03166001600160a01b0316815260200183815260200180602001828103825283818151815260200191508051906020019080838360005b838110156117c45781810151838201526020016117ac565b50505050905090810190601f1680156117f15780820380516001836020036101000a031916815260200191505b5095505050505050604051602081830303815290604052906001600160e01b0319166020820180516001600160e01b038381831617835250505050604051806060016040528060328152602001611ddc603291396001600160a01b038816919063ffffffff611b9516565b9050600081806020019051602081101561187557600080fd5b50516001600160e01b031916630a85bd0160e11b1492505050949350505050565b60009081526001919091016020526040902054151590565b6000818152600183016020526040812054801561196a57835460001980830191908101906000908790839081106118e157fe5b90600052602060002001549050808760000184815481106118fe57fe5b60009182526020808320909101929092558281526001898101909252604090209084019055865487908061192e57fe5b6001900381819060005260206000200160009055905586600101600087815260200190815260200160002060009055600194505050505061083b565b600091505061083b565b60006119808383611896565b6119b65750815460018181018455600084815260208082209093018490558454848252828601909352604090209190915561083b565b50600061083b565b600082815260018401602052604081205480611a235750506040805180820182528381526020808201848152865460018181018955600089815284812095516002909302909501918255915190820155865486845281880190925292909120556113a9565b82856000016001830381548110611a3657fe5b90600052602060002090600202016001018190555060009150506113a9565b6001600160a01b038216611ab0576040805162461bcd60e51b815260206004820181905260248201527f4552433732313a206d696e7420746f20746865207a65726f2061646472657373604482015290519081900360640190fd5b611ab98161105e565b15611b0b576040805162461bcd60e51b815260206004820152601c60248201527f4552433732313a20746f6b656e20616c7265616479206d696e74656400000000604482015290519081900360640190fd5b611b176000838361079d565b6001600160a01b0382166000908152600260205260409020611b3f908263ffffffff6114f916565b50611b526003828463ffffffff61150516565b5060405181906001600160a01b038416906000907fddf252ad1be2c89b69c2b068fc378daa952ba7f163c4a11628f55a4df523b3ef908290a45050565b3b151590565b60606113a6848460008585611ba985611b8f565b611bfa576040805162461bcd60e51b815260206004820152601d60248201527f416464726573733a2063616c6c20746f206e6f6e2d636f6e7472616374000000604482015290519081900360640190fd5b60006060866001600160a01b031685876040518082805190602001908083835b60208310611c395780518252601f199092019160209182019101611c1a565b6001836020036101000a03801982511681845116808217855250505050505090500191505060006040518083038185875af1925050503d8060008114611c9b576040519150601f19603f3d011682016040523d82523d6000602084013e611ca0565b606091505b5091509150611cb0828286611cbb565b979650505050505050565b60608315611cca5750816113a9565b825115611cda5782518084602001fd5b60405162461bcd60e51b81526020600482018181528451602484015284518593919283926044019190850190808383600083156116ac578181015183820152602001611694565b828054600181600116156101000203166002900490600052602060002090601f016020900481019282601f10611d6257805160ff1916838001178555611d8f565b82800160010185558215611d8f579182015b82811115611d8f578251825591602001919060010190611d74565b50611d9b929150611d9f565b5090565b61066291905b80821115611d9b5760008155600101611da556fe456e756d657261626c655365743a20696e646578206f7574206f6620626f756e64734552433732313a207472616e7366657220746f206e6f6e20455243373231526563656976657220696d706c656d656e7465724f776e61626c653a206e6577206f776e657220697320746865207a65726f20616464726573734552433732313a207472616e7366657220746f20746865207a65726f20616464726573734552433732313a206f70657261746f7220717565727920666f72206e6f6e6578697374656e7420746f6b656e4552433732313a20617070726f76652063616c6c6572206973206e6f74206f776e6572206e6f7220617070726f76656420666f7220616c6c4552433732313a2062616c616e636520717565727920666f7220746865207a65726f20616464726573734552433732313a206f776e657220717565727920666f72206e6f6e6578697374656e7420746f6b656e456e756d657261626c654d61703a20696e646578206f7574206f6620626f756e64734552433732313a20617070726f76656420717565727920666f72206e6f6e6578697374656e7420746f6b656e4552433732314d657461646174613a2055524920736574206f66206e6f6e6578697374656e7420746f6b656e4552433732313a207472616e73666572206f6620746f6b656e2074686174206973206e6f74206f776e4552433732314d657461646174613a2055524920717565727920666f72206e6f6e6578697374656e7420746f6b656e4552433732313a20617070726f76616c20746f2063757272656e74206f776e65724552433732313a207472616e736665722063616c6c6572206973206e6f74206f776e6572206e6f7220617070726f766564a264697066735822122034294bedf44e808aae89805e2ee4adca1263689cba059c98f3e88884b2c6cdea64736f6c63430006060033",
  "immutableReferences": {},
  "source": "pragma solidity ^0.6.6;\n\nimport \"@openzeppelin/contracts/access/Ownable.sol\";\nimport \"@openzeppelin/contracts/token/ERC721/ERC721.sol\";\n\ncontract Fake721 is Ownable,  ERC721{\n    uint256 public idTracker;\n\n\n    /**\n    @notice the constructor function is fired only once during contract deployment\n    @dev assuming all NFT URI metadata is based on a URL he baseURI would be something like https://\n    **/\n    constructor() public ERC721(\"Fake ERC721\", \"F721\") {\n        idTracker = 0;\n    }\n\n    /**\n    @notice mintNewNFT allows the owner of this contract to mint an input address a newNFT\n    @param _tokenURI is the input metadata for the token being created\n    **/\n    function mintNewNFT(\n        string memory _tokenURI\n    ) public onlyOwner {\n      idTracker++;\n        _safeMint(msg.sender, idTracker);\n        _setTokenURI(idTracker, _tokenURI);\n    }\n\n}\n",
  "sourcePath": "/home/stan36/repos/zer0/zAuction/contracts/fakeTokens/Fake721.sol",
  "compiler": {
    "name": "solc",
    "version": "0.6.6+commit.6c089d02.Emscripten.clang"
  },
  "schemaVersion": "3.3.2",
  "updatedAt": "2021-02-26T23:22:10.028Z",
  "devdoc": {
    "methods": {
      "approve(address,uint256)": {
        "details": "See {IERC721-approve}."
      },
      "balanceOf(address)": {
        "details": "See {IERC721-balanceOf}."
      },
      "baseURI()": {
        "details": "Returns the base URI set via {_setBaseURI}. This will be automatically added as a prefix in {tokenURI} to each token's URI, or to the token ID if no specific URI is set for that token ID."
      },
      "constructor": {
        "details": "assuming all NFT URI metadata is based on a URL he baseURI would be something like https://*"
      },
      "getApproved(uint256)": {
        "details": "See {IERC721-getApproved}."
      },
      "isApprovedForAll(address,address)": {
        "details": "See {IERC721-isApprovedForAll}."
      },
      "mintNewNFT(string)": {
        "params": {
          "_tokenURI": "is the input metadata for the token being created*"
        }
      },
      "name()": {
        "details": "See {IERC721Metadata-name}."
      },
      "owner()": {
        "details": "Returns the address of the current owner."
      },
      "ownerOf(uint256)": {
        "details": "See {IERC721-ownerOf}."
      },
      "renounceOwnership()": {
        "details": "Leaves the contract without owner. It will not be possible to call `onlyOwner` functions anymore. Can only be called by the current owner.     * NOTE: Renouncing ownership will leave the contract without an owner, thereby removing any functionality that is only available to the owner."
      },
      "safeTransferFrom(address,address,uint256)": {
        "details": "See {IERC721-safeTransferFrom}."
      },
      "safeTransferFrom(address,address,uint256,bytes)": {
        "details": "See {IERC721-safeTransferFrom}."
      },
      "setApprovalForAll(address,bool)": {
        "details": "See {IERC721-setApprovalForAll}."
      },
      "supportsInterface(bytes4)": {
        "details": "See {IERC165-supportsInterface}.     * Time complexity O(1), guaranteed to always use less than 30 000 gas."
      },
      "symbol()": {
        "details": "See {IERC721Metadata-symbol}."
      },
      "tokenByIndex(uint256)": {
        "details": "See {IERC721Enumerable-tokenByIndex}."
      },
      "tokenOfOwnerByIndex(address,uint256)": {
        "details": "See {IERC721Enumerable-tokenOfOwnerByIndex}."
      },
      "tokenURI(uint256)": {
        "details": "See {IERC721Metadata-tokenURI}."
      },
      "totalSupply()": {
        "details": "See {IERC721Enumerable-totalSupply}."
      },
      "transferFrom(address,address,uint256)": {
        "details": "See {IERC721-transferFrom}."
      },
      "transferOwnership(address)": {
        "details": "Transfers ownership of the contract to a new account (`newOwner`). Can only be called by the current owner."
      }
    }
  },
  "userdoc": {
    "methods": {
      "constructor": "the constructor function is fired only once during contract deployment",
      "mintNewNFT(string)": {
        "notice": "mintNewNFT allows the owner of this contract to mint an input address a newNFT"
      }
    }
  }
}