{
  "contractName": "FakeZNS",
  "abi": [
    {
      "inputs": [],
      "stateMutability": "nonpayable",
      "type": "constructor"
    },
    {
      "anonymous": false,
      "inputs": [
        {
          "indexed": true,
          "internalType": "address",
          "name": "owner",
          "type": "address"
        },
        {
          "indexed": true,
          "internalType": "address",
          "name": "approved",
          "type": "address"
        },
        {
          "indexed": true,
          "internalType": "uint256",
          "name": "tokenId",
          "type": "uint256"
        }
      ],
      "name": "Approval",
      "type": "event"
    },
    {
      "anonymous": false,
      "inputs": [
        {
          "indexed": true,
          "internalType": "address",
          "name": "owner",
          "type": "address"
        },
        {
          "indexed": true,
          "internalType": "address",
          "name": "operator",
          "type": "address"
        },
        {
          "indexed": false,
          "internalType": "bool",
          "name": "approved",
          "type": "bool"
        }
      ],
      "name": "ApprovalForAll",
      "type": "event"
    },
    {
      "anonymous": false,
      "inputs": [
        {
          "indexed": true,
          "internalType": "address",
          "name": "previousOwner",
          "type": "address"
        },
        {
          "indexed": true,
          "internalType": "address",
          "name": "newOwner",
          "type": "address"
        }
      ],
      "name": "OwnershipTransferred",
      "type": "event"
    },
    {
      "anonymous": false,
      "inputs": [
        {
          "indexed": true,
          "internalType": "address",
          "name": "from",
          "type": "address"
        },
        {
          "indexed": true,
          "internalType": "address",
          "name": "to",
          "type": "address"
        },
        {
          "indexed": true,
          "internalType": "uint256",
          "name": "tokenId",
          "type": "uint256"
        }
      ],
      "name": "Transfer",
      "type": "event"
    },
    {
      "inputs": [
        {
          "internalType": "address",
          "name": "to",
          "type": "address"
        },
        {
          "internalType": "uint256",
          "name": "tokenId",
          "type": "uint256"
        }
      ],
      "name": "approve",
      "outputs": [],
      "stateMutability": "nonpayable",
      "type": "function"
    },
    {
      "inputs": [
        {
          "internalType": "address",
          "name": "owner",
          "type": "address"
        }
      ],
      "name": "balanceOf",
      "outputs": [
        {
          "internalType": "uint256",
          "name": "",
          "type": "uint256"
        }
      ],
      "stateMutability": "view",
      "type": "function"
    },
    {
      "inputs": [],
      "name": "baseURI",
      "outputs": [
        {
          "internalType": "string",
          "name": "",
          "type": "string"
        }
      ],
      "stateMutability": "view",
      "type": "function"
    },
    {
      "inputs": [],
      "name": "creator",
      "outputs": [
        {
          "internalType": "address",
          "name": "",
          "type": "address"
        }
      ],
      "stateMutability": "view",
      "type": "function"
    },
    {
      "inputs": [
        {
          "internalType": "uint256",
          "name": "tokenId",
          "type": "uint256"
        }
      ],
      "name": "getApproved",
      "outputs": [
        {
          "internalType": "address",
          "name": "",
          "type": "address"
        }
      ],
      "stateMutability": "view",
      "type": "function"
    },
    {
      "inputs": [],
      "name": "idTracker",
      "outputs": [
        {
          "internalType": "uint256",
          "name": "",
          "type": "uint256"
        }
      ],
      "stateMutability": "view",
      "type": "function"
    },
    {
      "inputs": [
        {
          "internalType": "address",
          "name": "owner",
          "type": "address"
        },
        {
          "internalType": "address",
          "name": "operator",
          "type": "address"
        }
      ],
      "name": "isApprovedForAll",
      "outputs": [
        {
          "internalType": "bool",
          "name": "",
          "type": "bool"
        }
      ],
      "stateMutability": "view",
      "type": "function"
    },
    {
      "inputs": [],
      "name": "name",
      "outputs": [
        {
          "internalType": "string",
          "name": "",
          "type": "string"
        }
      ],
      "stateMutability": "view",
      "type": "function"
    },
    {
      "inputs": [],
      "name": "owner",
      "outputs": [
        {
          "internalType": "address",
          "name": "",
          "type": "address"
        }
      ],
      "stateMutability": "view",
      "type": "function"
    },
    {
      "inputs": [
        {
          "internalType": "uint256",
          "name": "tokenId",
          "type": "uint256"
        }
      ],
      "name": "ownerOf",
      "outputs": [
        {
          "internalType": "address",
          "name": "",
          "type": "address"
        }
      ],
      "stateMutability": "view",
      "type": "function"
    },
    {
      "inputs": [],
      "name": "renounceOwnership",
      "outputs": [],
      "stateMutability": "nonpayable",
      "type": "function"
    },
    {
      "inputs": [
        {
          "internalType": "address",
          "name": "from",
          "type": "address"
        },
        {
          "internalType": "address",
          "name": "to",
          "type": "address"
        },
        {
          "internalType": "uint256",
          "name": "tokenId",
          "type": "uint256"
        }
      ],
      "name": "safeTransferFrom",
      "outputs": [],
      "stateMutability": "nonpayable",
      "type": "function"
    },
    {
      "inputs": [
        {
          "internalType": "address",
          "name": "from",
          "type": "address"
        },
        {
          "internalType": "address",
          "name": "to",
          "type": "address"
        },
        {
          "internalType": "uint256",
          "name": "tokenId",
          "type": "uint256"
        },
        {
          "internalType": "bytes",
          "name": "_data",
          "type": "bytes"
        }
      ],
      "name": "safeTransferFrom",
      "outputs": [],
      "stateMutability": "nonpayable",
      "type": "function"
    },
    {
      "inputs": [
        {
          "internalType": "address",
          "name": "operator",
          "type": "address"
        },
        {
          "internalType": "bool",
          "name": "approved",
          "type": "bool"
        }
      ],
      "name": "setApprovalForAll",
      "outputs": [],
      "stateMutability": "nonpayable",
      "type": "function"
    },
    {
      "inputs": [
        {
          "internalType": "bytes4",
          "name": "interfaceId",
          "type": "bytes4"
        }
      ],
      "name": "supportsInterface",
      "outputs": [
        {
          "internalType": "bool",
          "name": "",
          "type": "bool"
        }
      ],
      "stateMutability": "view",
      "type": "function"
    },
    {
      "inputs": [],
      "name": "symbol",
      "outputs": [
        {
          "internalType": "string",
          "name": "",
          "type": "string"
        }
      ],
      "stateMutability": "view",
      "type": "function"
    },
    {
      "inputs": [
        {
          "internalType": "uint256",
          "name": "index",
          "type": "uint256"
        }
      ],
      "name": "tokenByIndex",
      "outputs": [
        {
          "internalType": "uint256",
          "name": "",
          "type": "uint256"
        }
      ],
      "stateMutability": "view",
      "type": "function"
    },
    {
      "inputs": [
        {
          "internalType": "address",
          "name": "owner",
          "type": "address"
        },
        {
          "internalType": "uint256",
          "name": "index",
          "type": "uint256"
        }
      ],
      "name": "tokenOfOwnerByIndex",
      "outputs": [
        {
          "internalType": "uint256",
          "name": "",
          "type": "uint256"
        }
      ],
      "stateMutability": "view",
      "type": "function"
    },
    {
      "inputs": [
        {
          "internalType": "uint256",
          "name": "tokenId",
          "type": "uint256"
        }
      ],
      "name": "tokenURI",
      "outputs": [
        {
          "internalType": "string",
          "name": "",
          "type": "string"
        }
      ],
      "stateMutability": "view",
      "type": "function"
    },
    {
      "inputs": [],
      "name": "totalSupply",
      "outputs": [
        {
          "internalType": "uint256",
          "name": "",
          "type": "uint256"
        }
      ],
      "stateMutability": "view",
      "type": "function"
    },
    {
      "inputs": [
        {
          "internalType": "address",
          "name": "from",
          "type": "address"
        },
        {
          "internalType": "address",
          "name": "to",
          "type": "address"
        },
        {
          "internalType": "uint256",
          "name": "tokenId",
          "type": "uint256"
        }
      ],
      "name": "transferFrom",
      "outputs": [],
      "stateMutability": "nonpayable",
      "type": "function"
    },
    {
      "inputs": [
        {
          "internalType": "address",
          "name": "newOwner",
          "type": "address"
        }
      ],
      "name": "transferOwnership",
      "outputs": [],
      "stateMutability": "nonpayable",
      "type": "function"
    },
    {
      "inputs": [
        {
          "internalType": "string",
          "name": "_tokenURI",
          "type": "string"
        }
      ],
      "name": "mintNewNFT",
      "outputs": [],
      "stateMutability": "nonpayable",
      "type": "function"
    },
    {
      "inputs": [
        {
          "internalType": "uint256",
          "name": "id",
          "type": "uint256"
        }
      ],
      "name": "creatorOf",
      "outputs": [
        {
          "internalType": "address",
          "name": "",
          "type": "address"
        }
      ],
      "stateMutability": "view",
      "type": "function"
    }
  ],
  "bytecode": "0x60806040523480156200001157600080fd5b506040518060400160405280600881526020016746616b65205a4e5360c01b815250604051806040016040528060038152602001625a4e5360e81b8152506000620000616200016260201b60201c565b600080546001600160a01b0319166001600160a01b0383169081178255604051929350917f8be0079c531659141344cd1fd0a4f28419497f9722a3daafe3b4186f6b6457e0908290a350620000c66301ffc9a760e01b6001600160e01b036200016716565b8151620000db906007906020850190620001ef565b508051620000f1906008906020840190620001ef565b506200010d6380ac58cd60e01b6001600160e01b036200016716565b62000128635b5e139f60e01b6001600160e01b036200016716565b6200014363780e9d6360e01b6001600160e01b036200016716565b50506000600b55600c80546001600160a01b0319163317905562000291565b335b90565b6001600160e01b03198082161415620001c7576040805162461bcd60e51b815260206004820152601c60248201527f4552433136353a20696e76616c696420696e7465726661636520696400000000604482015290519081900360640190fd5b6001600160e01b0319166000908152600160208190526040909120805460ff19169091179055565b828054600181600116156101000203166002900490600052602060002090601f016020900481019282601f106200023257805160ff191683800117855562000262565b8280016001018555821562000262579182015b828111156200026257825182559160200191906001019062000245565b506200027092915062000274565b5090565b6200016491905b808211156200027057600081556001016200027b565b6120c280620002a16000396000f3fe608060405234801561001057600080fd5b50600436106101585760003560e01c8063589a1743116100c357806395d89b411161007c57806395d89b4114610479578063a22cb46514610481578063b88d4fde146104af578063c87b56dd14610575578063e985e9c514610592578063f2fde38b146105c057610158565b8063589a1743146104015780636352211e1461041e5780636c0360eb1461043b57806370a0823114610443578063715018a6146104695780638da5cb5b1461047157610158565b80631b7fe6b6116101155780631b7fe6b61461029e57806323b872dd146102a65780632f745c59146102dc5780633157631f1461030857806342842e0e146103ae5780634f6ccce7146103e457610158565b806301ffc9a71461015d57806302d05d3f1461019857806306fdde03146101bc578063081812fc14610239578063095ea7b31461025657806318160ddd14610284575b600080fd5b6101846004803603602081101561017357600080fd5b50356001600160e01b0319166105e6565b604080519115158252519081900360200190f35b6101a0610609565b604080516001600160a01b039092168252519081900360200190f35b6101c4610618565b6040805160208082528351818301528351919283929083019185019080838360005b838110156101fe5781810151838201526020016101e6565b50505050905090810190601f16801561022b5780820380516001836020036101000a031916815260200191505b509250505060405180910390f35b6101a06004803603602081101561024f57600080fd5b50356106af565b6102826004803603604081101561026c57600080fd5b506001600160a01b038135169060200135610711565b005b61028c6107ec565b60408051918252519081900360200190f35b61028c6107fd565b610282600480360360608110156102bc57600080fd5b506001600160a01b03813581169160208101359091169060400135610803565b61028c600480360360408110156102f257600080fd5b506001600160a01b03813516906020013561085a565b6102826004803603602081101561031e57600080fd5b81019060208101813564010000000081111561033957600080fd5b82018360208201111561034b57600080fd5b8035906020019184600183028401116401000000008311171561036d57600080fd5b91908080601f01602080910402602001604051908101604052809392919081815260200183838082843760009201919091525092955061088b945050505050565b610282600480360360608110156103c457600080fd5b506001600160a01b03813581169160208101359091169060400135610924565b61028c600480360360208110156103fa57600080fd5b503561093f565b6101a06004803603602081101561041757600080fd5b503561095b565b6101a06004803603602081101561043457600080fd5b503561096b565b6101c4610999565b61028c6004803603602081101561045957600080fd5b50356001600160a01b03166109fa565b610282610a62565b6101a0610b20565b6101c4610b2f565b6102826004803603604081101561049757600080fd5b506001600160a01b0381351690602001351515610b90565b610282600480360360808110156104c557600080fd5b6001600160a01b0382358116926020810135909116916040820135919081019060808101606082013564010000000081111561050057600080fd5b82018360208201111561051257600080fd5b8035906020019184600183028401116401000000008311171561053457600080fd5b91908080601f016020809104026020016040519081016040528093929190818152602001838380828437600092019190915250929550610c95945050505050565b6101c46004803603602081101561058b57600080fd5b5035610cf3565b610184600480360360408110156105a857600080fd5b506001600160a01b0381358116916020013516610f76565b610282600480360360208110156105d657600080fd5b50356001600160a01b0316610fa4565b6001600160e01b0319811660009081526001602052604090205460ff165b919050565b600c546001600160a01b031681565b60078054604080516020601f60026000196101006001881615020190951694909404938401819004810282018101909252828152606093909290918301828280156106a45780601f10610679576101008083540402835291602001916106a4565b820191906000526020600020905b81548152906001019060200180831161068757829003601f168201915b505050505090505b90565b60006106ba826110b8565b6106f55760405162461bcd60e51b815260040180806020018281038252602c815260200180611f8b602c913960400191505060405180910390fd5b506000908152600560205260409020546001600160a01b031690565b600061071c8261096b565b9050806001600160a01b0316836001600160a01b0316141561076f5760405162461bcd60e51b815260040180806020018281038252602181526020018061203b6021913960400191505060405180910390fd5b806001600160a01b03166107816110cb565b6001600160a01b031614806107a257506107a28161079d6110cb565b610f76565b6107dd5760405162461bcd60e51b8152600401808060200182810382526038815260200180611ede6038913960400191505060405180910390fd5b6107e783836110cf565b505050565b60006107f8600361113d565b905090565b600b5481565b61081461080e6110cb565b82611148565b61084f5760405162461bcd60e51b815260040180806020018281038252603181526020018061205c6031913960400191505060405180910390fd5b6107e78383836111ec565b6001600160a01b0382166000908152600260205260408120610882908363ffffffff61134a16565b90505b92915050565b6108936110cb565b6001600160a01b03166108a4610b20565b6001600160a01b0316146108ff576040805162461bcd60e51b815260206004820181905260248201527f4f776e61626c653a2063616c6c6572206973206e6f7420746865206f776e6572604482015290519081900360640190fd5b600b805460010190819055610915903390611356565b610921600b5482611374565b50565b6107e783838360405180602001604052806000815250610c95565b60008061095360038463ffffffff6113d716565b509392505050565b50600c546001600160a01b031690565b600061088582604051806060016040528060298152602001611f40602991396003919063ffffffff6113f316565b600a8054604080516020601f60026000196101006001881615020190951694909404938401819004810282018101909252828152606093909290918301828280156106a45780601f10610679576101008083540402835291602001916106a4565b60006001600160a01b038216610a415760405162461bcd60e51b815260040180806020018281038252602a815260200180611f16602a913960400191505060405180910390fd5b6001600160a01b03821660009081526002602052604090206108859061113d565b610a6a6110cb565b6001600160a01b0316610a7b610b20565b6001600160a01b031614610ad6576040805162461bcd60e51b815260206004820181905260248201527f4f776e61626c653a2063616c6c6572206973206e6f7420746865206f776e6572604482015290519081900360640190fd5b600080546040516001600160a01b03909116907f8be0079c531659141344cd1fd0a4f28419497f9722a3daafe3b4186f6b6457e0908390a3600080546001600160a01b0319169055565b6000546001600160a01b031690565b60088054604080516020601f60026000196101006001881615020190951694909404938401819004810282018101909252828152606093909290918301828280156106a45780601f10610679576101008083540402835291602001916106a4565b610b986110cb565b6001600160a01b0316826001600160a01b03161415610bfe576040805162461bcd60e51b815260206004820152601960248201527f4552433732313a20617070726f766520746f2063616c6c657200000000000000604482015290519081900360640190fd5b8060066000610c0b6110cb565b6001600160a01b03908116825260208083019390935260409182016000908120918716808252919093529120805460ff191692151592909217909155610c4f6110cb565b60408051841515815290516001600160a01b0392909216917f17307eab39ab6107e8899845ad3d59bd9653f200f220920489ca2b5937696c319181900360200190a35050565b610ca6610ca06110cb565b83611148565b610ce15760405162461bcd60e51b815260040180806020018281038252603181526020018061205c6031913960400191505060405180910390fd5b610ced8484848461140a565b50505050565b6060610cfe826110b8565b610d395760405162461bcd60e51b815260040180806020018281038252602f81526020018061200c602f913960400191505060405180910390fd5b60008281526009602090815260409182902080548351601f6002600019610100600186161502019093169290920491820184900484028101840190945280845260609392830182828015610dce5780601f10610da357610100808354040283529160200191610dce565b820191906000526020600020905b815481529060010190602001808311610db157829003601f168201915b505050505090506060610ddf610999565b9050805160001415610df357509050610604565b815115610eb45780826040516020018083805190602001908083835b60208310610e2e5780518252601f199092019160209182019101610e0f565b51815160209384036101000a600019018019909216911617905285519190930192850191508083835b60208310610e765780518252601f199092019160209182019101610e57565b6001836020036101000a0380198251168184511680821785525050505050509050019250505060405160208183030381529060405292505050610604565b80610ebe8561145c565b6040516020018083805190602001908083835b60208310610ef05780518252601f199092019160209182019101610ed1565b51815160209384036101000a600019018019909216911617905285519190930192850191508083835b60208310610f385780518252601f199092019160209182019101610f19565b6001836020036101000a0380198251168184511680821785525050505050509050019250505060405160208183030381529060405292505050919050565b6001600160a01b03918216600090815260066020908152604080832093909416825291909152205460ff1690565b610fac6110cb565b6001600160a01b0316610fbd610b20565b6001600160a01b031614611018576040805162461bcd60e51b815260206004820181905260248201527f4f776e61626c653a2063616c6c6572206973206e6f7420746865206f776e6572604482015290519081900360640190fd5b6001600160a01b03811661105d5760405162461bcd60e51b8152600401808060200182810382526026815260200180611e686026913960400191505060405180910390fd5b600080546040516001600160a01b03808516939216917f8be0079c531659141344cd1fd0a4f28419497f9722a3daafe3b4186f6b6457e091a3600080546001600160a01b0319166001600160a01b0392909216919091179055565b600061088560038363ffffffff61153716565b3390565b600081815260056020526040902080546001600160a01b0319166001600160a01b03841690811790915581906111048261096b565b6001600160a01b03167f8c5be1e5ebec7d5bd14f71427d1e84f3dd0314c0f7b2291e5b200ac8c7c3b92560405160405180910390a45050565b600061088582611543565b6000611153826110b8565b61118e5760405162461bcd60e51b815260040180806020018281038252602c815260200180611eb2602c913960400191505060405180910390fd5b60006111998361096b565b9050806001600160a01b0316846001600160a01b031614806111d45750836001600160a01b03166111c9846106af565b6001600160a01b0316145b806111e457506111e48185610f76565b949350505050565b826001600160a01b03166111ff8261096b565b6001600160a01b0316146112445760405162461bcd60e51b8152600401808060200182810382526029815260200180611fe36029913960400191505060405180910390fd5b6001600160a01b0382166112895760405162461bcd60e51b8152600401808060200182810382526024815260200180611e8e6024913960400191505060405180910390fd5b6112948383836107e7565b61129f6000826110cf565b6001600160a01b03831660009081526002602052604090206112c7908263ffffffff61154716565b506001600160a01b03821660009081526002602052604090206112f0908263ffffffff61155316565b506113036003828463ffffffff61155f16565b5080826001600160a01b0316846001600160a01b03167fddf252ad1be2c89b69c2b068fc378daa952ba7f163c4a11628f55a4df523b3ef60405160405180910390a4505050565b60006108828383611575565b6113708282604051806020016040528060008152506115d9565b5050565b61137d826110b8565b6113b85760405162461bcd60e51b815260040180806020018281038252602c815260200180611fb7602c913960400191505060405180910390fd5b600082815260096020908152604090912082516107e792840190611d7b565b60008080806113e6868661162b565b9097909650945050505050565b60006114008484846116a6565b90505b9392505050565b6114158484846111ec565b61142184848484611770565b610ced5760405162461bcd60e51b8152600401808060200182810382526032815260200180611e366032913960400191505060405180910390fd5b60608161148157506040805180820190915260018152600360fc1b6020820152610604565b8160005b811561149957600101600a82049150611485565b60608167ffffffffffffffff811180156114b257600080fd5b506040519080825280601f01601f1916602001820160405280156114dd576020820181803683370190505b50859350905060001982015b831561152e57600a840660300160f81b8282806001900393508151811061150c57fe5b60200101906001600160f81b031916908160001a905350600a840493506114e9565b50949350505050565b600061088283836118f0565b5490565b60006108828383611908565b600061088283836119ce565b600061140084846001600160a01b038516611a18565b815460009082106115b75760405162461bcd60e51b8152600401808060200182810382526022815260200180611e146022913960400191505060405180910390fd5b8260000182815481106115c657fe5b9060005260206000200154905092915050565b6115e38383611aaf565b6115f06000848484611770565b6107e75760405162461bcd60e51b8152600401808060200182810382526032815260200180611e366032913960400191505060405180910390fd5b81546000908190831061166f5760405162461bcd60e51b8152600401808060200182810382526022815260200180611f696022913960400191505060405180910390fd5b600084600001848154811061168057fe5b906000526020600020906002020190508060000154816001015492509250509250929050565b600082815260018401602052604081205482816117415760405162461bcd60e51b81526004018080602001828103825283818151815260200191508051906020019080838360005b838110156117065781810151838201526020016116ee565b50505050905090810190601f1680156117335780820380516001836020036101000a031916815260200191505b509250505060405180910390fd5b5084600001600182038154811061175457fe5b9060005260206000209060020201600101549150509392505050565b6000611784846001600160a01b0316611be9565b611790575060016111e4565b60606118b6630a85bd0160e11b6117a56110cb565b88878760405160240180856001600160a01b03166001600160a01b03168152602001846001600160a01b03166001600160a01b0316815260200183815260200180602001828103825283818151815260200191508051906020019080838360005b8381101561181e578181015183820152602001611806565b50505050905090810190601f16801561184b5780820380516001836020036101000a031916815260200191505b5095505050505050604051602081830303815290604052906001600160e01b0319166020820180516001600160e01b038381831617835250505050604051806060016040528060328152602001611e36603291396001600160a01b038816919063ffffffff611bef16565b905060008180602001905160208110156118cf57600080fd5b50516001600160e01b031916630a85bd0160e11b1492505050949350505050565b60009081526001919091016020526040902054151590565b600081815260018301602052604081205480156119c4578354600019808301919081019060009087908390811061193b57fe5b906000526020600020015490508087600001848154811061195857fe5b60009182526020808320909101929092558281526001898101909252604090209084019055865487908061198857fe5b60019003818190600052602060002001600090559055866001016000878152602001908152602001600020600090556001945050505050610885565b6000915050610885565b60006119da83836118f0565b611a1057508154600181810184556000848152602080822090930184905584548482528286019093526040902091909155610885565b506000610885565b600082815260018401602052604081205480611a7d575050604080518082018252838152602080820184815286546001818101895560008981528481209551600290930290950191825591519082015586548684528188019092529290912055611403565b82856000016001830381548110611a9057fe5b9060005260206000209060020201600101819055506000915050611403565b6001600160a01b038216611b0a576040805162461bcd60e51b815260206004820181905260248201527f4552433732313a206d696e7420746f20746865207a65726f2061646472657373604482015290519081900360640190fd5b611b13816110b8565b15611b65576040805162461bcd60e51b815260206004820152601c60248201527f4552433732313a20746f6b656e20616c7265616479206d696e74656400000000604482015290519081900360640190fd5b611b71600083836107e7565b6001600160a01b0382166000908152600260205260409020611b99908263ffffffff61155316565b50611bac6003828463ffffffff61155f16565b5060405181906001600160a01b038416906000907fddf252ad1be2c89b69c2b068fc378daa952ba7f163c4a11628f55a4df523b3ef908290a45050565b3b151590565b6060611400848460008585611c0385611be9565b611c54576040805162461bcd60e51b815260206004820152601d60248201527f416464726573733a2063616c6c20746f206e6f6e2d636f6e7472616374000000604482015290519081900360640190fd5b60006060866001600160a01b031685876040518082805190602001908083835b60208310611c935780518252601f199092019160209182019101611c74565b6001836020036101000a03801982511681845116808217855250505050505090500191505060006040518083038185875af1925050503d8060008114611cf5576040519150601f19603f3d011682016040523d82523d6000602084013e611cfa565b606091505b5091509150611d0a828286611d15565b979650505050505050565b60608315611d24575081611403565b825115611d345782518084602001fd5b60405162461bcd60e51b81526020600482018181528451602484015284518593919283926044019190850190808383600083156117065781810151838201526020016116ee565b828054600181600116156101000203166002900490600052602060002090601f016020900481019282601f10611dbc57805160ff1916838001178555611de9565b82800160010185558215611de9579182015b82811115611de9578251825591602001919060010190611dce565b50611df5929150611df9565b5090565b6106ac91905b80821115611df55760008155600101611dff56fe456e756d657261626c655365743a20696e646578206f7574206f6620626f756e64734552433732313a207472616e7366657220746f206e6f6e20455243373231526563656976657220696d706c656d656e7465724f776e61626c653a206e6577206f776e657220697320746865207a65726f20616464726573734552433732313a207472616e7366657220746f20746865207a65726f20616464726573734552433732313a206f70657261746f7220717565727920666f72206e6f6e6578697374656e7420746f6b656e4552433732313a20617070726f76652063616c6c6572206973206e6f74206f776e6572206e6f7220617070726f76656420666f7220616c6c4552433732313a2062616c616e636520717565727920666f7220746865207a65726f20616464726573734552433732313a206f776e657220717565727920666f72206e6f6e6578697374656e7420746f6b656e456e756d657261626c654d61703a20696e646578206f7574206f6620626f756e64734552433732313a20617070726f76656420717565727920666f72206e6f6e6578697374656e7420746f6b656e4552433732314d657461646174613a2055524920736574206f66206e6f6e6578697374656e7420746f6b656e4552433732313a207472616e73666572206f6620746f6b656e2074686174206973206e6f74206f776e4552433732314d657461646174613a2055524920717565727920666f72206e6f6e6578697374656e7420746f6b656e4552433732313a20617070726f76616c20746f2063757272656e74206f776e65724552433732313a207472616e736665722063616c6c6572206973206e6f74206f776e6572206e6f7220617070726f766564a2646970667358221220f94d7705771cb870f794e072c5c57502824f38e7771d13fd8cafb56a5e28438064736f6c63430006060033",
  "immutableReferences": {},
  "source": "pragma solidity ^0.6.6;\n\nimport \"@openzeppelin/contracts/access/Ownable.sol\";\nimport \"@openzeppelin/contracts/token/ERC721/ERC721.sol\";\n\ncontract FakeZNS is Ownable,  ERC721{\n    uint256 public idTracker;\n    address public creator;\n\n\n    /**\n    @notice the constructor function is fired only once during contract deployment\n    @dev assuming all NFT URI metadata is based on a URL he baseURI would be something like https://\n    **/\n    constructor() public ERC721(\"Fake ZNS\", \"ZNS\") {\n        idTracker = 0;\n        creator = msg.sender;\n    }\n\n    /**\n    @notice mintNewNFT allows the owner of this contract to mint an input address a newNFT\n    @param _tokenURI is the input metadata for the token being created\n    **/\n    function mintNewNFT(\n        string memory _tokenURI\n    ) public onlyOwner {\n      idTracker++;\n        _safeMint(msg.sender, idTracker);\n        _setTokenURI(idTracker, _tokenURI);\n    }\n\n    function creatorOf(uint256 id) public view virtual returns (address){\n      return creator;\n    }\n\n\n}\n",
  "sourcePath": "/home/stan36/repos/zer0/zAuction/contracts/fakeTokens/FakeZNS.sol",
  "compiler": {
    "name": "solc",
    "version": "0.6.6+commit.6c089d02.Emscripten.clang"
  },
  "schemaVersion": "3.3.2",
  "updatedAt": "2021-02-26T23:22:10.031Z",
  "devdoc": {
    "methods": {
      "approve(address,uint256)": {
        "details": "See {IERC721-approve}."
      },
      "balanceOf(address)": {
        "details": "See {IERC721-balanceOf}."
      },
      "baseURI()": {
        "details": "Returns the base URI set via {_setBaseURI}. This will be automatically added as a prefix in {tokenURI} to each token's URI, or to the token ID if no specific URI is set for that token ID."
      },
      "constructor": {
        "details": "assuming all NFT URI metadata is based on a URL he baseURI would be something like https://*"
      },
      "getApproved(uint256)": {
        "details": "See {IERC721-getApproved}."
      },
      "isApprovedForAll(address,address)": {
        "details": "See {IERC721-isApprovedForAll}."
      },
      "mintNewNFT(string)": {
        "params": {
          "_tokenURI": "is the input metadata for the token being created*"
        }
      },
      "name()": {
        "details": "See {IERC721Metadata-name}."
      },
      "owner()": {
        "details": "Returns the address of the current owner."
      },
      "ownerOf(uint256)": {
        "details": "See {IERC721-ownerOf}."
      },
      "renounceOwnership()": {
        "details": "Leaves the contract without owner. It will not be possible to call `onlyOwner` functions anymore. Can only be called by the current owner.     * NOTE: Renouncing ownership will leave the contract without an owner, thereby removing any functionality that is only available to the owner."
      },
      "safeTransferFrom(address,address,uint256)": {
        "details": "See {IERC721-safeTransferFrom}."
      },
      "safeTransferFrom(address,address,uint256,bytes)": {
        "details": "See {IERC721-safeTransferFrom}."
      },
      "setApprovalForAll(address,bool)": {
        "details": "See {IERC721-setApprovalForAll}."
      },
      "supportsInterface(bytes4)": {
        "details": "See {IERC165-supportsInterface}.     * Time complexity O(1), guaranteed to always use less than 30 000 gas."
      },
      "symbol()": {
        "details": "See {IERC721Metadata-symbol}."
      },
      "tokenByIndex(uint256)": {
        "details": "See {IERC721Enumerable-tokenByIndex}."
      },
      "tokenOfOwnerByIndex(address,uint256)": {
        "details": "See {IERC721Enumerable-tokenOfOwnerByIndex}."
      },
      "tokenURI(uint256)": {
        "details": "See {IERC721Metadata-tokenURI}."
      },
      "totalSupply()": {
        "details": "See {IERC721Enumerable-totalSupply}."
      },
      "transferFrom(address,address,uint256)": {
        "details": "See {IERC721-transferFrom}."
      },
      "transferOwnership(address)": {
        "details": "Transfers ownership of the contract to a new account (`newOwner`). Can only be called by the current owner."
      }
    }
  },
  "userdoc": {
    "methods": {
      "constructor": "the constructor function is fired only once during contract deployment",
      "mintNewNFT(string)": {
        "notice": "mintNewNFT allows the owner of this contract to mint an input address a newNFT"
      }
    }
  }
}