{
  "contractName": "FakeZNS",
  "abi": [
    {
      "inputs": [],
      "stateMutability": "nonpayable",
      "type": "constructor"
    },
    {
      "anonymous": false,
      "inputs": [
        {
          "indexed": true,
          "internalType": "address",
          "name": "owner",
          "type": "address"
        },
        {
          "indexed": true,
          "internalType": "address",
          "name": "approved",
          "type": "address"
        },
        {
          "indexed": true,
          "internalType": "uint256",
          "name": "tokenId",
          "type": "uint256"
        }
      ],
      "name": "Approval",
      "type": "event"
    },
    {
      "anonymous": false,
      "inputs": [
        {
          "indexed": true,
          "internalType": "address",
          "name": "owner",
          "type": "address"
        },
        {
          "indexed": true,
          "internalType": "address",
          "name": "operator",
          "type": "address"
        },
        {
          "indexed": false,
          "internalType": "bool",
          "name": "approved",
          "type": "bool"
        }
      ],
      "name": "ApprovalForAll",
      "type": "event"
    },
    {
      "anonymous": false,
      "inputs": [
        {
          "indexed": true,
          "internalType": "address",
          "name": "previousOwner",
          "type": "address"
        },
        {
          "indexed": true,
          "internalType": "address",
          "name": "newOwner",
          "type": "address"
        }
      ],
      "name": "OwnershipTransferred",
      "type": "event"
    },
    {
      "anonymous": false,
      "inputs": [
        {
          "indexed": true,
          "internalType": "address",
          "name": "from",
          "type": "address"
        },
        {
          "indexed": true,
          "internalType": "address",
          "name": "to",
          "type": "address"
        },
        {
          "indexed": true,
          "internalType": "uint256",
          "name": "tokenId",
          "type": "uint256"
        }
      ],
      "name": "Transfer",
      "type": "event"
    },
    {
      "inputs": [
        {
          "internalType": "address",
          "name": "to",
          "type": "address"
        },
        {
          "internalType": "uint256",
          "name": "tokenId",
          "type": "uint256"
        }
      ],
      "name": "approve",
      "outputs": [],
      "stateMutability": "nonpayable",
      "type": "function"
    },
    {
      "inputs": [
        {
          "internalType": "address",
          "name": "owner",
          "type": "address"
        }
      ],
      "name": "balanceOf",
      "outputs": [
        {
          "internalType": "uint256",
          "name": "",
          "type": "uint256"
        }
      ],
      "stateMutability": "view",
      "type": "function",
      "constant": true
    },
    {
      "inputs": [],
      "name": "baseURI",
      "outputs": [
        {
          "internalType": "string",
          "name": "",
          "type": "string"
        }
      ],
      "stateMutability": "view",
      "type": "function",
      "constant": true
    },
    {
      "inputs": [],
      "name": "creator",
      "outputs": [
        {
          "internalType": "address",
          "name": "",
          "type": "address"
        }
      ],
      "stateMutability": "view",
      "type": "function",
      "constant": true
    },
    {
      "inputs": [
        {
          "internalType": "uint256",
          "name": "tokenId",
          "type": "uint256"
        }
      ],
      "name": "getApproved",
      "outputs": [
        {
          "internalType": "address",
          "name": "",
          "type": "address"
        }
      ],
      "stateMutability": "view",
      "type": "function",
      "constant": true
    },
    {
      "inputs": [],
      "name": "idTracker",
      "outputs": [
        {
          "internalType": "uint256",
          "name": "",
          "type": "uint256"
        }
      ],
      "stateMutability": "view",
      "type": "function",
      "constant": true
    },
    {
      "inputs": [
        {
          "internalType": "address",
          "name": "owner",
          "type": "address"
        },
        {
          "internalType": "address",
          "name": "operator",
          "type": "address"
        }
      ],
      "name": "isApprovedForAll",
      "outputs": [
        {
          "internalType": "bool",
          "name": "",
          "type": "bool"
        }
      ],
      "stateMutability": "view",
      "type": "function",
      "constant": true
    },
    {
      "inputs": [],
      "name": "name",
      "outputs": [
        {
          "internalType": "string",
          "name": "",
          "type": "string"
        }
      ],
      "stateMutability": "view",
      "type": "function",
      "constant": true
    },
    {
      "inputs": [],
      "name": "owner",
      "outputs": [
        {
          "internalType": "address",
          "name": "",
          "type": "address"
        }
      ],
      "stateMutability": "view",
      "type": "function",
      "constant": true
    },
    {
      "inputs": [
        {
          "internalType": "uint256",
          "name": "tokenId",
          "type": "uint256"
        }
      ],
      "name": "ownerOf",
      "outputs": [
        {
          "internalType": "address",
          "name": "",
          "type": "address"
        }
      ],
      "stateMutability": "view",
      "type": "function",
      "constant": true
    },
    {
      "inputs": [],
      "name": "renounceOwnership",
      "outputs": [],
      "stateMutability": "nonpayable",
      "type": "function"
    },
    {
      "inputs": [
        {
          "internalType": "address",
          "name": "from",
          "type": "address"
        },
        {
          "internalType": "address",
          "name": "to",
          "type": "address"
        },
        {
          "internalType": "uint256",
          "name": "tokenId",
          "type": "uint256"
        }
      ],
      "name": "safeTransferFrom",
      "outputs": [],
      "stateMutability": "nonpayable",
      "type": "function"
    },
    {
      "inputs": [
        {
          "internalType": "address",
          "name": "from",
          "type": "address"
        },
        {
          "internalType": "address",
          "name": "to",
          "type": "address"
        },
        {
          "internalType": "uint256",
          "name": "tokenId",
          "type": "uint256"
        },
        {
          "internalType": "bytes",
          "name": "_data",
          "type": "bytes"
        }
      ],
      "name": "safeTransferFrom",
      "outputs": [],
      "stateMutability": "nonpayable",
      "type": "function"
    },
    {
      "inputs": [
        {
          "internalType": "address",
          "name": "operator",
          "type": "address"
        },
        {
          "internalType": "bool",
          "name": "approved",
          "type": "bool"
        }
      ],
      "name": "setApprovalForAll",
      "outputs": [],
      "stateMutability": "nonpayable",
      "type": "function"
    },
    {
      "inputs": [
        {
          "internalType": "bytes4",
          "name": "interfaceId",
          "type": "bytes4"
        }
      ],
      "name": "supportsInterface",
      "outputs": [
        {
          "internalType": "bool",
          "name": "",
          "type": "bool"
        }
      ],
      "stateMutability": "view",
      "type": "function",
      "constant": true
    },
    {
      "inputs": [],
      "name": "symbol",
      "outputs": [
        {
          "internalType": "string",
          "name": "",
          "type": "string"
        }
      ],
      "stateMutability": "view",
      "type": "function",
      "constant": true
    },
    {
      "inputs": [
        {
          "internalType": "uint256",
          "name": "index",
          "type": "uint256"
        }
      ],
      "name": "tokenByIndex",
      "outputs": [
        {
          "internalType": "uint256",
          "name": "",
          "type": "uint256"
        }
      ],
      "stateMutability": "view",
      "type": "function",
      "constant": true
    },
    {
      "inputs": [
        {
          "internalType": "address",
          "name": "owner",
          "type": "address"
        },
        {
          "internalType": "uint256",
          "name": "index",
          "type": "uint256"
        }
      ],
      "name": "tokenOfOwnerByIndex",
      "outputs": [
        {
          "internalType": "uint256",
          "name": "",
          "type": "uint256"
        }
      ],
      "stateMutability": "view",
      "type": "function",
      "constant": true
    },
    {
      "inputs": [
        {
          "internalType": "uint256",
          "name": "",
          "type": "uint256"
        }
      ],
      "name": "tokenType",
      "outputs": [
        {
          "internalType": "uint256",
          "name": "",
          "type": "uint256"
        }
      ],
      "stateMutability": "view",
      "type": "function",
      "constant": true
    },
    {
      "inputs": [
        {
          "internalType": "uint256",
          "name": "tokenId",
          "type": "uint256"
        }
      ],
      "name": "tokenURI",
      "outputs": [
        {
          "internalType": "string",
          "name": "",
          "type": "string"
        }
      ],
      "stateMutability": "view",
      "type": "function",
      "constant": true
    },
    {
      "inputs": [],
      "name": "totalSupply",
      "outputs": [
        {
          "internalType": "uint256",
          "name": "",
          "type": "uint256"
        }
      ],
      "stateMutability": "view",
      "type": "function",
      "constant": true
    },
    {
      "inputs": [
        {
          "internalType": "address",
          "name": "from",
          "type": "address"
        },
        {
          "internalType": "address",
          "name": "to",
          "type": "address"
        },
        {
          "internalType": "uint256",
          "name": "tokenId",
          "type": "uint256"
        }
      ],
      "name": "transferFrom",
      "outputs": [],
      "stateMutability": "nonpayable",
      "type": "function"
    },
    {
      "inputs": [
        {
          "internalType": "address",
          "name": "newOwner",
          "type": "address"
        }
      ],
      "name": "transferOwnership",
      "outputs": [],
      "stateMutability": "nonpayable",
      "type": "function"
    },
    {
      "inputs": [
        {
          "internalType": "string",
          "name": "_tokenURI",
          "type": "string"
        }
      ],
      "name": "mintNewNFT",
      "outputs": [],
      "stateMutability": "nonpayable",
      "type": "function"
    },
    {
      "inputs": [
        {
          "internalType": "uint256",
          "name": "id",
          "type": "uint256"
        }
      ],
      "name": "creatorOf",
      "outputs": [
        {
          "internalType": "address",
          "name": "",
          "type": "address"
        }
      ],
      "stateMutability": "view",
      "type": "function",
      "constant": true
    }
  ],
  "bytecode": "0x60806040523480156200001157600080fd5b506040518060400160405280600881526020016746616b65205a4e5360c01b815250604051806040016040528060038152602001625a4e5360e81b8152506000620000616200016260201b60201c565b600080546001600160a01b0319166001600160a01b0383169081178255604051929350917f8be0079c531659141344cd1fd0a4f28419497f9722a3daafe3b4186f6b6457e0908290a350620000c66301ffc9a760e01b6001600160e01b036200016716565b8151620000db906007906020850190620001ef565b508051620000f1906008906020840190620001ef565b506200010d6380ac58cd60e01b6001600160e01b036200016716565b62000128635b5e139f60e01b6001600160e01b036200016716565b6200014363780e9d6360e01b6001600160e01b036200016716565b50506000600b55600c80546001600160a01b0319163317905562000291565b335b90565b6001600160e01b03198082161415620001c7576040805162461bcd60e51b815260206004820152601c60248201527f4552433136353a20696e76616c696420696e7465726661636520696400000000604482015290519081900360640190fd5b6001600160e01b0319166000908152600160208190526040909120805460ff19169091179055565b828054600181600116156101000203166002900490600052602060002090601f016020900481019282601f106200023257805160ff191683800117855562000262565b8280016001018555821562000262579182015b828111156200026257825182559160200191906001019062000245565b506200027092915062000274565b5090565b6200016491905b808211156200027057600081556001016200027b565b61210b80620002a16000396000f3fe608060405234801561001057600080fd5b50600436106101735760003560e01c8063589a1743116100de57806395d89b4111610097578063c87b56dd11610071578063c87b56dd14610590578063e6c3b1f6146105ad578063e985e9c5146105ca578063f2fde38b146105f857610173565b806395d89b4114610494578063a22cb4651461049c578063b88d4fde146104ca57610173565b8063589a17431461041c5780636352211e146104395780636c0360eb1461045657806370a082311461045e578063715018a6146104845780638da5cb5b1461048c57610173565b80631b7fe6b6116101305780631b7fe6b6146102b957806323b872dd146102c15780632f745c59146102f75780633157631f1461032357806342842e0e146103c95780634f6ccce7146103ff57610173565b806301ffc9a71461017857806302d05d3f146101b357806306fdde03146101d7578063081812fc14610254578063095ea7b31461027157806318160ddd1461029f575b600080fd5b61019f6004803603602081101561018e57600080fd5b50356001600160e01b03191661061e565b604080519115158252519081900360200190f35b6101bb610641565b604080516001600160a01b039092168252519081900360200190f35b6101df610650565b6040805160208082528351818301528351919283929083019185019080838360005b83811015610219578181015183820152602001610201565b50505050905090810190601f1680156102465780820380516001836020036101000a031916815260200191505b509250505060405180910390f35b6101bb6004803603602081101561026a57600080fd5b50356106e7565b61029d6004803603604081101561028757600080fd5b506001600160a01b038135169060200135610749565b005b6102a7610824565b60408051918252519081900360200190f35b6102a7610835565b61029d600480360360608110156102d757600080fd5b506001600160a01b0381358116916020810135909116906040013561083b565b6102a76004803603604081101561030d57600080fd5b506001600160a01b038135169060200135610892565b61029d6004803603602081101561033957600080fd5b81019060208101813564010000000081111561035457600080fd5b82018360208201111561036657600080fd5b8035906020019184600183028401116401000000008311171561038857600080fd5b91908080601f0160208091040260200160405190810160405280939291908181526020018383808284376000920191909152509295506108c3945050505050565b61029d600480360360608110156103df57600080fd5b506001600160a01b0381358116916020810135909116906040013561095b565b6102a76004803603602081101561041557600080fd5b5035610976565b6101bb6004803603602081101561043257600080fd5b5035610992565b6101bb6004803603602081101561044f57600080fd5b50356109a2565b6101df6109d0565b6102a76004803603602081101561047457600080fd5b50356001600160a01b0316610a31565b61029d610a99565b6101bb610b57565b6101df610b66565b61029d600480360360408110156104b257600080fd5b506001600160a01b0381351690602001351515610bc7565b61029d600480360360808110156104e057600080fd5b6001600160a01b0382358116926020810135909116916040820135919081019060808101606082013564010000000081111561051b57600080fd5b82018360208201111561052d57600080fd5b8035906020019184600183028401116401000000008311171561054f57600080fd5b91908080601f016020809104026020016040519081016040528093929190818152602001838380828437600092019190915250929550610ccc945050505050565b6101df600480360360208110156105a657600080fd5b5035610d2a565b6102a7600480360360208110156105c357600080fd5b5035610fad565b61019f600480360360408110156105e057600080fd5b506001600160a01b0381358116916020013516610fbf565b61029d6004803603602081101561060e57600080fd5b50356001600160a01b0316610fed565b6001600160e01b0319811660009081526001602052604090205460ff165b919050565b600c546001600160a01b031681565b60078054604080516020601f60026000196101006001881615020190951694909404938401819004810282018101909252828152606093909290918301828280156106dc5780601f106106b1576101008083540402835291602001916106dc565b820191906000526020600020905b8154815290600101906020018083116106bf57829003601f168201915b505050505090505b90565b60006106f282611101565b61072d5760405162461bcd60e51b815260040180806020018281038252602c815260200180611fd4602c913960400191505060405180910390fd5b506000908152600560205260409020546001600160a01b031690565b6000610754826109a2565b9050806001600160a01b0316836001600160a01b031614156107a75760405162461bcd60e51b81526004018080602001828103825260218152602001806120846021913960400191505060405180910390fd5b806001600160a01b03166107b9611114565b6001600160a01b031614806107da57506107da816107d5611114565b610fbf565b6108155760405162461bcd60e51b8152600401808060200182810382526038815260200180611f276038913960400191505060405180910390fd5b61081f8383611118565b505050565b60006108306003611186565b905090565b600b5481565b61084c610846611114565b82611191565b6108875760405162461bcd60e51b81526004018080602001828103825260318152602001806120a56031913960400191505060405180910390fd5b61081f838383611235565b6001600160a01b03821660009081526002602052604081206108ba908363ffffffff61139316565b90505b92915050565b6108cb611114565b6001600160a01b03166108dc610b57565b6001600160a01b031614610937576040805162461bcd60e51b815260206004820181905260248201527f4f776e61626c653a2063616c6c6572206973206e6f7420746865206f776e6572604482015290519081900360640190fd5b61094333600b5461139f565b61094f600b54826113bd565b50600b80546001019055565b61081f83838360405180602001604052806000815250610ccc565b60008061098a60038463ffffffff61142016565b509392505050565b50600c546001600160a01b031690565b60006108bd82604051806060016040528060298152602001611f89602991396003919063ffffffff61143c16565b600a8054604080516020601f60026000196101006001881615020190951694909404938401819004810282018101909252828152606093909290918301828280156106dc5780601f106106b1576101008083540402835291602001916106dc565b60006001600160a01b038216610a785760405162461bcd60e51b815260040180806020018281038252602a815260200180611f5f602a913960400191505060405180910390fd5b6001600160a01b03821660009081526002602052604090206108bd90611186565b610aa1611114565b6001600160a01b0316610ab2610b57565b6001600160a01b031614610b0d576040805162461bcd60e51b815260206004820181905260248201527f4f776e61626c653a2063616c6c6572206973206e6f7420746865206f776e6572604482015290519081900360640190fd5b600080546040516001600160a01b03909116907f8be0079c531659141344cd1fd0a4f28419497f9722a3daafe3b4186f6b6457e0908390a3600080546001600160a01b0319169055565b6000546001600160a01b031690565b60088054604080516020601f60026000196101006001881615020190951694909404938401819004810282018101909252828152606093909290918301828280156106dc5780601f106106b1576101008083540402835291602001916106dc565b610bcf611114565b6001600160a01b0316826001600160a01b03161415610c35576040805162461bcd60e51b815260206004820152601960248201527f4552433732313a20617070726f766520746f2063616c6c657200000000000000604482015290519081900360640190fd5b8060066000610c42611114565b6001600160a01b03908116825260208083019390935260409182016000908120918716808252919093529120805460ff191692151592909217909155610c86611114565b60408051841515815290516001600160a01b0392909216917f17307eab39ab6107e8899845ad3d59bd9653f200f220920489ca2b5937696c319181900360200190a35050565b610cdd610cd7611114565b83611191565b610d185760405162461bcd60e51b81526004018080602001828103825260318152602001806120a56031913960400191505060405180910390fd5b610d2484848484611453565b50505050565b6060610d3582611101565b610d705760405162461bcd60e51b815260040180806020018281038252602f815260200180612055602f913960400191505060405180910390fd5b60008281526009602090815260409182902080548351601f6002600019610100600186161502019093169290920491820184900484028101840190945280845260609392830182828015610e055780601f10610dda57610100808354040283529160200191610e05565b820191906000526020600020905b815481529060010190602001808311610de857829003601f168201915b505050505090506060610e166109d0565b9050805160001415610e2a5750905061063c565b815115610eeb5780826040516020018083805190602001908083835b60208310610e655780518252601f199092019160209182019101610e46565b51815160209384036101000a600019018019909216911617905285519190930192850191508083835b60208310610ead5780518252601f199092019160209182019101610e8e565b6001836020036101000a038019825116818451168082178552505050505050905001925050506040516020818303038152906040529250505061063c565b80610ef5856114a5565b6040516020018083805190602001908083835b60208310610f275780518252601f199092019160209182019101610f08565b51815160209384036101000a600019018019909216911617905285519190930192850191508083835b60208310610f6f5780518252601f199092019160209182019101610f50565b6001836020036101000a0380198251168184511680821785525050505050509050019250505060405160208183030381529060405292505050919050565b600d6020526000908152604090205481565b6001600160a01b03918216600090815260066020908152604080832093909416825291909152205460ff1690565b610ff5611114565b6001600160a01b0316611006610b57565b6001600160a01b031614611061576040805162461bcd60e51b815260206004820181905260248201527f4f776e61626c653a2063616c6c6572206973206e6f7420746865206f776e6572604482015290519081900360640190fd5b6001600160a01b0381166110a65760405162461bcd60e51b8152600401808060200182810382526026815260200180611eb16026913960400191505060405180910390fd5b600080546040516001600160a01b03808516939216917f8be0079c531659141344cd1fd0a4f28419497f9722a3daafe3b4186f6b6457e091a3600080546001600160a01b0319166001600160a01b0392909216919091179055565b60006108bd60038363ffffffff61158016565b3390565b600081815260056020526040902080546001600160a01b0319166001600160a01b038416908117909155819061114d826109a2565b6001600160a01b03167f8c5be1e5ebec7d5bd14f71427d1e84f3dd0314c0f7b2291e5b200ac8c7c3b92560405160405180910390a45050565b60006108bd8261158c565b600061119c82611101565b6111d75760405162461bcd60e51b815260040180806020018281038252602c815260200180611efb602c913960400191505060405180910390fd5b60006111e2836109a2565b9050806001600160a01b0316846001600160a01b0316148061121d5750836001600160a01b0316611212846106e7565b6001600160a01b0316145b8061122d575061122d8185610fbf565b949350505050565b826001600160a01b0316611248826109a2565b6001600160a01b03161461128d5760405162461bcd60e51b815260040180806020018281038252602981526020018061202c6029913960400191505060405180910390fd5b6001600160a01b0382166112d25760405162461bcd60e51b8152600401808060200182810382526024815260200180611ed76024913960400191505060405180910390fd5b6112dd83838361081f565b6112e8600082611118565b6001600160a01b0383166000908152600260205260409020611310908263ffffffff61159016565b506001600160a01b0382166000908152600260205260409020611339908263ffffffff61159c16565b5061134c6003828463ffffffff6115a816565b5080826001600160a01b0316846001600160a01b03167fddf252ad1be2c89b69c2b068fc378daa952ba7f163c4a11628f55a4df523b3ef60405160405180910390a4505050565b60006108ba83836115be565b6113b9828260405180602001604052806000815250611622565b5050565b6113c682611101565b6114015760405162461bcd60e51b815260040180806020018281038252602c815260200180612000602c913960400191505060405180910390fd5b6000828152600960209081526040909120825161081f92840190611dc4565b600080808061142f8686611674565b9097909650945050505050565b60006114498484846116ef565b90505b9392505050565b61145e848484611235565b61146a848484846117b9565b610d245760405162461bcd60e51b8152600401808060200182810382526032815260200180611e7f6032913960400191505060405180910390fd5b6060816114ca57506040805180820190915260018152600360fc1b602082015261063c565b8160005b81156114e257600101600a820491506114ce565b60608167ffffffffffffffff811180156114fb57600080fd5b506040519080825280601f01601f191660200182016040528015611526576020820181803683370190505b50859350905060001982015b831561157757600a840660300160f81b8282806001900393508151811061155557fe5b60200101906001600160f81b031916908160001a905350600a84049350611532565b50949350505050565b60006108ba8383611939565b5490565b60006108ba8383611951565b60006108ba8383611a17565b600061144984846001600160a01b038516611a61565b815460009082106116005760405162461bcd60e51b8152600401808060200182810382526022815260200180611e5d6022913960400191505060405180910390fd5b82600001828154811061160f57fe5b9060005260206000200154905092915050565b61162c8383611af8565b61163960008484846117b9565b61081f5760405162461bcd60e51b8152600401808060200182810382526032815260200180611e7f6032913960400191505060405180910390fd5b8154600090819083106116b85760405162461bcd60e51b8152600401808060200182810382526022815260200180611fb26022913960400191505060405180910390fd5b60008460000184815481106116c957fe5b906000526020600020906002020190508060000154816001015492509250509250929050565b6000828152600184016020526040812054828161178a5760405162461bcd60e51b81526004018080602001828103825283818151815260200191508051906020019080838360005b8381101561174f578181015183820152602001611737565b50505050905090810190601f16801561177c5780820380516001836020036101000a031916815260200191505b509250505060405180910390fd5b5084600001600182038154811061179d57fe5b9060005260206000209060020201600101549150509392505050565b60006117cd846001600160a01b0316611c32565b6117d95750600161122d565b60606118ff630a85bd0160e11b6117ee611114565b88878760405160240180856001600160a01b03166001600160a01b03168152602001846001600160a01b03166001600160a01b0316815260200183815260200180602001828103825283818151815260200191508051906020019080838360005b8381101561186757818101518382015260200161184f565b50505050905090810190601f1680156118945780820380516001836020036101000a031916815260200191505b5095505050505050604051602081830303815290604052906001600160e01b0319166020820180516001600160e01b038381831617835250505050604051806060016040528060328152602001611e7f603291396001600160a01b038816919063ffffffff611c3816565b9050600081806020019051602081101561191857600080fd5b50516001600160e01b031916630a85bd0160e11b1492505050949350505050565b60009081526001919091016020526040902054151590565b60008181526001830160205260408120548015611a0d578354600019808301919081019060009087908390811061198457fe5b90600052602060002001549050808760000184815481106119a157fe5b6000918252602080832090910192909255828152600189810190925260409020908401905586548790806119d157fe5b600190038181906000526020600020016000905590558660010160008781526020019081526020016000206000905560019450505050506108bd565b60009150506108bd565b6000611a238383611939565b611a59575081546001818101845560008481526020808220909301849055845484825282860190935260409020919091556108bd565b5060006108bd565b600082815260018401602052604081205480611ac657505060408051808201825283815260208082018481528654600181810189556000898152848120955160029093029095019182559151908201558654868452818801909252929091205561144c565b82856000016001830381548110611ad957fe5b906000526020600020906002020160010181905550600091505061144c565b6001600160a01b038216611b53576040805162461bcd60e51b815260206004820181905260248201527f4552433732313a206d696e7420746f20746865207a65726f2061646472657373604482015290519081900360640190fd5b611b5c81611101565b15611bae576040805162461bcd60e51b815260206004820152601c60248201527f4552433732313a20746f6b656e20616c7265616479206d696e74656400000000604482015290519081900360640190fd5b611bba6000838361081f565b6001600160a01b0382166000908152600260205260409020611be2908263ffffffff61159c16565b50611bf56003828463ffffffff6115a816565b5060405181906001600160a01b038416906000907fddf252ad1be2c89b69c2b068fc378daa952ba7f163c4a11628f55a4df523b3ef908290a45050565b3b151590565b6060611449848460008585611c4c85611c32565b611c9d576040805162461bcd60e51b815260206004820152601d60248201527f416464726573733a2063616c6c20746f206e6f6e2d636f6e7472616374000000604482015290519081900360640190fd5b60006060866001600160a01b031685876040518082805190602001908083835b60208310611cdc5780518252601f199092019160209182019101611cbd565b6001836020036101000a03801982511681845116808217855250505050505090500191505060006040518083038185875af1925050503d8060008114611d3e576040519150601f19603f3d011682016040523d82523d6000602084013e611d43565b606091505b5091509150611d53828286611d5e565b979650505050505050565b60608315611d6d57508161144c565b825115611d7d5782518084602001fd5b60405162461bcd60e51b815260206004820181815284516024840152845185939192839260440191908501908083836000831561174f578181015183820152602001611737565b828054600181600116156101000203166002900490600052602060002090601f016020900481019282601f10611e0557805160ff1916838001178555611e32565b82800160010185558215611e32579182015b82811115611e32578251825591602001919060010190611e17565b50611e3e929150611e42565b5090565b6106e491905b80821115611e3e5760008155600101611e4856fe456e756d657261626c655365743a20696e646578206f7574206f6620626f756e64734552433732313a207472616e7366657220746f206e6f6e20455243373231526563656976657220696d706c656d656e7465724f776e61626c653a206e6577206f776e657220697320746865207a65726f20616464726573734552433732313a207472616e7366657220746f20746865207a65726f20616464726573734552433732313a206f70657261746f7220717565727920666f72206e6f6e6578697374656e7420746f6b656e4552433732313a20617070726f76652063616c6c6572206973206e6f74206f776e6572206e6f7220617070726f76656420666f7220616c6c4552433732313a2062616c616e636520717565727920666f7220746865207a65726f20616464726573734552433732313a206f776e657220717565727920666f72206e6f6e6578697374656e7420746f6b656e456e756d657261626c654d61703a20696e646578206f7574206f6620626f756e64734552433732313a20617070726f76656420717565727920666f72206e6f6e6578697374656e7420746f6b656e4552433732314d657461646174613a2055524920736574206f66206e6f6e6578697374656e7420746f6b656e4552433732313a207472616e73666572206f6620746f6b656e2074686174206973206e6f74206f776e4552433732314d657461646174613a2055524920717565727920666f72206e6f6e6578697374656e7420746f6b656e4552433732313a20617070726f76616c20746f2063757272656e74206f776e65724552433732313a207472616e736665722063616c6c6572206973206e6f74206f776e6572206e6f7220617070726f766564a2646970667358221220b28efb047d9501ba99a8eb06d93d51398ff02e4d1855b59e21e58ed45139abf564736f6c63430006060033",
  "immutableReferences": {},
  "source": "pragma solidity ^0.6.6;\n\nimport \"@openzeppelin/contracts/access/Ownable.sol\";\nimport \"@openzeppelin/contracts/token/ERC721/ERC721.sol\";\n\ncontract FakeZNS is Ownable,  ERC721{\n    uint256 public idTracker;\n    address public creator;\n\n    // converts id -> token type\n    mapping(uint256 => uint256) public tokenType;\n\n    /**\n    @notice the constructor function is fired only once during contract deployment\n    @dev assuming all NFT URI metadata is based on a URL he baseURI would be something like https://\n    **/\n    constructor() public ERC721(\"Fake ZNS\", \"ZNS\") {\n        idTracker = 0;\n        creator = msg.sender;\n    }\n\n    /**\n    @notice mintNewNFT allows the owner of this contract to mint an input address a newNFT\n    @param _tokenURI is the input metadata for the token being created\n    **/\n    function mintNewNFT(\n        string memory _tokenURI\n    ) public onlyOwner {\n        _safeMint(msg.sender, idTracker);\n        _setTokenURI(idTracker, _tokenURI);\n        idTracker++;\n    }\n\n    function creatorOf(uint256 id) public view virtual returns (address){\n      return creator;\n    }\n\n\n}\n",
  "sourcePath": "/home/stan36/repos/zer0/auction/contracts/fakeNTS/FakeZNS.sol",
  "compiler": {
    "name": "solc",
    "version": "0.6.6+commit.6c089d02.Emscripten.clang"
  },
  "schemaVersion": "3.3.2",
  "updatedAt": "2021-02-20T16:10:05.066Z",
  "networkType": "ethereum",
  "devdoc": {
    "methods": {
      "approve(address,uint256)": {
        "details": "See {IERC721-approve}."
      },
      "balanceOf(address)": {
        "details": "See {IERC721-balanceOf}."
      },
      "baseURI()": {
        "details": "Returns the base URI set via {_setBaseURI}. This will be automatically added as a prefix in {tokenURI} to each token's URI, or to the token ID if no specific URI is set for that token ID."
      },
      "constructor": {
        "details": "assuming all NFT URI metadata is based on a URL he baseURI would be something like https://*"
      },
      "getApproved(uint256)": {
        "details": "See {IERC721-getApproved}."
      },
      "isApprovedForAll(address,address)": {
        "details": "See {IERC721-isApprovedForAll}."
      },
      "mintNewNFT(string)": {
        "params": {
          "_tokenURI": "is the input metadata for the token being created*"
        }
      },
      "name()": {
        "details": "See {IERC721Metadata-name}."
      },
      "owner()": {
        "details": "Returns the address of the current owner."
      },
      "ownerOf(uint256)": {
        "details": "See {IERC721-ownerOf}."
      },
      "renounceOwnership()": {
        "details": "Leaves the contract without owner. It will not be possible to call `onlyOwner` functions anymore. Can only be called by the current owner.     * NOTE: Renouncing ownership will leave the contract without an owner, thereby removing any functionality that is only available to the owner."
      },
      "safeTransferFrom(address,address,uint256)": {
        "details": "See {IERC721-safeTransferFrom}."
      },
      "safeTransferFrom(address,address,uint256,bytes)": {
        "details": "See {IERC721-safeTransferFrom}."
      },
      "setApprovalForAll(address,bool)": {
        "details": "See {IERC721-setApprovalForAll}."
      },
      "supportsInterface(bytes4)": {
        "details": "See {IERC165-supportsInterface}.     * Time complexity O(1), guaranteed to always use less than 30 000 gas."
      },
      "symbol()": {
        "details": "See {IERC721Metadata-symbol}."
      },
      "tokenByIndex(uint256)": {
        "details": "See {IERC721Enumerable-tokenByIndex}."
      },
      "tokenOfOwnerByIndex(address,uint256)": {
        "details": "See {IERC721Enumerable-tokenOfOwnerByIndex}."
      },
      "tokenURI(uint256)": {
        "details": "See {IERC721Metadata-tokenURI}."
      },
      "totalSupply()": {
        "details": "See {IERC721Enumerable-totalSupply}."
      },
      "transferFrom(address,address,uint256)": {
        "details": "See {IERC721-transferFrom}."
      },
      "transferOwnership(address)": {
        "details": "Transfers ownership of the contract to a new account (`newOwner`). Can only be called by the current owner."
      }
    }
  },
  "userdoc": {
    "methods": {
      "constructor": "the constructor function is fired only once during contract deployment",
      "mintNewNFT(string)": {
        "notice": "mintNewNFT allows the owner of this contract to mint an input address a newNFT"
      }
    }
  }
}