{
  "contractName": "Fake1155",
  "abi": [
    {
      "inputs": [],
      "stateMutability": "nonpayable",
      "type": "constructor"
    },
    {
      "anonymous": false,
      "inputs": [
        {
          "indexed": true,
          "internalType": "address",
          "name": "account",
          "type": "address"
        },
        {
          "indexed": true,
          "internalType": "address",
          "name": "operator",
          "type": "address"
        },
        {
          "indexed": false,
          "internalType": "bool",
          "name": "approved",
          "type": "bool"
        }
      ],
      "name": "ApprovalForAll",
      "type": "event"
    },
    {
      "anonymous": false,
      "inputs": [
        {
          "indexed": true,
          "internalType": "address",
          "name": "previousOwner",
          "type": "address"
        },
        {
          "indexed": true,
          "internalType": "address",
          "name": "newOwner",
          "type": "address"
        }
      ],
      "name": "OwnershipTransferred",
      "type": "event"
    },
    {
      "anonymous": false,
      "inputs": [
        {
          "indexed": true,
          "internalType": "address",
          "name": "operator",
          "type": "address"
        },
        {
          "indexed": true,
          "internalType": "address",
          "name": "from",
          "type": "address"
        },
        {
          "indexed": true,
          "internalType": "address",
          "name": "to",
          "type": "address"
        },
        {
          "indexed": false,
          "internalType": "uint256[]",
          "name": "ids",
          "type": "uint256[]"
        },
        {
          "indexed": false,
          "internalType": "uint256[]",
          "name": "values",
          "type": "uint256[]"
        }
      ],
      "name": "TransferBatch",
      "type": "event"
    },
    {
      "anonymous": false,
      "inputs": [
        {
          "indexed": true,
          "internalType": "address",
          "name": "operator",
          "type": "address"
        },
        {
          "indexed": true,
          "internalType": "address",
          "name": "from",
          "type": "address"
        },
        {
          "indexed": true,
          "internalType": "address",
          "name": "to",
          "type": "address"
        },
        {
          "indexed": false,
          "internalType": "uint256",
          "name": "id",
          "type": "uint256"
        },
        {
          "indexed": false,
          "internalType": "uint256",
          "name": "value",
          "type": "uint256"
        }
      ],
      "name": "TransferSingle",
      "type": "event"
    },
    {
      "anonymous": false,
      "inputs": [
        {
          "indexed": false,
          "internalType": "string",
          "name": "value",
          "type": "string"
        },
        {
          "indexed": true,
          "internalType": "uint256",
          "name": "id",
          "type": "uint256"
        }
      ],
      "name": "URI",
      "type": "event"
    },
    {
      "inputs": [
        {
          "internalType": "address",
          "name": "account",
          "type": "address"
        },
        {
          "internalType": "uint256",
          "name": "id",
          "type": "uint256"
        }
      ],
      "name": "balanceOf",
      "outputs": [
        {
          "internalType": "uint256",
          "name": "",
          "type": "uint256"
        }
      ],
      "stateMutability": "view",
      "type": "function"
    },
    {
      "inputs": [
        {
          "internalType": "address[]",
          "name": "accounts",
          "type": "address[]"
        },
        {
          "internalType": "uint256[]",
          "name": "ids",
          "type": "uint256[]"
        }
      ],
      "name": "balanceOfBatch",
      "outputs": [
        {
          "internalType": "uint256[]",
          "name": "",
          "type": "uint256[]"
        }
      ],
      "stateMutability": "view",
      "type": "function"
    },
    {
      "inputs": [],
      "name": "idTracker",
      "outputs": [
        {
          "internalType": "uint256",
          "name": "",
          "type": "uint256"
        }
      ],
      "stateMutability": "view",
      "type": "function"
    },
    {
      "inputs": [
        {
          "internalType": "address",
          "name": "account",
          "type": "address"
        },
        {
          "internalType": "address",
          "name": "operator",
          "type": "address"
        }
      ],
      "name": "isApprovedForAll",
      "outputs": [
        {
          "internalType": "bool",
          "name": "",
          "type": "bool"
        }
      ],
      "stateMutability": "view",
      "type": "function"
    },
    {
      "inputs": [],
      "name": "owner",
      "outputs": [
        {
          "internalType": "address",
          "name": "",
          "type": "address"
        }
      ],
      "stateMutability": "view",
      "type": "function"
    },
    {
      "inputs": [],
      "name": "renounceOwnership",
      "outputs": [],
      "stateMutability": "nonpayable",
      "type": "function"
    },
    {
      "inputs": [
        {
          "internalType": "address",
          "name": "from",
          "type": "address"
        },
        {
          "internalType": "address",
          "name": "to",
          "type": "address"
        },
        {
          "internalType": "uint256[]",
          "name": "ids",
          "type": "uint256[]"
        },
        {
          "internalType": "uint256[]",
          "name": "amounts",
          "type": "uint256[]"
        },
        {
          "internalType": "bytes",
          "name": "data",
          "type": "bytes"
        }
      ],
      "name": "safeBatchTransferFrom",
      "outputs": [],
      "stateMutability": "nonpayable",
      "type": "function"
    },
    {
      "inputs": [
        {
          "internalType": "address",
          "name": "from",
          "type": "address"
        },
        {
          "internalType": "address",
          "name": "to",
          "type": "address"
        },
        {
          "internalType": "uint256",
          "name": "id",
          "type": "uint256"
        },
        {
          "internalType": "uint256",
          "name": "amount",
          "type": "uint256"
        },
        {
          "internalType": "bytes",
          "name": "data",
          "type": "bytes"
        }
      ],
      "name": "safeTransferFrom",
      "outputs": [],
      "stateMutability": "nonpayable",
      "type": "function"
    },
    {
      "inputs": [
        {
          "internalType": "address",
          "name": "operator",
          "type": "address"
        },
        {
          "internalType": "bool",
          "name": "approved",
          "type": "bool"
        }
      ],
      "name": "setApprovalForAll",
      "outputs": [],
      "stateMutability": "nonpayable",
      "type": "function"
    },
    {
      "inputs": [
        {
          "internalType": "bytes4",
          "name": "interfaceId",
          "type": "bytes4"
        }
      ],
      "name": "supportsInterface",
      "outputs": [
        {
          "internalType": "bool",
          "name": "",
          "type": "bool"
        }
      ],
      "stateMutability": "view",
      "type": "function"
    },
    {
      "inputs": [
        {
          "internalType": "address",
          "name": "newOwner",
          "type": "address"
        }
      ],
      "name": "transferOwnership",
      "outputs": [],
      "stateMutability": "nonpayable",
      "type": "function"
    },
    {
      "inputs": [
        {
          "internalType": "uint256",
          "name": "",
          "type": "uint256"
        }
      ],
      "name": "uri",
      "outputs": [
        {
          "internalType": "string",
          "name": "",
          "type": "string"
        }
      ],
      "stateMutability": "view",
      "type": "function"
    },
    {
      "inputs": [
        {
          "internalType": "uint256",
          "name": "amount",
          "type": "uint256"
        },
        {
          "internalType": "bytes",
          "name": "data",
          "type": "bytes"
        }
      ],
      "name": "mintNewNFT",
      "outputs": [],
      "stateMutability": "nonpayable",
      "type": "function"
    },
    {
      "inputs": [
        {
          "internalType": "uint256[]",
          "name": "ids",
          "type": "uint256[]"
        },
        {
          "internalType": "uint256[]",
          "name": "amounts",
          "type": "uint256[]"
        },
        {
          "internalType": "bytes",
          "name": "data",
          "type": "bytes"
        }
      ],
      "name": "mintNewNFTBatch",
      "outputs": [],
      "stateMutability": "nonpayable",
      "type": "function"
    }
  ],
  "bytecode": "0x60806040523480156200001157600080fd5b5060408051808201909152600d81526c46616b6520626173652055524960981b602082015260006200004b6001600160e01b036200010616565b600080546001600160a01b0319166001600160a01b0383169081178255604051929350917f8be0079c531659141344cd1fd0a4f28419497f9722a3daafe3b4186f6b6457e0908290a350620000b06301ffc9a760e01b6001600160e01b036200010b16565b620000c4816001600160e01b036200019316565b620000df636cdb3d1360e11b6001600160e01b036200010b16565b620000fa6303a24d0760e21b6001600160e01b036200010b16565b5060006005556200024e565b335b90565b6001600160e01b031980821614156200016b576040805162461bcd60e51b815260206004820152601c60248201527f4552433136353a20696e76616c696420696e7465726661636520696400000000604482015290519081900360640190fd5b6001600160e01b0319166000908152600160208190526040909120805460ff19169091179055565b8051620001a8906004906020840190620001ac565b5050565b828054600181600116156101000203166002900490600052602060002090601f016020900481019282601f10620001ef57805160ff19168380011785556200021f565b828001600101855582156200021f579182015b828111156200021f57825182559160200191906001019062000202565b506200022d92915062000231565b5090565b6200010891905b808211156200022d576000815560010162000238565b611f7b806200025e6000396000f3fe608060405234801561001057600080fd5b50600436106100e85760003560e01c80636ecffce61161008c578063a22cb46511610066578063a22cb465146107b5578063e985e9c5146107e3578063f242432a14610811578063f2fde38b146108da576100e8565b80636ecffce6146105e1578063715018a6146107895780638da5cb5b14610791576100e8565b80630e89341c116100c85780630e89341c146102135780631b7fe6b6146102a55780632eb2c2d6146102ad5780634e1273f41461046e576100e8565b8062b45857146100ed578062fdd58e1461019a57806301ffc9a7146101d8575b600080fd5b6101986004803603604081101561010357600080fd5b81359190810190604081016020820135600160201b81111561012457600080fd5b82018360208201111561013657600080fd5b803590602001918460018302840111600160201b8311171561015757600080fd5b91908080601f016020809104026020016040519081016040528093929190818152602001838380828437600092019190915250929550610900945050505050565b005b6101c6600480360360408110156101b057600080fd5b506001600160a01b03813516906020013561097e565b60408051918252519081900360200190f35b6101ff600480360360208110156101ee57600080fd5b50356001600160e01b0319166109ed565b604080519115158252519081900360200190f35b6102306004803603602081101561022957600080fd5b5035610a0c565b6040805160208082528351818301528351919283929083019185019080838360005b8381101561026a578181015183820152602001610252565b50505050905090810190601f1680156102975780820380516001836020036101000a031916815260200191505b509250505060405180910390f35b6101c6610aa4565b610198600480360360a08110156102c357600080fd5b6001600160a01b038235811692602081013590911691810190606081016040820135600160201b8111156102f657600080fd5b82018360208201111561030857600080fd5b803590602001918460208302840111600160201b8311171561032957600080fd5b9190808060200260200160405190810160405280939291908181526020018383602002808284376000920191909152509295949360208101935035915050600160201b81111561037857600080fd5b82018360208201111561038a57600080fd5b803590602001918460208302840111600160201b831117156103ab57600080fd5b9190808060200260200160405190810160405280939291908181526020018383602002808284376000920191909152509295949360208101935035915050600160201b8111156103fa57600080fd5b82018360208201111561040c57600080fd5b803590602001918460018302840111600160201b8311171561042d57600080fd5b91908080601f016020809104026020016040519081016040528093929190818152602001838380828437600092019190915250929550610aaa945050505050565b6105916004803603604081101561048457600080fd5b810190602081018135600160201b81111561049e57600080fd5b8201836020820111156104b057600080fd5b803590602001918460208302840111600160201b831117156104d157600080fd5b9190808060200260200160405190810160405280939291908181526020018383602002808284376000920191909152509295949360208101935035915050600160201b81111561052057600080fd5b82018360208201111561053257600080fd5b803590602001918460208302840111600160201b8311171561055357600080fd5b919080806020026020016040519081016040528093929190818152602001838360200280828437600092019190915250929550610dad945050505050565b60408051602080825283518183015283519192839290830191858101910280838360005b838110156105cd5781810151838201526020016105b5565b505050509050019250505060405180910390f35b610198600480360360608110156105f757600080fd5b810190602081018135600160201b81111561061157600080fd5b82018360208201111561062357600080fd5b803590602001918460208302840111600160201b8311171561064457600080fd5b9190808060200260200160405190810160405280939291908181526020018383602002808284376000920191909152509295949360208101935035915050600160201b81111561069357600080fd5b8201836020820111156106a557600080fd5b803590602001918460208302840111600160201b831117156106c657600080fd5b9190808060200260200160405190810160405280939291908181526020018383602002808284376000920191909152509295949360208101935035915050600160201b81111561071557600080fd5b82018360208201111561072757600080fd5b803590602001918460018302840111600160201b8311171561074857600080fd5b91908080601f016020809104026020016040519081016040528093929190818152602001838380828437600092019190915250929550610e99945050505050565b610198610f15565b610799610fc1565b604080516001600160a01b039092168252519081900360200190f35b610198600480360360408110156107cb57600080fd5b506001600160a01b0381351690602001351515610fd0565b6101ff600480360360408110156107f957600080fd5b506001600160a01b03813581169160200135166110bf565b610198600480360360a081101561082757600080fd5b6001600160a01b03823581169260208101359091169160408201359160608101359181019060a081016080820135600160201b81111561086657600080fd5b82018360208201111561087857600080fd5b803590602001918460018302840111600160201b8311171561089957600080fd5b91908080601f0160208091040260200160405190810160405280939291908181526020018383808284376000920191909152509295506110ed945050505050565b610198600480360360208110156108f057600080fd5b50356001600160a01b03166112be565b6109086113c0565b6001600160a01b0316610919610fc1565b6001600160a01b031614610962576040805162461bcd60e51b81526020600482018190526024820152600080516020611e8b833981519152604482015290519081900360640190fd5b600580546001019081905561097a90339084846113c4565b5050565b60006001600160a01b0383166109c55760405162461bcd60e51b815260040180806020018281038252602b815260200180611d90602b913960400191505060405180910390fd5b5060009081526002602090815260408083206001600160a01b03949094168352929052205490565b6001600160e01b03191660009081526001602052604090205460ff1690565b60048054604080516020601f6002600019610100600188161502019095169490940493840181900481028201810190925282815260609390929091830182828015610a985780601f10610a6d57610100808354040283529160200191610a98565b820191906000526020600020905b815481529060010190602001808311610a7b57829003601f168201915b50505050509050919050565b60055481565b8151835114610aea5760405162461bcd60e51b8152600401808060200182810382526028815260200180611efd6028913960400191505060405180910390fd5b6001600160a01b038416610b2f5760405162461bcd60e51b8152600401808060200182810382526025815260200180611e0a6025913960400191505060405180910390fd5b610b376113c0565b6001600160a01b0316856001600160a01b03161480610b625750610b6285610b5d6113c0565b6110bf565b610b9d5760405162461bcd60e51b8152600401808060200182810382526032815260200180611e2f6032913960400191505060405180910390fd5b6000610ba76113c0565b9050610bb7818787878787610da5565b60005b8451811015610cbd576000858281518110610bd157fe5b602002602001015190506000858381518110610be957fe5b60200260200101519050610c56816040518060600160405280602a8152602001611e61602a91396002600086815260200190815260200160002060008d6001600160a01b03166001600160a01b03168152602001908152602001600020546114d29092919063ffffffff16565b60008381526002602090815260408083206001600160a01b038e811685529252808320939093558a1681522054610c8d9082611569565b60009283526002602090815260408085206001600160a01b038c1686529091529092209190915550600101610bba565b50846001600160a01b0316866001600160a01b0316826001600160a01b03167f4a39dc06d4c0dbc64b70af90fd698a233a518aa5d07e595d983b8c0526c8f7fb8787604051808060200180602001838103835285818151815260200191508051906020019060200280838360005b83811015610d43578181015183820152602001610d2b565b50505050905001838103825284818151815260200191508051906020019060200280838360005b83811015610d82578181015183820152602001610d6a565b5050505090500194505050505060405180910390a4610da58187878787876115ca565b505050505050565b60608151835114610def5760405162461bcd60e51b8152600401808060200182810382526029815260200180611ed46029913960400191505060405180910390fd5b6060835167ffffffffffffffff81118015610e0957600080fd5b50604051908082528060200260200182016040528015610e33578160200160208202803683370190505b50905060005b8451811015610e9157610e72858281518110610e5157fe5b6020026020010151858381518110610e6557fe5b602002602001015161097e565b828281518110610e7e57fe5b6020908102919091010152600101610e39565b509392505050565b610ea16113c0565b6001600160a01b0316610eb2610fc1565b6001600160a01b031614610efb576040805162461bcd60e51b81526020600482018190526024820152600080516020611e8b833981519152604482015290519081900360640190fd5b600580546001019055610f1033848484611908565b505050565b610f1d6113c0565b6001600160a01b0316610f2e610fc1565b6001600160a01b031614610f77576040805162461bcd60e51b81526020600482018190526024820152600080516020611e8b833981519152604482015290519081900360640190fd5b600080546040516001600160a01b03909116907f8be0079c531659141344cd1fd0a4f28419497f9722a3daafe3b4186f6b6457e0908390a3600080546001600160a01b0319169055565b6000546001600160a01b031690565b816001600160a01b0316610fe26113c0565b6001600160a01b031614156110285760405162461bcd60e51b8152600401808060200182810382526029815260200180611eab6029913960400191505060405180910390fd5b80600360006110356113c0565b6001600160a01b03908116825260208083019390935260409182016000908120918716808252919093529120805460ff1916921515929092179091556110796113c0565b60408051841515815290516001600160a01b0392909216917f17307eab39ab6107e8899845ad3d59bd9653f200f220920489ca2b5937696c319181900360200190a35050565b6001600160a01b03918216600090815260036020908152604080832093909416825291909152205460ff1690565b6001600160a01b0384166111325760405162461bcd60e51b8152600401808060200182810382526025815260200180611e0a6025913960400191505060405180910390fd5b61113a6113c0565b6001600160a01b0316856001600160a01b03161480611160575061116085610b5d6113c0565b61119b5760405162461bcd60e51b8152600401808060200182810382526029815260200180611de16029913960400191505060405180910390fd5b60006111a56113c0565b90506111c58187876111b688611b56565b6111bf88611b56565b87610da5565b611212836040518060600160405280602a8152602001611e61602a913960008781526002602090815260408083206001600160a01b038d168452909152902054919063ffffffff6114d216565b60008581526002602090815260408083206001600160a01b038b811685529252808320939093558716815220546112499084611569565b60008581526002602090815260408083206001600160a01b03808b168086529184529382902094909455805188815291820187905280518a8416938616927fc3d58168c5ae7397731d063d5bbf3d657854427343f4c083240f7aacaa2d0f6292908290030190a4610da5818787878787611b9a565b6112c66113c0565b6001600160a01b03166112d7610fc1565b6001600160a01b031614611320576040805162461bcd60e51b81526020600482018190526024820152600080516020611e8b833981519152604482015290519081900360640190fd5b6001600160a01b0381166113655760405162461bcd60e51b8152600401808060200182810382526026815260200180611dbb6026913960400191505060405180910390fd5b600080546040516001600160a01b03808516939216917f8be0079c531659141344cd1fd0a4f28419497f9722a3daafe3b4186f6b6457e091a3600080546001600160a01b0319166001600160a01b0392909216919091179055565b3390565b6001600160a01b0384166114095760405162461bcd60e51b8152600401808060200182810382526021815260200180611f256021913960400191505060405180910390fd5b60006114136113c0565b9050611425816000876111b688611b56565b60008481526002602090815260408083206001600160a01b0389168452909152902054611458908463ffffffff61156916565b60008581526002602090815260408083206001600160a01b03808b16808652918452828520959095558151898152928301889052815190948616927fc3d58168c5ae7397731d063d5bbf3d657854427343f4c083240f7aacaa2d0f6292908290030190a46114cb81600087878787611b9a565b5050505050565b600081848411156115615760405162461bcd60e51b81526004018080602001828103825283818151815260200191508051906020019080838360005b8381101561152657818101518382015260200161150e565b50505050905090810190601f1680156115535780820380516001836020036101000a031916815260200191505b509250505060405180910390fd5b505050900390565b6000828201838110156115c3576040805162461bcd60e51b815260206004820152601b60248201527f536166654d6174683a206164646974696f6e206f766572666c6f770000000000604482015290519081900360640190fd5b9392505050565b6115dc846001600160a01b0316611d2d565b15610da557836001600160a01b031663bc197c8187878686866040518663ffffffff1660e01b815260040180866001600160a01b03166001600160a01b03168152602001856001600160a01b03166001600160a01b03168152602001806020018060200180602001848103845287818151815260200191508051906020019060200280838360005b8381101561167c578181015183820152602001611664565b50505050905001848103835286818151815260200191508051906020019060200280838360005b838110156116bb5781810151838201526020016116a3565b50505050905001848103825285818151815260200191508051906020019080838360005b838110156116f75781810151838201526020016116df565b50505050905090810190601f1680156117245780820380516001836020036101000a031916815260200191505b5098505050505050505050602060405180830381600087803b15801561174957600080fd5b505af192505050801561176e57506040513d602081101561176957600080fd5b505160015b6118b0576040516000815260443d101561178a57506000611827565b60046000803e60005160e01c6308c379a081146117ab576000915050611827565b60043d036004833e81513d602482011167ffffffffffffffff821117156117d757600092505050611827565b808301805167ffffffffffffffff8111156117f9576000945050505050611827565b8060208301013d860181111561181757600095505050505050611827565b601f01601f191660405250925050505b806118325750611879565b60405162461bcd60e51b815260206004820181815283516024840152835184939192839260440191908501908083836000831561152657818101518382015260200161150e565b60405162461bcd60e51b8152600401808060200182810382526034815260200180611d346034913960400191505060405180910390fd5b6001600160e01b0319811663bc197c8160e01b146118ff5760405162461bcd60e51b8152600401808060200182810382526028815260200180611d686028913960400191505060405180910390fd5b50505050505050565b6001600160a01b03841661194d5760405162461bcd60e51b8152600401808060200182810382526021815260200180611f256021913960400191505060405180910390fd5b815183511461198d5760405162461bcd60e51b8152600401808060200182810382526028815260200180611efd6028913960400191505060405180910390fd5b60006119976113c0565b90506119a881600087878787610da5565b60005b8451811015611a6c57611a23600260008784815181106119c757fe5b602002602001015181526020019081526020016000206000886001600160a01b03166001600160a01b0316815260200190815260200160002054858381518110611a0d57fe5b602002602001015161156990919063ffffffff16565b60026000878481518110611a3357fe5b602090810291909101810151825281810192909252604090810160009081206001600160a01b038b1682529092529020556001016119ab565b50846001600160a01b031660006001600160a01b0316826001600160a01b03167f4a39dc06d4c0dbc64b70af90fd698a233a518aa5d07e595d983b8c0526c8f7fb8787604051808060200180602001838103835285818151815260200191508051906020019060200280838360005b83811015611af3578181015183820152602001611adb565b50505050905001838103825284818151815260200191508051906020019060200280838360005b83811015611b32578181015183820152602001611b1a565b5050505090500194505050505060405180910390a46114cb816000878787876115ca565b604080516001808252818301909252606091829190602080830190803683370190505090508281600081518110611b8957fe5b602090810291909101015292915050565b611bac846001600160a01b0316611d2d565b15610da557836001600160a01b031663f23a6e6187878686866040518663ffffffff1660e01b815260040180866001600160a01b03166001600160a01b03168152602001856001600160a01b03166001600160a01b0316815260200184815260200183815260200180602001828103825283818151815260200191508051906020019080838360005b83811015611c4d578181015183820152602001611c35565b50505050905090810190601f168015611c7a5780820380516001836020036101000a031916815260200191505b509650505050505050602060405180830381600087803b158015611c9d57600080fd5b505af1925050508015611cc257506040513d6020811015611cbd57600080fd5b505160015b611cde576040516000815260443d101561178a57506000611827565b6001600160e01b0319811663f23a6e6160e01b146118ff5760405162461bcd60e51b8152600401808060200182810382526028815260200180611d686028913960400191505060405180910390fd5b3b15159056fe455243313135353a207472616e7366657220746f206e6f6e2045524331313535526563656976657220696d706c656d656e746572455243313135353a204552433131353552656365697665722072656a656374656420746f6b656e73455243313135353a2062616c616e636520717565727920666f7220746865207a65726f20616464726573734f776e61626c653a206e6577206f776e657220697320746865207a65726f2061646472657373455243313135353a2063616c6c6572206973206e6f74206f776e6572206e6f7220617070726f766564455243313135353a207472616e7366657220746f20746865207a65726f2061646472657373455243313135353a207472616e736665722063616c6c6572206973206e6f74206f776e6572206e6f7220617070726f766564455243313135353a20696e73756666696369656e742062616c616e636520666f72207472616e736665724f776e61626c653a2063616c6c6572206973206e6f7420746865206f776e6572455243313135353a2073657474696e6720617070726f76616c2073746174757320666f722073656c66455243313135353a206163636f756e747320616e6420696473206c656e677468206d69736d61746368455243313135353a2069647320616e6420616d6f756e7473206c656e677468206d69736d61746368455243313135353a206d696e7420746f20746865207a65726f2061646472657373a2646970667358221220d8828e49ccd3b13f578a871cdff993a46039497d65f899c67ad2c6686192061964736f6c63430006060033",
  "immutableReferences": {},
  "source": "pragma solidity ^0.6.6;\n\nimport \"@openzeppelin/contracts/access/Ownable.sol\";\nimport \"@openzeppelin/contracts/token/ERC1155/ERC1155.sol\";\n\ncontract Fake1155 is Ownable,  ERC1155{\n    uint256 public idTracker;\n\n\n    /**\n    @notice the constructor function is fired only once during contract deployment\n    @dev assuming all NFT URI metadata is based on a URL he baseURI would be something like https://\n    **/\n    constructor() public ERC1155(\"Fake base URI\") {\n        idTracker = 0;\n    }\n\n\n    function mintNewNFT(\n      uint256 amount,\n      bytes memory data\n    ) public onlyOwner {\n      idTracker++;\n        _mint(\n          msg.sender,\n          idTracker,\n          amount,\n          data\n        );\n    }\n\n\n    function mintNewNFTBatch(\n      uint256[] memory ids,\n      uint256[] memory amounts,\n      bytes memory data\n    ) public onlyOwner {\n      idTracker++;\n        _mintBatch(\n          msg.sender,\n          ids,\n          amounts,\n          data\n        );\n    }\n\n}\n",
  "sourcePath": "/home/stan36/repos/zer0/zAuction/contracts/fakeTokens/Fake1155.sol",
  "compiler": {
    "name": "solc",
    "version": "0.6.6+commit.6c089d02.Emscripten.clang"
  },
  "schemaVersion": "3.3.2",
  "updatedAt": "2021-02-26T23:22:10.027Z",
  "devdoc": {
    "methods": {
      "balanceOf(address,uint256)": {
        "details": "See {IERC1155-balanceOf}.     * Requirements:     * - `account` cannot be the zero address."
      },
      "balanceOfBatch(address[],uint256[])": {
        "details": "See {IERC1155-balanceOfBatch}.     * Requirements:     * - `accounts` and `ids` must have the same length."
      },
      "constructor": {
        "details": "assuming all NFT URI metadata is based on a URL he baseURI would be something like https://*"
      },
      "isApprovedForAll(address,address)": {
        "details": "See {IERC1155-isApprovedForAll}."
      },
      "owner()": {
        "details": "Returns the address of the current owner."
      },
      "renounceOwnership()": {
        "details": "Leaves the contract without owner. It will not be possible to call `onlyOwner` functions anymore. Can only be called by the current owner.     * NOTE: Renouncing ownership will leave the contract without an owner, thereby removing any functionality that is only available to the owner."
      },
      "safeBatchTransferFrom(address,address,uint256[],uint256[],bytes)": {
        "details": "See {IERC1155-safeBatchTransferFrom}."
      },
      "safeTransferFrom(address,address,uint256,uint256,bytes)": {
        "details": "See {IERC1155-safeTransferFrom}."
      },
      "setApprovalForAll(address,bool)": {
        "details": "See {IERC1155-setApprovalForAll}."
      },
      "supportsInterface(bytes4)": {
        "details": "See {IERC165-supportsInterface}.     * Time complexity O(1), guaranteed to always use less than 30 000 gas."
      },
      "transferOwnership(address)": {
        "details": "Transfers ownership of the contract to a new account (`newOwner`). Can only be called by the current owner."
      },
      "uri(uint256)": {
        "details": "See {IERC1155MetadataURI-uri}.     * This implementation returns the same URI for *all* token types. It relies on the token type ID substitution mechanism https://eips.ethereum.org/EIPS/eip-1155#metadata[defined in the EIP].     * Clients calling this function must replace the `\\{id\\}` substring with the actual token type ID."
      }
    }
  },
  "userdoc": {
    "methods": {
      "constructor": "the constructor function is fired only once during contract deployment"
    }
  }
}