{
  "contractName": "ZAuction",
  "abi": [
    {
      "inputs": [
        {
          "internalType": "contract IZNS",
          "name": "_znsRegAdd",
          "type": "address"
        },
        {
          "internalType": "address",
          "name": "_ZND721",
          "type": "address"
        }
      ],
      "stateMutability": "nonpayable",
      "type": "constructor"
    },
    {
      "inputs": [
        {
          "internalType": "address",
          "name": "",
          "type": "address"
        }
      ],
      "name": "addressNFTtoAddressFeeERC20",
      "outputs": [
        {
          "internalType": "contract IERC20",
          "name": "",
          "type": "address"
        }
      ],
      "stateMutability": "view",
      "type": "function",
      "constant": true
    },
    {
      "inputs": [
        {
          "internalType": "address",
          "name": "",
          "type": "address"
        }
      ],
      "name": "addressNFTtoCreator",
      "outputs": [
        {
          "internalType": "address",
          "name": "",
          "type": "address"
        }
      ],
      "stateMutability": "view",
      "type": "function",
      "constant": true
    },
    {
      "inputs": [
        {
          "internalType": "address",
          "name": "",
          "type": "address"
        }
      ],
      "name": "addressNFTtoFee",
      "outputs": [
        {
          "internalType": "uint256",
          "name": "",
          "type": "uint256"
        }
      ],
      "stateMutability": "view",
      "type": "function",
      "constant": true
    },
    {
      "inputs": [],
      "name": "auctionID",
      "outputs": [
        {
          "internalType": "uint256",
          "name": "",
          "type": "uint256"
        }
      ],
      "stateMutability": "view",
      "type": "function",
      "constant": true
    },
    {
      "inputs": [
        {
          "internalType": "uint256",
          "name": "",
          "type": "uint256"
        }
      ],
      "name": "auctionIDtoType",
      "outputs": [
        {
          "internalType": "bool",
          "name": "",
          "type": "bool"
        }
      ],
      "stateMutability": "view",
      "type": "function",
      "constant": true
    },
    {
      "inputs": [
        {
          "internalType": "uint256",
          "name": "",
          "type": "uint256"
        }
      ],
      "name": "idToAuction1155",
      "outputs": [
        {
          "internalType": "contract IERC1155",
          "name": "nftContract",
          "type": "address"
        },
        {
          "internalType": "contract IERC20",
          "name": "bidERC20Contract",
          "type": "address"
        },
        {
          "internalType": "address",
          "name": "seller",
          "type": "address"
        },
        {
          "internalType": "address",
          "name": "highestBidder",
          "type": "address"
        },
        {
          "internalType": "uint256",
          "name": "highestBid",
          "type": "uint256"
        },
        {
          "internalType": "uint256",
          "name": "nftId",
          "type": "uint256"
        },
        {
          "internalType": "uint256",
          "name": "startPrice",
          "type": "uint256"
        },
        {
          "internalType": "uint256",
          "name": "bidID",
          "type": "uint256"
        },
        {
          "internalType": "uint256",
          "name": "amount",
          "type": "uint256"
        },
        {
          "internalType": "bytes",
          "name": "callData",
          "type": "bytes"
        }
      ],
      "stateMutability": "view",
      "type": "function",
      "constant": true
    },
    {
      "inputs": [
        {
          "internalType": "uint256",
          "name": "",
          "type": "uint256"
        }
      ],
      "name": "idToAuction721",
      "outputs": [
        {
          "internalType": "contract IERC721",
          "name": "nftContract",
          "type": "address"
        },
        {
          "internalType": "contract IERC20",
          "name": "bidERC20Contract",
          "type": "address"
        },
        {
          "internalType": "address",
          "name": "seller",
          "type": "address"
        },
        {
          "internalType": "address",
          "name": "highestBidder",
          "type": "address"
        },
        {
          "internalType": "uint256",
          "name": "highestBid",
          "type": "uint256"
        },
        {
          "internalType": "uint256",
          "name": "nftId",
          "type": "uint256"
        },
        {
          "internalType": "uint256",
          "name": "startPrice",
          "type": "uint256"
        },
        {
          "internalType": "uint256",
          "name": "bidID",
          "type": "uint256"
        }
      ],
      "stateMutability": "view",
      "type": "function",
      "constant": true
    },
    {
      "inputs": [
        {
          "internalType": "address",
          "name": "",
          "type": "address"
        },
        {
          "internalType": "address",
          "name": "",
          "type": "address"
        },
        {
          "internalType": "uint256[]",
          "name": "",
          "type": "uint256[]"
        },
        {
          "internalType": "uint256[]",
          "name": "",
          "type": "uint256[]"
        },
        {
          "internalType": "bytes",
          "name": "",
          "type": "bytes"
        }
      ],
      "name": "onERC1155BatchReceived",
      "outputs": [
        {
          "internalType": "bytes4",
          "name": "",
          "type": "bytes4"
        }
      ],
      "stateMutability": "nonpayable",
      "type": "function"
    },
    {
      "inputs": [
        {
          "internalType": "address",
          "name": "",
          "type": "address"
        },
        {
          "internalType": "address",
          "name": "",
          "type": "address"
        },
        {
          "internalType": "uint256",
          "name": "",
          "type": "uint256"
        },
        {
          "internalType": "uint256",
          "name": "",
          "type": "uint256"
        },
        {
          "internalType": "bytes",
          "name": "",
          "type": "bytes"
        }
      ],
      "name": "onERC1155Received",
      "outputs": [
        {
          "internalType": "bytes4",
          "name": "",
          "type": "bytes4"
        }
      ],
      "stateMutability": "nonpayable",
      "type": "function"
    },
    {
      "inputs": [
        {
          "internalType": "address",
          "name": "",
          "type": "address"
        },
        {
          "internalType": "address",
          "name": "",
          "type": "address"
        },
        {
          "internalType": "uint256",
          "name": "",
          "type": "uint256"
        },
        {
          "internalType": "bytes",
          "name": "",
          "type": "bytes"
        }
      ],
      "name": "onERC721Received",
      "outputs": [
        {
          "internalType": "bytes4",
          "name": "",
          "type": "bytes4"
        }
      ],
      "stateMutability": "nonpayable",
      "type": "function"
    },
    {
      "inputs": [
        {
          "internalType": "uint256",
          "name": "",
          "type": "uint256"
        }
      ],
      "name": "openAuction",
      "outputs": [
        {
          "internalType": "bool",
          "name": "",
          "type": "bool"
        }
      ],
      "stateMutability": "view",
      "type": "function",
      "constant": true
    },
    {
      "inputs": [
        {
          "internalType": "bytes4",
          "name": "interfaceId",
          "type": "bytes4"
        }
      ],
      "name": "supportsInterface",
      "outputs": [
        {
          "internalType": "bool",
          "name": "",
          "type": "bool"
        }
      ],
      "stateMutability": "view",
      "type": "function",
      "constant": true
    },
    {
      "inputs": [],
      "name": "zns721",
      "outputs": [
        {
          "internalType": "address",
          "name": "",
          "type": "address"
        }
      ],
      "stateMutability": "view",
      "type": "function",
      "constant": true
    },
    {
      "inputs": [
        {
          "internalType": "uint256",
          "name": "",
          "type": "uint256"
        }
      ],
      "name": "znsIDtoAddressFeeERC20",
      "outputs": [
        {
          "internalType": "contract IERC20",
          "name": "",
          "type": "address"
        }
      ],
      "stateMutability": "view",
      "type": "function",
      "constant": true
    },
    {
      "inputs": [
        {
          "internalType": "uint256",
          "name": "",
          "type": "uint256"
        }
      ],
      "name": "znsIDtoCreator",
      "outputs": [
        {
          "internalType": "address",
          "name": "",
          "type": "address"
        }
      ],
      "stateMutability": "view",
      "type": "function",
      "constant": true
    },
    {
      "inputs": [
        {
          "internalType": "uint256",
          "name": "",
          "type": "uint256"
        }
      ],
      "name": "znsIDtoFee",
      "outputs": [
        {
          "internalType": "uint256",
          "name": "",
          "type": "uint256"
        }
      ],
      "stateMutability": "view",
      "type": "function",
      "constant": true
    },
    {
      "inputs": [],
      "name": "znsRegistryContract",
      "outputs": [
        {
          "internalType": "contract IZNS",
          "name": "",
          "type": "address"
        }
      ],
      "stateMutability": "view",
      "type": "function",
      "constant": true
    },
    {
      "inputs": [
        {
          "internalType": "address",
          "name": "_NFTcontract",
          "type": "address"
        },
        {
          "internalType": "contract IERC20",
          "name": "_bidERC20",
          "type": "address"
        },
        {
          "internalType": "uint256",
          "name": "_tokenId",
          "type": "uint256"
        },
        {
          "internalType": "uint256",
          "name": "_startPrice",
          "type": "uint256"
        },
        {
          "internalType": "uint256",
          "name": "_amount",
          "type": "uint256"
        },
        {
          "internalType": "bool",
          "name": "_is1155",
          "type": "bool"
        },
        {
          "internalType": "bytes",
          "name": "_callData",
          "type": "bytes"
        }
      ],
      "name": "createAuction",
      "outputs": [],
      "stateMutability": "nonpayable",
      "type": "function"
    },
    {
      "inputs": [
        {
          "internalType": "uint256",
          "name": "_auctionID",
          "type": "uint256"
        },
        {
          "internalType": "uint256",
          "name": "_bidAmount",
          "type": "uint256"
        },
        {
          "internalType": "string",
          "name": "_IPFShash",
          "type": "string"
        }
      ],
      "name": "bid",
      "outputs": [],
      "stateMutability": "nonpayable",
      "type": "function"
    },
    {
      "inputs": [
        {
          "internalType": "uint256",
          "name": "_auctionID",
          "type": "uint256"
        },
        {
          "internalType": "uint256",
          "name": "_bidID",
          "type": "uint256"
        }
      ],
      "name": "acceptBid",
      "outputs": [],
      "stateMutability": "nonpayable",
      "type": "function"
    },
    {
      "inputs": [
        {
          "internalType": "uint256",
          "name": "_auctionID",
          "type": "uint256"
        }
      ],
      "name": "cancel",
      "outputs": [],
      "stateMutability": "nonpayable",
      "type": "function"
    },
    {
      "inputs": [
        {
          "internalType": "uint256",
          "name": "_auctionID",
          "type": "uint256"
        },
        {
          "internalType": "uint256",
          "name": "_bidID",
          "type": "uint256"
        }
      ],
      "name": "cancelBid",
      "outputs": [],
      "stateMutability": "nonpayable",
      "type": "function"
    },
    {
      "inputs": [
        {
          "internalType": "contract IERC20",
          "name": "_ERC20FeeAdd",
          "type": "address"
        },
        {
          "internalType": "address",
          "name": "_NFTContractAdd",
          "type": "address"
        },
        {
          "internalType": "uint256",
          "name": "_feePercentage",
          "type": "uint256"
        },
        {
          "internalType": "uint256",
          "name": "_znsID",
          "type": "uint256"
        },
        {
          "internalType": "bool",
          "name": "_isZNS",
          "type": "bool"
        }
      ],
      "name": "setCreatorFees",
      "outputs": [],
      "stateMutability": "nonpayable",
      "type": "function"
    }
  ],
  "bytecode": "0x60806040523480156200001157600080fd5b506040516200295d3803806200295d833981810160405260408110156200003757600080fd5b5080516020909101516200005b6301ffc9a760e01b6001600160e01b03620000a816565b62000076630271189760e51b6001600160e01b03620000a816565b600280546001600160a01b039384166001600160a01b031991821617909155600380549290931691161790556200012d565b6001600160e01b0319808216141562000108576040805162461bcd60e51b815260206004820152601c60248201527f4552433136353a20696e76616c696420696e7465726661636520696400000000604482015290519081900360640190fd5b6001600160e01b0319166000908152602081905260409020805460ff19166001179055565b612820806200013d6000396000f3fe608060405234801561001057600080fd5b506004361061014d5760003560e01c80636a29646e116100c3578063bf683c121161007c578063bf683c121461089d578063d075a594146108ba578063d2aaf1bf146108e0578063f23a6e6114610906578063f7545f03146109cf578063fe7127f9146109f55761014d565b80636a29646e146104ec57806376d4fc57146105305780637735705f146105e05780637a5447c2146105fd578063bc197c81146106d4578063bebadcf2146108955761014d565b80631edc8f91116101155780631edc8f91146103e857806327047e88146104055780632d07091f146104755780633c4799e61461048f57806340e58ee5146104ac5780634b393605146104c95761014d565b806301ffc9a71461015257806302e9d5e41461018d578063150b7a02146101b257806318b3fce0146102935780631de96983146103af575b600080fd5b6101796004803603602081101561016857600080fd5b50356001600160e01b0319166109fd565b604080519115158252519081900360200190f35b6101b0600480360360408110156101a357600080fd5b5080359060200135610a1c565b005b610276600480360360808110156101c857600080fd5b6001600160a01b03823581169260208101359091169160408201359190810190608081016060820135600160201b81111561020257600080fd5b82018360208201111561021457600080fd5b803590602001918460018302840111600160201b8311171561023557600080fd5b91908080601f0160208091040260200160405190810160405280939291908181526020018383808284376000920191909152509295506113a1945050505050565b604080516001600160e01b03199092168252519081900360200190f35b6102b0600480360360208110156102a957600080fd5b50356113b1565b604051808b6001600160a01b03166001600160a01b031681526020018a6001600160a01b03166001600160a01b03168152602001896001600160a01b03166001600160a01b03168152602001886001600160a01b03166001600160a01b0316815260200187815260200186815260200185815260200184815260200183815260200180602001828103825283818151815260200191508051906020019080838360005b8381101561036b578181015183820152602001610353565b50505050905090810190601f1680156103985780820380516001836020036101000a031916815260200191505b509b50505050505050505050505060405180910390f35b6103cc600480360360208110156103c557600080fd5b503561149e565b604080516001600160a01b039092168252519081900360200190f35b610179600480360360208110156103fe57600080fd5b50356114b9565b6104226004803603602081101561041b57600080fd5b50356114ce565b604080516001600160a01b03998a168152978916602089015295881687870152939096166060860152608085019190915260a084015260c083019390935260e08201929092529051908190036101000190f35b61047d611523565b60408051918252519081900360200190f35b61047d600480360360208110156104a557600080fd5b5035611529565b6101b0600480360360208110156104c257600080fd5b503561153b565b6101b0600480360360408110156104df57600080fd5b5080359060200135611886565b6101b0600480360360a081101561050257600080fd5b506001600160a01b0381358116916020810135909116906040810135906060810135906080013515156119ef565b6101b06004803603606081101561054657600080fd5b813591602081013591810190606081016040820135600160201b81111561056c57600080fd5b82018360208201111561057e57600080fd5b803590602001918460018302840111600160201b8311171561059f57600080fd5b91908080601f016020809104026020016040519081016040528093929190818152602001838380828437600092019190915250929550611b9e945050505050565b6103cc600480360360208110156105f657600080fd5b5035611db1565b6101b0600480360360e081101561061357600080fd5b6001600160a01b03823581169260208101359091169160408201359160608101359160808201359160a081013515159181019060e0810160c0820135600160201b81111561066057600080fd5b82018360208201111561067257600080fd5b803590602001918460018302840111600160201b8311171561069357600080fd5b91908080601f016020809104026020016040519081016040528093929190818152602001838380828437600092019190915250929550611dcc945050505050565b610276600480360360a08110156106ea57600080fd5b6001600160a01b038235811692602081013590911691810190606081016040820135600160201b81111561071d57600080fd5b82018360208201111561072f57600080fd5b803590602001918460208302840111600160201b8311171561075057600080fd5b9190808060200260200160405190810160405280939291908181526020018383602002808284376000920191909152509295949360208101935035915050600160201b81111561079f57600080fd5b8201836020820111156107b157600080fd5b803590602001918460208302840111600160201b831117156107d257600080fd5b9190808060200260200160405190810160405280939291908181526020018383602002808284376000920191909152509295949360208101935035915050600160201b81111561082157600080fd5b82018360208201111561083357600080fd5b803590602001918460018302840111600160201b8311171561085457600080fd5b91908080601f0160208091040260200160405190810160405280939291908181526020018383808284376000920191909152509295506124a7945050505050565b6103cc6124b8565b610179600480360360208110156108b357600080fd5b50356124c7565b6103cc600480360360208110156108d057600080fd5b50356001600160a01b03166124dc565b6103cc600480360360208110156108f657600080fd5b50356001600160a01b03166124f7565b610276600480360360a081101561091c57600080fd5b6001600160a01b03823581169260208101359091169160408201359160608101359181019060a081016080820135600160201b81111561095b57600080fd5b82018360208201111561096d57600080fd5b803590602001918460018302840111600160201b8311171561098e57600080fd5b91908080601f016020809104026020016040519081016040528093929190818152602001838380828437600092019190915250929550612512945050505050565b61047d600480360360208110156109e557600080fd5b50356001600160a01b0316612523565b6103cc612535565b6001600160e01b03191660009081526020819052604090205460ff1690565b60008281526004602052604090205460ff16610a7a576040805162461bcd60e51b815260206004820152601860248201527711549493d48e88105d58dd1a5bdb881a185cc8195b99195960421b604482015290519081900360640190fd5b60008281526005602052604090205460ff1615610f33576000828152600760205260409020610aa76125d2565b6000838152600a83016020908152604091829020825160808101845281546001600160a01b031681526001808301548285015260028084015460ff1615158387015260038401805487516101009482161594909402600019011691909104601f810186900486028301860190965285825291949293606086019391929190830182828015610b765780601f10610b4b57610100808354040283529160200191610b76565b820191906000526020600020905b815481529060010190602001808311610b5957829003601f168201915b5050509190925250505060028301549091506001600160a01b03163314610bce5760405162461bcd60e51b81526004018080602001828103825260308152602001806127bb6030913960400191505060405180910390fd5b60208082015160018401548351604080516370a0823160e01b81526001600160a01b0392831660048201529051939491909216926370a08231926024808201939291829003018186803b158015610c2457600080fd5b505afa158015610c38573d6000803e3d6000fd5b505050506040513d6020811015610c4e57600080fd5b50511015610c9d576040805162461bcd60e51b8152602060048201526017602482015276426964646572732062616c616e636520746f6f206c6f7760481b604482015290519081900360640190fd5b60208082015183546001600160a01b0316600090815260089092526040822054610cc991906002612544565b90506000610ce482846020015161257590919063ffffffff16565b600185015484516002870154604080516323b872dd60e01b81526001600160a01b039384166004820152918316602483015260448201859052519394509116916323b872dd916064808201926020929091908290030181600087803b158015610d4c57600080fd5b505af1158015610d60573d6000803e3d6000fd5b505050506040513d6020811015610d7657600080fd5b50506001840154835185546001600160a01b039081166000908152600c602090815260408083205481516323b872dd60e01b8152958516600487015284166024860152604485018890525192909416936323b872dd936064808201949293918390030190829087803b158015610deb57600080fd5b505af1158015610dff573d6000803e3d6000fd5b505050506040513d6020811015610e1557600080fd5b50508354600280860154855160058801546008890154604051637921219560e11b81526001600160a01b03948516600482018181528587166024840152604483018590526064830184905260a06084840190815260098e01805460001960018216156101000201169990990460a48501819052979099169863f242432a98929792939192909160c4019084908015610eee5780601f10610ec357610100808354040283529160200191610eee565b820191906000526020600020905b815481529060010190602001808311610ed157829003601f168201915b50509650505050505050600060405180830381600087803b158015610f1257600080fd5b505af1158015610f26573d6000803e3d6000fd5b5050505050505050611388565b6000828152600660205260409020610f496125d2565b6000838152600883016020908152604091829020825160808101845281546001600160a01b031681526001808301548285015260028084015460ff1615158387015260038401805487516101009482161594909402600019011691909104601f8101869004860283018601909652858252919492936060860193919291908301828280156110185780601f10610fed57610100808354040283529160200191611018565b820191906000526020600020905b815481529060010190602001808311610ffb57829003601f168201915b5050509190925250505060028301549091506001600160a01b031633146110705760405162461bcd60e51b81526004018080602001828103825260308152602001806127bb6030913960400191505060405180910390fd5b60208082015160018401548351604080516370a0823160e01b81526001600160a01b0392831660048201529051939491909216926370a08231926024808201939291829003018186803b1580156110c657600080fd5b505afa1580156110da573d6000803e3d6000fd5b505050506040513d60208110156110f057600080fd5b5051101561113f576040805162461bcd60e51b8152602060048201526017602482015276426964646572732062616c616e636520746f6f206c6f7760481b604482015290519081900360640190fd5b81546003546000916001600160a01b039182169116141561118e5760208083015184546001600160a01b03166000908152600890925260409091205461118791906002612544565b90506111b8565b6111b582602001516009600086600501548152602001908152602001600020546002612544565b90505b60208201516000906111d0908363ffffffff61257516565b600185015484516002870154604080516323b872dd60e01b81526001600160a01b039384166004820152918316602483015260448201859052519394509116916323b872dd916064808201926020929091908290030181600087803b15801561123857600080fd5b505af115801561124c573d6000803e3d6000fd5b505050506040513d602081101561126257600080fd5b50506001840154835185546001600160a01b039081166000908152600c602090815260408083205481516323b872dd60e01b8152958516600487015284166024860152604485018890525192909416936323b872dd936064808201949293918390030190829087803b1580156112d757600080fd5b505af11580156112eb573d6000803e3d6000fd5b505050506040513d602081101561130157600080fd5b5050835460028501548451600587015460408051632142170760e11b81526001600160a01b039485166004820152928416602484015260448301919091525191909216916342842e0e91606480830192600092919082900301818387803b15801561136b57600080fd5b505af115801561137f573d6000803e3d6000fd5b50505050505050505b506000908152600460205260409020805460ff19169055565b630a85bd0160e11b949350505050565b600760208181526000928352604092839020805460018083015460028085015460038601546004870154600588015460068901549a89015460088a015460098b0180548f516101009b8216159b909b02600019011697909704601f81018d90048d028a018d01909e528d89526001600160a01b03998a169d978a169c958a169b9990941699929891979496909593949293918301828280156114945780601f1061146957610100808354040283529160200191611494565b820191906000526020600020905b81548152906001019060200180831161147757829003601f168201915b505050505090508a565b600d602052600090815260409020546001600160a01b031681565b60046020526000908152604090205460ff1681565b6006602081905260009182526040909120805460018201546002830154600384015460048501546005860154968601546007909601546001600160a01b03958616979486169693861695909216939092909188565b60015481565b60096020526000908152604090205481565b60008181526004602052604090205460ff16611599576040805162461bcd60e51b815260206004820152601860248201527711549493d48e88105d58dd1a5bdb881a185cc8195b99195960421b604482015290519081900360640190fd5b60008181526005602052604090205460ff161561176c576115b86125f8565b60008281526007602081815260409283902083516101408101855281546001600160a01b0390811682526001808401548216838601526002808501548316848901526003850154909216606084015260048401546080840152600584015460a0840152600684015460c08401529483015460e08301526008830154610100808401919091526009840180548851978116159092026000190190911691909104601f8101859004850286018501909652858552909491936101208601939092908301828280156116c85780601f1061169d576101008083540402835291602001916116c8565b820191906000526020600020905b8154815290600101906020018083116116ab57829003601f168201915b5050505050815250509050336001600160a01b031681604001516001600160a01b0316146116f557600080fd5b6000828152600760208190526040822080546001600160a01b03199081168255600182018054821690556002820180548216905560038201805490911690556004810183905560058101839055600681018390559081018290556008810182905590611764600983018261266f565b50505061186e565b6117746126b6565b5060008181526006602081815260409283902083516101008101855281546001600160a01b0390811682526001830154811693820193909352600282015483169481018590526003820154909216606083015260048101546080830152600581015460a08301529182015460c082015260079091015460e08201529033146117fb57600080fd5b6000828152600760208190526040822080546001600160a01b0319908116825560018201805482169055600282018054821690556003820180549091169055600481018390556005810183905560068101839055908101829055600881018290559061186a600983018261266f565b5050505b6000908152600460205260409020805460ff19169055565b60008281526004602052604090205460ff166118e4576040805162461bcd60e51b815260206004820152601860248201527711549493d48e88105d58dd1a5bdb881a185cc8195b99195960421b604482015290519081900360640190fd5b60008281526005602052604090205460ff1615611975576000828152600760209081526040808320848452600a8101909252909120546001600160a01b0316331461192e57600080fd5b6000828152600a82016020526040812080546001600160a01b03191681556001810182905560028101805460ff191690559061196d600383018261266f565b5050506119eb565b600082815260066020908152604080832084845260088101909252909120546001600160a01b031633146119a857600080fd5b6000828152600882016020526040812080546001600160a01b03191681556001810182905560028101805460ff19169055906119e7600383018261266f565b5050505b5050565b8015611ace576002546040805163589a174360e01b81526004810185905290516001600160a01b039092169163589a174391602480820192602092909190829003018186803b158015611a4157600080fd5b505afa158015611a55573d6000803e3d6000fd5b505050506040513d6020811015611a6b57600080fd5b50516001600160a01b03163314611a8157600080fd5b6000828152600960209081526040808320869055600b825280832080546001600160a01b038a166001600160a01b031991821617909155600d9092529091208054909116331790556119e7565b6000849050806001600160a01b0316638da5cb5b6040518163ffffffff1660e01b815260040160206040518083038186803b158015611b0c57600080fd5b505afa158015611b20573d6000803e3d6000fd5b505050506040513d6020811015611b3657600080fd5b50516001600160a01b03163314611b4c57600080fd5b506001600160a01b038085166000908152600860209081526040808320879055600a82528083208054948a166001600160a01b0319958616179055600c90915290208054909116331790555050505050565b60008381526004602052604090205460ff16611bfc576040805162461bcd60e51b815260206004820152601860248201527711549493d48e88105d58dd1a5bdb881a185cc8195b99195960421b604482015290519081900360640190fd5b60008381526005602052604090205460ff1615611ce2576000838152600760205260409020611c296125d2565b5060408051608081018252338152602080820186815260008385018181526060850188815260078801548352600a8801855295909120845181546001600160a01b0319166001600160a01b03909116178155915160018301555160028201805460ff191691151591909117905592518051929384939092611cb192600385019291019061271f565b50505060048201548410611cdb576003820180546001600160a01b03191633179055600482018490555b5050611dac565b6000838152600660205260409020611cf86125d2565b506040805160808101825233815260208082018681526000838501818152606085018881526007880154835260088801855295909120845181546001600160a01b0319166001600160a01b03909116178155915160018301555160028201805460ff191691151591909117905592518051929384939092611d8092600385019291019061271f565b505050600482015484106119e7576003820180546001600160a01b031916331790556004820184905550505b505050565b600b602052600090815260409020546001600160a01b031681565b600180548101905581156120fb576001600160a01b038088166000908152600a602052604090205488911615611e25576001600160a01b038881166000908152600a6020526040902054811690881614611e2557600080fd5b60408051627eeac760e11b81523360048201526024810188905290516001916001600160a01b0384169162fdd58e91604480820192602092909190829003018186803b158015611e7457600080fd5b505afa158015611e88573d6000803e3d6000fd5b505050506040513d6020811015611e9e57600080fd5b50511015611eab57600080fd5b611eb36125f8565b6001805460009081526007602081815260409283902083516101408101855281546001600160a01b039081168252828701548116828501526002808401548216838801526003840154909116606083015260048301546080830152600583015460a0830152600683015460c08301529382015460e08201526008820154610100808301919091526009830180548751988116159092026000190190911694909404601f81018490048402870184019095528486529490936101208601939192830182828015611fc35780601f10611f9857610100808354040283529160200191611fc3565b820191906000526020600020905b815481529060010190602001808311611fa657829003601f168201915b505050919092525050506001600160a01b0383811682523360408084019182528b8316602080860191825260c086018c815260a087018e815261010088018d815261012089018c815260018054600090815260078088529890208b5181546001600160a01b0319908116918d16919091178255975191810180548916928c169290921790915597516002890180548816918b1691909117905560608a01516003890180549097169916989098179094556080880151600487015551600586015551600685015560e08601519284019290925551600883015591518051939450849391926120b89260098501929091019061271f565b5050600180546000908152600460209081526040808320805460ff199081168617909155845484526005909252909120805490911690911790555061249e915050565b6000879050806001600160a01b0316636352211e876040518263ffffffff1660e01b81526004018082815260200191505060206040518083038186803b15801561214457600080fd5b505afa158015612158573d6000803e3d6000fd5b505050506040513d602081101561216e57600080fd5b50516001600160a01b0316331461218457600080fd5b6001600160a01b038881166000908152600a602052604090205416156121cd576001600160a01b038881166000908152600a60205260409020548116908816146121cd57600080fd5b6121d56126b6565b600660006001548152602001908152602001600020604051806101000160405290816000820160009054906101000a90046001600160a01b03166001600160a01b03166001600160a01b031681526020016001820160009054906101000a90046001600160a01b03166001600160a01b03166001600160a01b031681526020016002820160009054906101000a90046001600160a01b03166001600160a01b03166001600160a01b031681526020016003820160009054906101000a90046001600160a01b03166001600160a01b03166001600160a01b0316815260200160048201548152602001600582015481526020016006820154815260200160078201548152505090508181600001906001600160a01b031690816001600160a01b0316815250503381604001906001600160a01b031690816001600160a01b0316815250508781602001906001600160a01b031690816001600160a01b031681525050858160c0018181525050868160a00181815250508060066000600154815260200190815260200160002060008201518160000160006101000a8154816001600160a01b0302191690836001600160a01b0316021790555060208201518160010160006101000a8154816001600160a01b0302191690836001600160a01b0316021790555060408201518160020160006101000a8154816001600160a01b0302191690836001600160a01b0316021790555060608201518160030160006101000a8154816001600160a01b0302191690836001600160a01b031602179055506080820151816004015560a0820151816005015560c0820151816006015560e08201518160070155905050600160046000600154815260200190815260200160002060006101000a81548160ff021916908315150217905550600060056000600154815260200190815260200160002060006101000a81548160ff02191690831515021790555050505b50505050505050565b63bc197c8160e01b95945050505050565b6003546001600160a01b031681565b60056020526000908152604090205460ff1681565b600a602052600090815260409020546001600160a01b031681565b600c602052600090815260409020546001600160a01b031681565b63f23a6e6160e01b95945050505050565b60086020526000908152604090205481565b6002546001600160a01b031681565b60008082600101600a0a850290506000600a85838161255f57fe5b046005018161256a57fe5b049695505050505050565b6000828211156125cc576040805162461bcd60e51b815260206004820152601e60248201527f536166654d6174683a207375627472616374696f6e206f766572666c6f770000604482015290519081900360640190fd5b50900390565b604080516080810182526000808252602082018190529181019190915260608082015290565b60405180610140016040528060006001600160a01b0316815260200160006001600160a01b0316815260200160006001600160a01b0316815260200160006001600160a01b031681526020016000815260200160008152602001600081526020016000815260200160008152602001606081525090565b50805460018160011615610100020316600290046000825580601f1061269557506126b3565b601f0160209004906000526020600020908101906126b3919061279d565b50565b60405180610100016040528060006001600160a01b0316815260200160006001600160a01b0316815260200160006001600160a01b0316815260200160006001600160a01b03168152602001600081526020016000815260200160008152602001600081525090565b828054600181600116156101000203166002900490600052602060002090601f016020900481019282601f1061276057805160ff191683800117855561278d565b8280016001018555821561278d579182015b8281111561278d578251825591602001919060010190612772565b5061279992915061279d565b5090565b6127b791905b8082111561279957600081556001016127a3565b9056fe4552524f523a20596f7520617265206e6f7420746865206f776e6572206f662074686973204e46542041756374696f6ea264697066735822122000e96b54580227dacea6fb585d6300d715b29d579bcc3df400ae7426961b70fd64736f6c63430006060033",
  "immutableReferences": {},
  "source": "pragma solidity ^0.6.6;\n\nimport \"@openzeppelin/contracts/access/Ownable.sol\";\nimport \"@openzeppelin/contracts/math/SafeMath.sol\";\nimport \"@openzeppelin/contracts/token/ERC20/IERC20.sol\";\nimport \"@openzeppelin/contracts/token/ERC721/IERC721.sol\";\nimport \"@openzeppelin/contracts/token/ERC721/ERC721Holder.sol\";\nimport \"@openzeppelin/contracts/token/ERC1155/IERC1155.sol\";\nimport \"@openzeppelin/contracts/token/ERC1155/ERC1155Holder.sol\";\nimport \"./interfaces/IZNS.sol\";\n\ncontract ZAuction is ERC721Holder, ERC1155Holder {\n  using SafeMath for uint;\n    uint256 public auctionID;\n    IZNS public znsRegistryContract;\n    address public zns721;\n\n    mapping(uint256 => bool) public openAuction;\n    mapping(uint256 => bool) public auctionIDtoType;\n    mapping(uint256 => Auction721) public idToAuction721;\n    mapping(uint256 => Auction1155) public idToAuction1155;\n    mapping(address => uint256) public addressNFTtoFee;\n    mapping(uint256 => uint256) public znsIDtoFee;\n    mapping(address => IERC20) public addressNFTtoAddressFeeERC20;\n    mapping(uint256 => IERC20) public znsIDtoAddressFeeERC20;\n    mapping(address => address) public addressNFTtoCreator;\n    mapping(uint256 => address) public znsIDtoCreator;\n\n    struct Auction721 {\n        IERC721 nftContract;\n        IERC20 bidERC20Contract;\n        address seller;\n        address highestBidder;\n        uint256 highestBid;\n        uint256 nftId;\n        uint256 startPrice;\n        uint256 bidID;\n        mapping(uint256 => BidInfo) bids;\n    }\n\n    struct Auction1155 {\n        IERC1155 nftContract;\n        IERC20 bidERC20Contract;\n        address seller;\n        address highestBidder;\n        uint256 highestBid;\n        uint256 nftId;\n        uint256 startPrice;\n        uint256 bidID;\n        uint256 amount;\n        bytes callData;\n        mapping(uint256 => BidInfo) bids;\n    }\n\n    struct BidInfo {\n        address bidder;\n        uint256 bidAmount;\n        bool bidApproved;\n        string IPFShash;\n    }\n\n    constructor(IZNS _znsRegAdd, address _ZND721) public {\n        znsRegistryContract = _znsRegAdd;\n        zns721 = _ZND721;\n    }\n\n    /**\n@notice createAuction allows a NFT owner to create an auction for both a 721 and 1155 NFT\n@param _NFTcontract is the address of the NFT contract whos token is being auctioned\n@param _bidERC20 is the address of the ERC20 contract this auction will be held in\n@param _tokenId is the ID of the NFT token(s) being auctioned\n@param _startPrice is the starting price of the auction priced in the bid ERC20 token\n@param _amount is an amount of NFTs to be transfered(1155 only, set to 0 if ERC721)\n@param _is1155 is a bool representing whether or not the NFT being auctioned is ERC1155\n@param _callData is the relevant call data for the NFT if it is ERC1155(leave blank if ERC721)\n**/\n    function createAuction(\n        address _NFTcontract,\n        IERC20 _bidERC20,\n        uint256 _tokenId,\n        uint256 _startPrice,\n        uint256 _amount,\n        bool _is1155,\n        bytes memory _callData\n    ) public {\n        auctionID++;\n        if (_is1155) {\n            IERC1155 nft = IERC1155(_NFTcontract);\n            if(address(addressNFTtoAddressFeeERC20[_NFTcontract]) != address(0)){\n              require(addressNFTtoAddressFeeERC20[_NFTcontract] == _bidERC20);\n            }\n            require(nft.balanceOf(msg.sender, _tokenId) >= 1);\n            Auction1155 memory auction = idToAuction1155[auctionID];\n            auction.nftContract = nft;\n            auction.seller = msg.sender;\n            auction.bidERC20Contract = _bidERC20;\n            auction.startPrice = _startPrice;\n            auction.nftId = _tokenId;\n            auction.amount = _amount;\n            auction.callData = _callData;\n\n            idToAuction1155[auctionID] = auction;\n            openAuction[auctionID] = true;\n            auctionIDtoType[auctionID] = true;\n        } else {\n            IERC721 nft = IERC721(_NFTcontract);\n            require(msg.sender == nft.ownerOf(_tokenId));\n            if(address(addressNFTtoAddressFeeERC20[_NFTcontract]) != address(0)){\n              require(addressNFTtoAddressFeeERC20[_NFTcontract] == _bidERC20);\n            }\n            Auction721 memory auction = idToAuction721[auctionID];\n            auction.nftContract = nft;\n            auction.seller = msg.sender;\n            auction.bidERC20Contract = _bidERC20;\n            auction.startPrice = _startPrice;\n            auction.nftId = _tokenId;\n\n            idToAuction721[auctionID] = auction;\n            openAuction[auctionID] = true;\n            auctionIDtoType[auctionID] = false;\n        }\n    }\n\n    /**\n@notice bid allows any user to bid on an auction\n@param _auctionID is the number representing the ID of the auction being bid on\n@param _bidAmount is the ERC20 amount being placed as a bid for the auction\n@param _IPFShash is an optional IPFS hash that allows a bidder to relay a message to the NFT owner\n**/\n    function bid(\n        uint256 _auctionID,\n        uint256 _bidAmount,\n        string memory _IPFShash\n    ) public {\n        require(openAuction[_auctionID], \"ERROR: Auction has ended\");\n        if (auctionIDtoType[_auctionID]) {\n            Auction1155 storage auction = idToAuction1155[_auctionID];\n            auction.bidID = auction.bidID++;\n\n            BidInfo memory currentBid =\n                BidInfo({\n                    bidder: msg.sender,\n                    bidAmount: _bidAmount,\n                    bidApproved: false,\n                    IPFShash: _IPFShash\n                });\n\n            auction.bids[auction.bidID] = currentBid;\n\n            if (_bidAmount >= auction.highestBid) {\n                auction.highestBidder = msg.sender;\n                auction.highestBid = _bidAmount;\n            }\n        } else {\n            Auction721 storage auction = idToAuction721[_auctionID];\n            auction.bidID = auction.bidID++;\n            BidInfo memory currentBid =\n                BidInfo({\n                    bidder: msg.sender,\n                    bidAmount: _bidAmount,\n                    bidApproved: false,\n                    IPFShash: _IPFShash\n                });\n\n            auction.bids[auction.bidID] = currentBid;\n            if (_bidAmount >= auction.highestBid) {\n                auction.highestBidder = msg.sender;\n                auction.highestBid = _bidAmount;\n            }\n        }\n    }\n\n    /**\n@notice acceptBid allows an NFT owner/auctioner to accept a placed bid\n@param _auctionID is the number representing the Auction where the bid is placed\n@param _bidID is the number representing the bid being accepted\n@dev this function allows an NFT owner to accept ANY placed bid regardless of if it is the highest bid or not\n**/\n    function acceptBid(uint256 _auctionID, uint256 _bidID) public {\n        require(openAuction[_auctionID], \"ERROR: Auction has ended\");\n\n        if (auctionIDtoType[_auctionID]) {\n            Auction1155 storage auction = idToAuction1155[_auctionID];\n            BidInfo memory currentBid = auction.bids[_bidID];\n            require(\n                auction.seller == msg.sender,\n                \"ERROR: You are not the owner of this NFT Auction\"\n            );\n            require(\n                auction.bidERC20Contract.balanceOf(currentBid.bidder) >=\n                    currentBid.bidAmount,\n                \"Bidders balance too low\"\n            );\n            uint fee = _percent(\n              currentBid.bidAmount,\n              addressNFTtoFee[address(auction.nftContract)],\n              2\n            );\n            uint remainder = currentBid.bidAmount.sub(fee);\n\n            auction.bidERC20Contract.transferFrom(\n                currentBid.bidder,\n                auction.seller,\n                remainder\n            );\n            auction.bidERC20Contract.transferFrom(\n                currentBid.bidder,\n                addressNFTtoCreator[address(auction.nftContract)],\n                fee\n            );\n            auction.nftContract.safeTransferFrom(\n                auction.seller,\n                currentBid.bidder,\n                auction.nftId,\n                auction.amount,\n                auction.callData\n            );\n        } else {\n            Auction721 storage auction = idToAuction721[_auctionID];\n            BidInfo memory currentBid = auction.bids[_bidID];\n            require(\n                auction.seller == msg.sender,\n                \"ERROR: You are not the owner of this NFT Auction\"\n            );\n            require(\n                auction.bidERC20Contract.balanceOf(currentBid.bidder) >=\n                    currentBid.bidAmount,\n                \"Bidders balance too low\"\n            );\n            uint fee;\n            if(zns721 == address(auction.nftContract)){\n               fee = _percent(\n                currentBid.bidAmount,\n                addressNFTtoFee[address(auction.nftContract)],\n                2\n              );\n            } else {\n               fee = _percent(\n                currentBid.bidAmount,\n                znsIDtoFee[auction.nftId],\n                2\n              );\n\n            }\n            uint remainder = currentBid.bidAmount.sub(fee);\n\n            auction.bidERC20Contract.transferFrom(\n                currentBid.bidder,\n                auction.seller,\n                remainder\n            );\n            auction.bidERC20Contract.transferFrom(\n                currentBid.bidder,\n                addressNFTtoCreator[address(auction.nftContract)],\n                fee\n            );\n            auction.nftContract.safeTransferFrom(\n                auction.seller,\n                currentBid.bidder,\n                auction.nftId\n            );\n        }\n        openAuction[_auctionID] = false;\n\n    }\n\n    /**\n@notice cancel allows an NFT owner/ auction creator to cancle their auction\n@param _auctionID is the number representing the auction that is being cancled\n**/\n    function cancel(uint256 _auctionID) public {\n        require(openAuction[_auctionID], \"ERROR: Auction has ended\");\n        if (auctionIDtoType[_auctionID]) {\n            Auction1155 memory auction = idToAuction1155[_auctionID];\n            require(auction.seller == msg.sender);\n            delete idToAuction1155[_auctionID];\n        } else {\n            Auction721 memory auction = idToAuction721[_auctionID];\n            require(auction.seller == msg.sender);\n            delete idToAuction1155[_auctionID];\n        }\n        openAuction[_auctionID] = false;\n    }\n\n    /**\n@notice cancelBid allows a bidder to cancel their bid\n@param _auctionID is the number representing the auction that is being cancled\n@param _bidID is the number representing the users bid\n**/\n    function cancelBid(uint256 _auctionID, uint256 _bidID) public {\n        require(openAuction[_auctionID], \"ERROR: Auction has ended\");\n        if (auctionIDtoType[_auctionID]) {\n            Auction1155 storage auction = idToAuction1155[_auctionID];\n            require(auction.bids[_bidID].bidder == msg.sender);\n            delete auction.bids[_bidID];\n        } else {\n            Auction721 storage auction = idToAuction721[_auctionID];\n            require(auction.bids[_bidID].bidder == msg.sender);\n            delete auction.bids[_bidID];\n        }\n    }\n\n    /**\n@notice setCreatorFees allows the owner of an NFT contract OR the owner of a ZNS domain to\n        set a creator fee for all sales of their NFTs through the platform\n@param _ERC20FeeAdd is the address of the ERC20 contract NFT will be purchased in\n@param _NFTContractAdd is the address of the NFT contract they own\n@param _feePercentage is the percentage of a sale that will be collected in fee's\n@param _znsID is the ZNS ID for a ZNS domain\n@param _isZNS is a bool representing whether or not the NFT set is a ZNS domain\n**/\n    function setCreatorFees(\n        IERC20 _ERC20FeeAdd,\n        address _NFTContractAdd,\n        uint256 _feePercentage,\n        uint256 _znsID,\n        bool _isZNS\n    ) public {\n        if (_isZNS) {\n          require(msg.sender == znsRegistryContract.creatorOf(_znsID));\n          znsIDtoFee[_znsID] = _feePercentage;\n          znsIDtoAddressFeeERC20[_znsID] = _ERC20FeeAdd;\n          znsIDtoCreator[_znsID] = msg.sender;\n        } else {\n          Ownable nft = Ownable(_NFTContractAdd);\n          require(msg.sender == nft.owner());\n          addressNFTtoFee[_NFTContractAdd] = _feePercentage;\n          addressNFTtoAddressFeeERC20[_NFTContractAdd] = _ERC20FeeAdd;\n          addressNFTtoCreator[_NFTContractAdd] = msg.sender;\n        }\n    }\n\n    /**\n    @notice percent is an internal function used to calculate the ratio between a given numerator && denominator\n    @param _numerator is the numerator of the equation\n    @param _denominator is the denominator of the equation\n    @param _precision is a precision point to ensure that decimals dont trail outside what the EVM can handle\n    **/\n    function _percent(\n        uint256 _numerator,\n        uint256 _denominator,\n        uint256 _precision\n    ) internal pure returns (uint256 quotient) {\n        // caution, check safe-to-multiply here\n        uint256 numerator = _numerator * 10**(_precision + 1);\n        // with rounding of last digit\n        uint256 _quotient = ((numerator / _denominator) + 5) / 10;\n        return (_quotient);\n    }\n}\n",
  "sourcePath": "/home/stan36/repos/zer0/auction/contracts/ZAuction.sol",
  "compiler": {
    "name": "solc",
    "version": "0.6.6+commit.6c089d02.Emscripten.clang"
  },
  "schemaVersion": "3.3.2",
  "updatedAt": "2021-02-20T16:10:05.055Z",
  "networkType": "ethereum",
  "devdoc": {
    "methods": {
      "acceptBid(uint256,uint256)": {
        "details": "this function allows an NFT owner to accept ANY placed bid regardless of if it is the highest bid or not*",
        "params": {
          "_auctionID": "is the number representing the Auction where the bid is placed",
          "_bidID": "is the number representing the bid being accepted"
        }
      },
      "bid(uint256,uint256,string)": {
        "params": {
          "_IPFShash": "is an optional IPFS hash that allows a bidder to relay a message to the NFT owner*",
          "_auctionID": "is the number representing the ID of the auction being bid on",
          "_bidAmount": "is the ERC20 amount being placed as a bid for the auction"
        }
      },
      "cancel(uint256)": {
        "params": {
          "_auctionID": "is the number representing the auction that is being cancled*"
        }
      },
      "cancelBid(uint256,uint256)": {
        "params": {
          "_auctionID": "is the number representing the auction that is being cancled",
          "_bidID": "is the number representing the users bid*"
        }
      },
      "createAuction(address,address,uint256,uint256,uint256,bool,bytes)": {
        "params": {
          "_NFTcontract": "is the address of the NFT contract whos token is being auctioned",
          "_amount": "is an amount of NFTs to be transfered(1155 only, set to 0 if ERC721)",
          "_bidERC20": "is the address of the ERC20 contract this auction will be held in",
          "_callData": "is the relevant call data for the NFT if it is ERC1155(leave blank if ERC721)*",
          "_is1155": "is a bool representing whether or not the NFT being auctioned is ERC1155",
          "_startPrice": "is the starting price of the auction priced in the bid ERC20 token",
          "_tokenId": "is the ID of the NFT token(s) being auctioned"
        }
      },
      "onERC721Received(address,address,uint256,bytes)": {
        "details": "See {IERC721Receiver-onERC721Received}.     * Always returns `IERC721Receiver.onERC721Received.selector`."
      },
      "setCreatorFees(address,address,uint256,uint256,bool)": {
        "params": {
          "_ERC20FeeAdd": "is the address of the ERC20 contract NFT will be purchased in",
          "_NFTContractAdd": "is the address of the NFT contract they own",
          "_feePercentage": "is the percentage of a sale that will be collected in fee's",
          "_isZNS": "is a bool representing whether or not the NFT set is a ZNS domain*",
          "_znsID": "is the ZNS ID for a ZNS domain"
        }
      },
      "supportsInterface(bytes4)": {
        "details": "See {IERC165-supportsInterface}.     * Time complexity O(1), guaranteed to always use less than 30 000 gas."
      }
    }
  },
  "userdoc": {
    "methods": {
      "acceptBid(uint256,uint256)": {
        "notice": "acceptBid allows an NFT owner/auctioner to accept a placed bid"
      },
      "bid(uint256,uint256,string)": {
        "notice": "bid allows any user to bid on an auction"
      },
      "cancel(uint256)": {
        "notice": "cancel allows an NFT owner/ auction creator to cancle their auction"
      },
      "cancelBid(uint256,uint256)": {
        "notice": "cancelBid allows a bidder to cancel their bid"
      },
      "createAuction(address,address,uint256,uint256,uint256,bool,bytes)": {
        "notice": "createAuction allows a NFT owner to create an auction for both a 721 and 1155 NFT"
      },
      "setCreatorFees(address,address,uint256,uint256,bool)": {
        "notice": "setCreatorFees allows the owner of an NFT contract OR the owner of a ZNS domain to set a creator fee for all sales of their NFTs through the platform"
      }
    }
  }
}