{
  "contractName": "ZAuction",
  "abi": [
    {
      "inputs": [
        {
          "internalType": "contract IZNS",
          "name": "_znsRegAdd",
          "type": "address"
        },
        {
          "internalType": "address",
          "name": "_ZND721",
          "type": "address"
        }
      ],
      "stateMutability": "nonpayable",
      "type": "constructor"
    },
    {
      "anonymous": false,
      "inputs": [
        {
          "indexed": false,
          "internalType": "uint256",
          "name": "AuctionID",
          "type": "uint256"
        }
      ],
      "name": "AuctionCancled",
      "type": "event"
    },
    {
      "anonymous": false,
      "inputs": [
        {
          "indexed": false,
          "internalType": "address",
          "name": "NFTcontract",
          "type": "address"
        },
        {
          "indexed": false,
          "internalType": "address",
          "name": "ERC20BidContract",
          "type": "address"
        },
        {
          "indexed": false,
          "internalType": "uint256",
          "name": "TokenID",
          "type": "uint256"
        },
        {
          "indexed": false,
          "internalType": "uint256",
          "name": "StartPrice",
          "type": "uint256"
        },
        {
          "indexed": false,
          "internalType": "uint256",
          "name": "Amount",
          "type": "uint256"
        },
        {
          "indexed": false,
          "internalType": "bool",
          "name": "Is1155",
          "type": "bool"
        },
        {
          "indexed": false,
          "internalType": "bool",
          "name": "IsZNS",
          "type": "bool"
        }
      ],
      "name": "AuctionCreated",
      "type": "event"
    },
    {
      "anonymous": false,
      "inputs": [
        {
          "indexed": false,
          "internalType": "uint256",
          "name": "AuctionID",
          "type": "uint256"
        },
        {
          "indexed": false,
          "internalType": "uint256",
          "name": "BidID",
          "type": "uint256"
        }
      ],
      "name": "BidAccepted",
      "type": "event"
    },
    {
      "anonymous": false,
      "inputs": [
        {
          "indexed": false,
          "internalType": "uint256",
          "name": "AuctionID",
          "type": "uint256"
        },
        {
          "indexed": false,
          "internalType": "uint256",
          "name": "BidID",
          "type": "uint256"
        }
      ],
      "name": "BidCancled",
      "type": "event"
    },
    {
      "anonymous": false,
      "inputs": [
        {
          "indexed": false,
          "internalType": "uint256",
          "name": "AuctionID",
          "type": "uint256"
        },
        {
          "indexed": false,
          "internalType": "uint256",
          "name": "BidAmount",
          "type": "uint256"
        }
      ],
      "name": "BidPlaced",
      "type": "event"
    },
    {
      "anonymous": false,
      "inputs": [
        {
          "indexed": false,
          "internalType": "address",
          "name": "ERC20",
          "type": "address"
        },
        {
          "indexed": false,
          "internalType": "address",
          "name": "NFTcontract",
          "type": "address"
        },
        {
          "indexed": false,
          "internalType": "uint256",
          "name": "feePercent",
          "type": "uint256"
        },
        {
          "indexed": false,
          "internalType": "bool",
          "name": "IsZNS",
          "type": "bool"
        }
      ],
      "name": "CreatorsFeeSet",
      "type": "event"
    },
    {
      "inputs": [
        {
          "internalType": "address",
          "name": "",
          "type": "address"
        }
      ],
      "name": "addressNFTtoAddressFeeERC20",
      "outputs": [
        {
          "internalType": "contract IERC20",
          "name": "",
          "type": "address"
        }
      ],
      "stateMutability": "view",
      "type": "function"
    },
    {
      "inputs": [
        {
          "internalType": "address",
          "name": "",
          "type": "address"
        }
      ],
      "name": "addressNFTtoCreator",
      "outputs": [
        {
          "internalType": "address",
          "name": "",
          "type": "address"
        }
      ],
      "stateMutability": "view",
      "type": "function"
    },
    {
      "inputs": [
        {
          "internalType": "address",
          "name": "",
          "type": "address"
        }
      ],
      "name": "addressNFTtoFee",
      "outputs": [
        {
          "internalType": "uint256",
          "name": "",
          "type": "uint256"
        }
      ],
      "stateMutability": "view",
      "type": "function"
    },
    {
      "inputs": [],
      "name": "auctionID",
      "outputs": [
        {
          "internalType": "uint256",
          "name": "",
          "type": "uint256"
        }
      ],
      "stateMutability": "view",
      "type": "function"
    },
    {
      "inputs": [
        {
          "internalType": "uint256",
          "name": "",
          "type": "uint256"
        }
      ],
      "name": "auctionIDtoType",
      "outputs": [
        {
          "internalType": "bool",
          "name": "",
          "type": "bool"
        }
      ],
      "stateMutability": "view",
      "type": "function"
    },
    {
      "inputs": [
        {
          "internalType": "uint256",
          "name": "",
          "type": "uint256"
        }
      ],
      "name": "idToAuction1155",
      "outputs": [
        {
          "internalType": "contract IERC1155",
          "name": "nftContract",
          "type": "address"
        },
        {
          "internalType": "contract IERC20",
          "name": "bidERC20Contract",
          "type": "address"
        },
        {
          "internalType": "address",
          "name": "seller",
          "type": "address"
        },
        {
          "internalType": "address",
          "name": "highestBidder",
          "type": "address"
        },
        {
          "internalType": "uint256",
          "name": "highestBid",
          "type": "uint256"
        },
        {
          "internalType": "uint256",
          "name": "nftId",
          "type": "uint256"
        },
        {
          "internalType": "uint256",
          "name": "startPrice",
          "type": "uint256"
        },
        {
          "internalType": "uint256",
          "name": "bidID",
          "type": "uint256"
        },
        {
          "internalType": "uint256",
          "name": "amount",
          "type": "uint256"
        },
        {
          "internalType": "bytes",
          "name": "callData",
          "type": "bytes"
        }
      ],
      "stateMutability": "view",
      "type": "function"
    },
    {
      "inputs": [
        {
          "internalType": "uint256",
          "name": "",
          "type": "uint256"
        }
      ],
      "name": "idToAuction721",
      "outputs": [
        {
          "internalType": "contract IERC721",
          "name": "nftContract",
          "type": "address"
        },
        {
          "internalType": "contract IERC20",
          "name": "bidERC20Contract",
          "type": "address"
        },
        {
          "internalType": "address",
          "name": "seller",
          "type": "address"
        },
        {
          "internalType": "address",
          "name": "highestBidder",
          "type": "address"
        },
        {
          "internalType": "uint256",
          "name": "highestBid",
          "type": "uint256"
        },
        {
          "internalType": "uint256",
          "name": "nftId",
          "type": "uint256"
        },
        {
          "internalType": "uint256",
          "name": "startPrice",
          "type": "uint256"
        },
        {
          "internalType": "uint256",
          "name": "bidID",
          "type": "uint256"
        },
        {
          "internalType": "bool",
          "name": "isZNS",
          "type": "bool"
        }
      ],
      "stateMutability": "view",
      "type": "function"
    },
    {
      "inputs": [
        {
          "internalType": "address",
          "name": "",
          "type": "address"
        },
        {
          "internalType": "address",
          "name": "",
          "type": "address"
        },
        {
          "internalType": "uint256[]",
          "name": "",
          "type": "uint256[]"
        },
        {
          "internalType": "uint256[]",
          "name": "",
          "type": "uint256[]"
        },
        {
          "internalType": "bytes",
          "name": "",
          "type": "bytes"
        }
      ],
      "name": "onERC1155BatchReceived",
      "outputs": [
        {
          "internalType": "bytes4",
          "name": "",
          "type": "bytes4"
        }
      ],
      "stateMutability": "nonpayable",
      "type": "function"
    },
    {
      "inputs": [
        {
          "internalType": "address",
          "name": "",
          "type": "address"
        },
        {
          "internalType": "address",
          "name": "",
          "type": "address"
        },
        {
          "internalType": "uint256",
          "name": "",
          "type": "uint256"
        },
        {
          "internalType": "uint256",
          "name": "",
          "type": "uint256"
        },
        {
          "internalType": "bytes",
          "name": "",
          "type": "bytes"
        }
      ],
      "name": "onERC1155Received",
      "outputs": [
        {
          "internalType": "bytes4",
          "name": "",
          "type": "bytes4"
        }
      ],
      "stateMutability": "nonpayable",
      "type": "function"
    },
    {
      "inputs": [
        {
          "internalType": "address",
          "name": "",
          "type": "address"
        },
        {
          "internalType": "address",
          "name": "",
          "type": "address"
        },
        {
          "internalType": "uint256",
          "name": "",
          "type": "uint256"
        },
        {
          "internalType": "bytes",
          "name": "",
          "type": "bytes"
        }
      ],
      "name": "onERC721Received",
      "outputs": [
        {
          "internalType": "bytes4",
          "name": "",
          "type": "bytes4"
        }
      ],
      "stateMutability": "nonpayable",
      "type": "function"
    },
    {
      "inputs": [
        {
          "internalType": "uint256",
          "name": "",
          "type": "uint256"
        }
      ],
      "name": "openAuction",
      "outputs": [
        {
          "internalType": "bool",
          "name": "",
          "type": "bool"
        }
      ],
      "stateMutability": "view",
      "type": "function"
    },
    {
      "inputs": [
        {
          "internalType": "bytes4",
          "name": "interfaceId",
          "type": "bytes4"
        }
      ],
      "name": "supportsInterface",
      "outputs": [
        {
          "internalType": "bool",
          "name": "",
          "type": "bool"
        }
      ],
      "stateMutability": "view",
      "type": "function"
    },
    {
      "inputs": [],
      "name": "zns721",
      "outputs": [
        {
          "internalType": "address",
          "name": "",
          "type": "address"
        }
      ],
      "stateMutability": "view",
      "type": "function"
    },
    {
      "inputs": [
        {
          "internalType": "uint256",
          "name": "",
          "type": "uint256"
        }
      ],
      "name": "znsIDtoAddressFeeERC20",
      "outputs": [
        {
          "internalType": "contract IERC20",
          "name": "",
          "type": "address"
        }
      ],
      "stateMutability": "view",
      "type": "function"
    },
    {
      "inputs": [
        {
          "internalType": "uint256",
          "name": "",
          "type": "uint256"
        }
      ],
      "name": "znsIDtoCreator",
      "outputs": [
        {
          "internalType": "address",
          "name": "",
          "type": "address"
        }
      ],
      "stateMutability": "view",
      "type": "function"
    },
    {
      "inputs": [
        {
          "internalType": "uint256",
          "name": "",
          "type": "uint256"
        }
      ],
      "name": "znsIDtoFee",
      "outputs": [
        {
          "internalType": "uint256",
          "name": "",
          "type": "uint256"
        }
      ],
      "stateMutability": "view",
      "type": "function"
    },
    {
      "inputs": [],
      "name": "znsRegistryContract",
      "outputs": [
        {
          "internalType": "contract IZNS",
          "name": "",
          "type": "address"
        }
      ],
      "stateMutability": "view",
      "type": "function"
    },
    {
      "inputs": [
        {
          "internalType": "address",
          "name": "_NFTcontract",
          "type": "address"
        },
        {
          "internalType": "contract IERC20",
          "name": "_bidERC20",
          "type": "address"
        },
        {
          "internalType": "uint256",
          "name": "_tokenId",
          "type": "uint256"
        },
        {
          "internalType": "uint256",
          "name": "_startPrice",
          "type": "uint256"
        },
        {
          "internalType": "uint256",
          "name": "_amount",
          "type": "uint256"
        },
        {
          "internalType": "bool",
          "name": "_is1155",
          "type": "bool"
        },
        {
          "internalType": "bool",
          "name": "_isZNS",
          "type": "bool"
        },
        {
          "internalType": "bytes",
          "name": "_callData",
          "type": "bytes"
        }
      ],
      "name": "createAuction",
      "outputs": [],
      "stateMutability": "nonpayable",
      "type": "function"
    },
    {
      "inputs": [
        {
          "internalType": "uint256",
          "name": "_auctionID",
          "type": "uint256"
        },
        {
          "internalType": "uint256",
          "name": "_bidAmount",
          "type": "uint256"
        },
        {
          "internalType": "string",
          "name": "_IPFShash",
          "type": "string"
        }
      ],
      "name": "bid",
      "outputs": [],
      "stateMutability": "nonpayable",
      "type": "function"
    },
    {
      "inputs": [
        {
          "internalType": "uint256",
          "name": "_auctionID",
          "type": "uint256"
        },
        {
          "internalType": "uint256",
          "name": "_bidID",
          "type": "uint256"
        }
      ],
      "name": "acceptBid",
      "outputs": [],
      "stateMutability": "nonpayable",
      "type": "function"
    },
    {
      "inputs": [
        {
          "internalType": "uint256",
          "name": "_auctionID",
          "type": "uint256"
        }
      ],
      "name": "cancel",
      "outputs": [],
      "stateMutability": "nonpayable",
      "type": "function"
    },
    {
      "inputs": [
        {
          "internalType": "uint256",
          "name": "_auctionID",
          "type": "uint256"
        },
        {
          "internalType": "uint256",
          "name": "_bidID",
          "type": "uint256"
        }
      ],
      "name": "cancelBid",
      "outputs": [],
      "stateMutability": "nonpayable",
      "type": "function"
    },
    {
      "inputs": [
        {
          "internalType": "contract IERC20",
          "name": "_ERC20FeeAdd",
          "type": "address"
        },
        {
          "internalType": "address",
          "name": "_NFTContractAdd",
          "type": "address"
        },
        {
          "internalType": "uint256",
          "name": "_feePercentage",
          "type": "uint256"
        },
        {
          "internalType": "uint256",
          "name": "_znsID",
          "type": "uint256"
        },
        {
          "internalType": "bool",
          "name": "_isZNS",
          "type": "bool"
        }
      ],
      "name": "setCreatorFees",
      "outputs": [],
      "stateMutability": "nonpayable",
      "type": "function"
    },
    {
      "inputs": [
        {
          "internalType": "uint256",
          "name": "_auctionID",
          "type": "uint256"
        },
        {
          "internalType": "uint256",
          "name": "_bidID",
          "type": "uint256"
        }
      ],
      "name": "viewBid",
      "outputs": [
        {
          "components": [
            {
              "internalType": "address",
              "name": "bidder",
              "type": "address"
            },
            {
              "internalType": "uint256",
              "name": "bidAmount",
              "type": "uint256"
            },
            {
              "internalType": "bool",
              "name": "bidApproved",
              "type": "bool"
            },
            {
              "internalType": "string",
              "name": "IPFShash",
              "type": "string"
            }
          ],
          "internalType": "struct ZAuction.BidInfo",
          "name": "",
          "type": "tuple"
        }
      ],
      "stateMutability": "view",
      "type": "function"
    },
    {
      "inputs": [
        {
          "internalType": "uint256",
          "name": "_numerator",
          "type": "uint256"
        },
        {
          "internalType": "uint256",
          "name": "_denominator",
          "type": "uint256"
        },
        {
          "internalType": "uint256",
          "name": "_precision",
          "type": "uint256"
        }
      ],
      "name": "_percent",
      "outputs": [
        {
          "internalType": "uint256",
          "name": "quotient",
          "type": "uint256"
        }
      ],
      "stateMutability": "pure",
      "type": "function"
    }
  ],
  "bytecode": "0x60806040523480156200001157600080fd5b5060405162002e3b38038062002e3b8339810160408190526200003491620000f7565b6200004f6301ffc9a760e01b6001600160e01b036200009c16565b6200006a630271189760e51b6001600160e01b036200009c16565b600280546001600160a01b039384166001600160a01b0319918216179091556003805492909316911617905562000185565b6001600160e01b03198082161415620000d25760405162461bcd60e51b8152600401620000c99062000135565b60405180910390fd5b6001600160e01b0319166000908152602081905260409020805460ff19166001179055565b600080604083850312156200010a578182fd5b825162000117816200016c565b60208401519092506200012a816200016c565b809150509250929050565b6020808252601c908201527f4552433136353a20696e76616c696420696e7465726661636520696400000000604082015260600190565b6001600160a01b03811681146200018257600080fd5b50565b612ca680620001956000396000f3fe608060405234801561001057600080fd5b50600436106101735760003560e01c80636a29646e116100de578063d075a59411610097578063f281c38611610071578063f281c3861461035b578063f7545f031461036e578063fa6062be14610381578063fe7127f9146103a157610173565b8063d075a59414610322578063d2aaf1bf14610335578063f23a6e611461034857610173565b80636a29646e146102bb57806376d4fc57146102ce5780637735705f146102e1578063bc197c81146102f4578063bebadcf214610307578063bf683c121461030f57610173565b806327047e881161013057806327047e88146102325780632d07091f1461025a5780633c4799e61461026f57806340e58ee5146102825780634b393605146102955780635aa2c836146102a857610173565b806301ffc9a71461017857806302e9d5e4146101a1578063150b7a02146101b657806318b3fce0146101d65780631de96983146101ff5780631edc8f911461021f575b600080fd5b61018b6101863660046126d5565b6103a9565b60405161019891906129e3565b60405180910390f35b6101b46101af36600461278b565b6103c8565b005b6101c96101c4366004612545565b610cbb565b60405161019891906129ee565b6101e96101e436600461275b565b610ccb565b6040516101989a99989796959493929190612a03565b61021261020d36600461275b565b610db8565b6040516101989190612870565b61018b61022d36600461275b565b610dd3565b61024561024036600461275b565b610de8565b60405161019899989796959493929190612a70565b610262610e48565b6040516101989190612c03565b61026261027d36600461275b565b610e4e565b6101b461029036600461275b565b610e60565b6101b46102a336600461278b565b6111c4565b6101b46102b6366004612616565b61132a565b6101b46102c93660046126fd565b611aac565b6101b46102dc3660046127ac565b611cbf565b6102126102ef36600461275b565b611edc565b6101c961030236600461249b565b611ef7565b610212611f08565b61018b61031d36600461275b565b611f17565b61021261033036600461245c565b611f2c565b61021261034336600461245c565b611f47565b6101c96103563660046125af565b611f62565b6102626103693660046127fa565b611f73565b61026261037c36600461245c565b611fa4565b61039461038f36600461278b565b611fb6565b6040516101989190612bb8565b610212612171565b6001600160e01b03191660009081526020819052604090205460ff1690565b60008281526004602052604090205460ff166103ff5760405162461bcd60e51b81526004016103f690612b13565b60405180910390fd5b60008281526005602052604090205460ff161561081a57600082815260076020526040902061042c6121a8565b6000838152600a83016020908152604091829020825160808101845281546001600160a01b031681526001808301548285015260028084015460ff1615158387015260038401805487516101009482161594909402600019011691909104601f8101869004860283018601909652858252919492936060860193919291908301828280156104fb5780601f106104d0576101008083540402835291602001916104fb565b820191906000526020600020905b8154815290600101906020018083116104de57829003601f168201915b5050509190925250505060028301549091506001600160a01b031633146105345760405162461bcd60e51b81526004016103f690612ac3565b6020810151600183015482516040516370a0823160e01b81526001600160a01b03909216916370a082319161056b91600401612870565b60206040518083038186803b15801561058357600080fd5b505afa158015610597573d6000803e3d6000fd5b505050506040513d601f19601f820116820180604052508101906105bb9190612773565b10156105d95760405162461bcd60e51b81526004016103f690612b4a565b81546001600160a01b0316600090815260086020526040812054156106285760208083015184546001600160a01b03166000908152600890925260409091205461062591906002611f73565b90505b6020820151600090610640908363ffffffff61218016565b6001850154845160028701546040516323b872dd60e01b81529394506001600160a01b03928316936323b872dd9361067f93921690869060040161289d565b602060405180830381600087803b15801561069957600080fd5b505af11580156106ad573d6000803e3d6000fd5b505050506040513d601f19601f820116820180604052508101906106d191906126b9565b5083546001600160a01b039081166000908152600c60205260409020541615610795576001840154835185546001600160a01b039081166000908152600c6020526040908190205490516323b872dd60e01b8152938216936323b872dd936107419390921690879060040161289d565b602060405180830381600087803b15801561075b57600080fd5b505af115801561076f573d6000803e3d6000fd5b505050506040513d601f19601f8201168201806040525081019061079391906126b9565b505b83546002850154845160058701546008880154604051637921219560e11b81526001600160a01b039586169563f242432a956107df959116939092909160098c01906004016128ea565b600060405180830381600087803b1580156107f957600080fd5b505af115801561080d573d6000803e3d6000fd5b5050505050505050610c67565b60008281526006602052604090206108306121a8565b6000838152600983016020908152604091829020825160808101845281546001600160a01b031681526001808301548285015260028084015460ff1615158387015260038401805487516101009482161594909402600019011691909104601f8101869004860283018601909652858252919492936060860193919291908301828280156108ff5780601f106108d4576101008083540402835291602001916108ff565b820191906000526020600020905b8154815290600101906020018083116108e257829003601f168201915b5050509190925250505060028301549091506001600160a01b031633146109385760405162461bcd60e51b81526004016103f690612ac3565b6020810151600183015482516040516370a0823160e01b81526001600160a01b03909216916370a082319161096f91600401612870565b60206040518083038186803b15801561098757600080fd5b505afa15801561099b573d6000803e3d6000fd5b505050506040513d601f19601f820116820180604052508101906109bf9190612773565b10156109dd5760405162461bcd60e51b81526004016103f690612b4a565b81546001600160a01b0316600090815260086020526040812054151580610a165750600583015460009081526009602052604090205415155b15610a8557600883015460ff16610a5b5760208083015184546001600160a01b031660009081526008909252604090912054610a5491906001611f73565b9050610a85565b610a8282602001516009600086600501548152602001908152602001600020546001611f73565b90505b6020820151600090610a9d908363ffffffff61218016565b6001850154845160028701546040516323b872dd60e01b81529394506001600160a01b03928316936323b872dd93610adc93921690869060040161289d565b602060405180830381600087803b158015610af657600080fd5b505af1158015610b0a573d6000803e3d6000fd5b505050506040513d601f19601f82011682018060405250810190610b2e91906126b9565b5083546001600160a01b039081166000908152600c60205260409020541615610bf2576001840154835185546001600160a01b039081166000908152600c6020526040908190205490516323b872dd60e01b8152938216936323b872dd93610b9e9390921690879060040161289d565b602060405180830381600087803b158015610bb857600080fd5b505af1158015610bcc573d6000803e3d6000fd5b505050506040513d601f19601f82011682018060405250810190610bf091906126b9565b505b8354600285015484516005870154604051632142170760e11b81526001600160a01b03948516946342842e0e94610c3094911692909160040161289d565b600060405180830381600087803b158015610c4a57600080fd5b505af1158015610c5e573d6000803e3d6000fd5b50505050505050505b60008281526004602052604090819020805460ff19169055517feeb046b305fcff3538cfdefcb3ce223663ef84836df9830a1de00bc00817631e90610caf9084908490612c0c565b60405180910390a15050565b630a85bd0160e11b949350505050565b600760208181526000928352604092839020805460018083015460028085015460038601546004870154600588015460068901549a89015460088a015460098b0180548f516101009b8216159b909b02600019011697909704601f81018d90048d028a018d01909e528d89526001600160a01b03998a169d978a169c958a169b999094169992989197949690959394929391830182828015610dae5780601f10610d8357610100808354040283529160200191610dae565b820191906000526020600020905b815481529060010190602001808311610d9157829003601f168201915b505050505090508a565b600d602052600090815260409020546001600160a01b031681565b60046020526000908152604090205460ff1681565b60066020819052600091825260409091208054600182015460028301546003840154600485015460058601549686015460078701546008909701546001600160a01b03968716989587169794871696909316949193919290919060ff1689565b60015481565b60096020526000908152604090205481565b60008181526004602052604090205460ff16610e8e5760405162461bcd60e51b81526004016103f690612b13565b60008181526005602052604090205460ff161561106157610ead6121ce565b60008281526007602081815260409283902083516101408101855281546001600160a01b0390811682526001808401548216838601526002808501548316848901526003850154909216606084015260048401546080840152600584015460a0840152600684015460c08401529483015460e08301526008830154610100808401919091526009840180548851978116159092026000190190911691909104601f810185900485028601850190965285855290949193610120860193909290830182828015610fbd5780601f10610f9257610100808354040283529160200191610fbd565b820191906000526020600020905b815481529060010190602001808311610fa057829003601f168201915b5050505050815250509050336001600160a01b031681604001516001600160a01b031614610fea57600080fd5b6000828152600760208190526040822080546001600160a01b031990811682556001820180548216905560028201805482169055600382018054909116905560048101839055600581018390556006810183905590810182905560088101829055906110596009830182612245565b505050611173565b61106961228c565b5060008181526006602081815260409283902083516101208101855281546001600160a01b0390811682526001830154811693820193909352600282015483169481018590526003820154909216606083015260048101546080830152600581015460a08301529182015460c0820152600782015460e082015260089091015460ff16151561010082015290331461110057600080fd5b6000828152600760208190526040822080546001600160a01b0319908116825560018201805482169055600282018054821690556003820180549091169055600481018390556005810183905560068101839055908101829055600881018290559061116f6009830182612245565b5050505b60008181526004602052604090819020805460ff19169055517f69adda5bfa80a183741a3f2ce8fc0efa0b0297e13f5b07aaf73ce3b915bb455f906111b9908390612c03565b60405180910390a150565b60008281526004602052604090205460ff166111f25760405162461bcd60e51b81526004016103f690612b13565b60008281526005602052604090205460ff1615611283576000828152600760209081526040808320848452600a8101909252909120546001600160a01b0316331461123c57600080fd5b6000828152600a82016020526040812080546001600160a01b03191681556001810182905560028101805460ff191690559061127b6003830182612245565b5050506112f9565b600082815260066020908152604080832084845260098101909252909120546001600160a01b031633146112b657600080fd5b6000828152600982016020526040812080546001600160a01b03191681556001810182905560028101805460ff19169055906112f56003830182612245565b5050505b7f5e19126cfb197b34e822c3e621127657c6f623c4c8e24bbb1ed8ef61ff76a1478282604051610caf929190612c0c565b6001805481019055821561165d576001600160a01b038089166000908152600a602052604090205489911615611383576001600160a01b038981166000908152600a602052604090205481169089161461138357600080fd5b604051627eeac760e11b81526001906001600160a01b0383169062fdd58e906113b29033908c90600401612884565b60206040518083038186803b1580156113ca57600080fd5b505afa1580156113de573d6000803e3d6000fd5b505050506040513d601f19601f820116820180604052508101906114029190612773565b101561140d57600080fd5b6114156121ce565b6001805460009081526007602081815260409283902083516101408101855281546001600160a01b039081168252828701548116828501526002808401548216838801526003840154909116606083015260048301546080830152600583015460a0830152600683015460c08301529382015460e08201526008820154610100808301919091526009830180548751988116159092026000190190911694909404601f810184900484028701840190955284865294909361012086019391928301828280156115255780601f106114fa57610100808354040283529160200191611525565b820191906000526020600020905b81548152906001019060200180831161150857829003601f168201915b505050919092525050506001600160a01b0383811682523360408084019182528c8316602080860191825260c086018d815260a087018f815261010088018e815261012089018c815260018054600090815260078088529890208b5181546001600160a01b0319908116918d16919091178255975191810180548916928c169290921790915597516002890180548816918b1691909117905560608a01516003890180549097169916989098179094556080880151600487015551600586015551600685015560e086015192840192909255516008830155915180519394508493919261161a926009850192909101906122d8565b5050600180546000908152600460209081526040808320805460ff1990811686179091558454845260059092529091208054909116909117905550611a5f915050565b6040516331a9108f60e11b815288906001600160a01b03821690636352211e9061168b908a90600401612c03565b60206040518083038186803b1580156116a357600080fd5b505afa1580156116b7573d6000803e3d6000fd5b505050506040513d601f19601f820116820180604052508101906116db919061247f565b6001600160a01b0316336001600160a01b0316146116f857600080fd5b6001600160a01b038981166000908152600a60205260409020541615611741576001600160a01b038981166000908152600a602052604090205481169089161461174157600080fd5b61174961228c565b600660006001548152602001908152602001600020604051806101200160405290816000820160009054906101000a90046001600160a01b03166001600160a01b03166001600160a01b031681526020016001820160009054906101000a90046001600160a01b03166001600160a01b03166001600160a01b031681526020016002820160009054906101000a90046001600160a01b03166001600160a01b03166001600160a01b031681526020016003820160009054906101000a90046001600160a01b03166001600160a01b03166001600160a01b03168152602001600482015481526020016005820154815260200160068201548152602001600782015481526020016008820160009054906101000a900460ff16151515158152505090508181600001906001600160a01b031690816001600160a01b0316815250503381604001906001600160a01b031690816001600160a01b0316815250508881602001906001600160a01b031690816001600160a01b031681525050868160c0018181525050878160a001818152505083816101000190151590811515815250508060066000600154815260200190815260200160002060008201518160000160006101000a8154816001600160a01b0302191690836001600160a01b0316021790555060208201518160010160006101000a8154816001600160a01b0302191690836001600160a01b0316021790555060408201518160020160006101000a8154816001600160a01b0302191690836001600160a01b0316021790555060608201518160030160006101000a8154816001600160a01b0302191690836001600160a01b031602179055506080820151816004015560a0820151816005015560c0820151816006015560e082015181600701556101008201518160080160006101000a81548160ff021916908315150217905550905050600160046000600154815260200190815260200160002060006101000a81548160ff021916908315150217905550600060056000600154815260200190815260200160002060006101000a81548160ff02191690831515021790555050505b7f7662db19cc3897f703d126d56f2a9037e1f5c6c473c6f1a093d048f58e5996cc88888888888888604051611a9a97969594939291906129a3565b60405180910390a15050505050505050565b8015611b9c5760025460405163589a174360e01b81526001600160a01b039091169063589a174390611ae2908590600401612c03565b60206040518083038186803b158015611afa57600080fd5b505afa158015611b0e573d6000803e3d6000fd5b505050506040513d601f19601f82011682018060405250810190611b32919061247f565b6001600160a01b0316336001600160a01b031614611b4f57600080fd5b6000828152600960209081526040808320869055600b825280832080546001600160a01b038a166001600160a01b031991821617909155600d909252909120805490911633179055611c7b565b6000849050806001600160a01b0316638da5cb5b6040518163ffffffff1660e01b815260040160206040518083038186803b158015611bda57600080fd5b505afa158015611bee573d6000803e3d6000fd5b505050506040513d601f19601f82011682018060405250810190611c12919061247f565b6001600160a01b0316336001600160a01b031614611c2f57600080fd5b506001600160a01b038085166000908152600860209081526040808320879055600a82528083208054948a166001600160a01b0319958616179055600c90915290208054909116331790555b7f3537fff0e8b5a102c0fc6c959d1622ae76da58600f25b420780c57be13771f9285858584604051611cb094939291906128c1565b60405180910390a15050505050565b60008381526004602052604090205460ff16611ced5760405162461bcd60e51b81526004016103f690612b13565b60008381526005602052604090205460ff1615611dd3576000838152600760205260409020611d1a6121a8565b5060408051608081018252338152602080820186815260008385018181526060850188815260078801548352600a8801855295909120845181546001600160a01b0319166001600160a01b03909116178155915160018301555160028201805460ff191691151591909117905592518051929384939092611da29260038501929101906122d8565b50505060048201548410611dcc576003820180546001600160a01b03191633179055600482018490555b5050611e9e565b6000838152600660205260409020611de96121a8565b506040805160808101825233815260208082018681526000838501818152606085018881526007880154835260098801855295909120845181546001600160a01b0319166001600160a01b03909116178155915160018301555160028201805460ff191691151591909117905592518051929384939092611e719260038501929101906122d8565b50505060048201548410611e9b576003820180546001600160a01b03191633179055600482018490555b50505b7f0fc69407039e8ba8cdd517e2a4cae9dd19697b0a500ff37a2425c59ebc649b318383604051611ecf929190612c0c565b60405180910390a1505050565b600b602052600090815260409020546001600160a01b031681565b63bc197c8160e01b95945050505050565b6003546001600160a01b031681565b60056020526000908152604090205460ff1681565b600a602052600090815260409020546001600160a01b031681565b600c602052600090815260409020546001600160a01b031681565b63f23a6e6160e01b95945050505050565b60008082600101600a0a850290506000600a858381611f8e57fe5b0460050181611f9957fe5b049695505050505050565b60086020526000908152604090205481565b611fbe6121a8565b60008381526005602052604090205460ff16156120be576000838152600760209081526040808320858452600a8101835292819020815160808101835281546001600160a01b031681526001808301548286015260028084015460ff1615158386015260038401805486516101009482161594909402600019011691909104601f81018790048702830187019095528482529194929360608601939192918301828280156120ad5780601f10612082576101008083540402835291602001916120ad565b820191906000526020600020905b81548152906001019060200180831161209057829003601f168201915b50505050508152505091505061216b565b600083815260066020908152604080832085845260098101835292819020815160808101835281546001600160a01b031681526001808301548286015260028084015460ff1615158386015260038401805486516101009482161594909402600019011691909104601f81018790048702830187019095528482529194929360608601939192918301828280156120ad5780601f10612082576101008083540402835291602001916120ad565b92915050565b6002546001600160a01b031681565b6000828211156121a25760405162461bcd60e51b81526004016103f690612b81565b50900390565b604080516080810182526000808252602082018190529181019190915260608082015290565b60405180610140016040528060006001600160a01b0316815260200160006001600160a01b0316815260200160006001600160a01b0316815260200160006001600160a01b031681526020016000815260200160008152602001600081526020016000815260200160008152602001606081525090565b50805460018160011615610100020316600290046000825580601f1061226b5750612289565b601f0160209004906000526020600020908101906122899190612356565b50565b6040805161012081018252600080825260208201819052918101829052606081018290526080810182905260a0810182905260c0810182905260e0810182905261010081019190915290565b828054600181600116156101000203166002900490600052602060002090601f016020900481019282601f1061231957805160ff1916838001178555612346565b82800160010185558215612346579182015b8281111561234657825182559160200191906001019061232b565b50612352929150612356565b5090565b61237091905b80821115612352576000815560010161235c565b90565b600082601f830112612383578081fd5b813567ffffffffffffffff811115612399578182fd5b60208082026123a9828201612c1a565b838152935081840185830182870184018810156123c557600080fd5b600092505b848310156123e85780358252600192909201919083019083016123ca565b505050505092915050565b600082601f830112612403578081fd5b813567ffffffffffffffff811115612419578182fd5b61242c601f8201601f1916602001612c1a565b915080825283602082850101111561244357600080fd5b8060208401602084013760009082016020015292915050565b60006020828403121561246d578081fd5b813561247881612c4d565b9392505050565b600060208284031215612490578081fd5b815161247881612c4d565b600080600080600060a086880312156124b2578081fd5b85356124bd81612c4d565b945060208601356124cd81612c4d565b9350604086013567ffffffffffffffff808211156124e9578283fd5b6124f589838a01612373565b9450606088013591508082111561250a578283fd5b61251689838a01612373565b9350608088013591508082111561252b578283fd5b50612538888289016123f3565b9150509295509295909350565b6000806000806080858703121561255a578384fd5b843561256581612c4d565b9350602085013561257581612c4d565b925060408501359150606085013567ffffffffffffffff811115612597578182fd5b6125a3878288016123f3565b91505092959194509250565b600080600080600060a086880312156125c6578081fd5b85356125d181612c4d565b945060208601356125e181612c4d565b93506040860135925060608601359150608086013567ffffffffffffffff81111561260a578182fd5b612538888289016123f3565b600080600080600080600080610100898b031215612632578283fd5b883561263d81612c4d565b9750602089013561264d81612c4d565b965060408901359550606089013594506080890135935060a089013561267281612c62565b925060c089013561268281612c62565b915060e089013567ffffffffffffffff81111561269d578182fd5b6126a98b828c016123f3565b9150509295985092959890939650565b6000602082840312156126ca578081fd5b815161247881612c62565b6000602082840312156126e6578081fd5b81356001600160e01b031981168114612478578182fd5b600080600080600060a08688031215612714578081fd5b853561271f81612c4d565b9450602086013561272f81612c4d565b93506040860135925060608601359150608086013561274d81612c62565b809150509295509295909350565b60006020828403121561276c578081fd5b5035919050565b600060208284031215612784578081fd5b5051919050565b6000806040838503121561279d578182fd5b50508035926020909101359150565b6000806000606084860312156127c0578081fd5b8335925060208401359150604084013567ffffffffffffffff8111156127e4578182fd5b6127f0868287016123f3565b9150509250925092565b60008060006060848603121561280e578081fd5b505081359360208301359350604090920135919050565b60008151808452815b8181101561284a5760208185018101518683018201520161282e565b8181111561285b5782602083870101525b50601f01601f19169290920160200192915050565b6001600160a01b0391909116815260200190565b6001600160a01b03929092168252602082015260400190565b6001600160a01b039384168152919092166020820152604081019190915260600190565b6001600160a01b0394851681529290931660208301526040820152901515606082015260800190565b600060a0820160018060a01b03808916845260208189168186015287604086015286606086015260a060808601528391508554600180821660008114612937576001811461295757612992565b612947607f600285041687612c03565b60ff198416815284019450612992565b600283046129658188612c03565b61296e8b612c41565b895b8381101561298957815483820152908501908701612970565b91909101965050505b50929b9a5050505050505050505050565b6001600160a01b039788168152959096166020860152604085019390935260608401919091526080830152151560a082015290151560c082015260e00190565b901515815260200190565b6001600160e01b031991909116815260200190565b600061014060018060a01b03808e168452808d166020850152808c166040850152808b166060850152508860808401528760a08401528660c08401528560e08401528461010084015280610120840152612a5f81840185612825565b9d9c50505050505050505050505050565b6001600160a01b03998a16815297891660208901529588166040880152939096166060860152608085019190915260a084015260c083019390935260e08201929092529015156101008201526101200190565b60208082526030908201527f4552524f523a20596f7520617265206e6f7420746865206f776e6572206f662060408201526f3a3434b99027232a1020bab1ba34b7b760811b606082015260800190565b60208082526018908201527f4552524f523a2041756374696f6e2068617320656e6465640000000000000000604082015260600190565b60208082526017908201527f426964646572732062616c616e636520746f6f206c6f77000000000000000000604082015260600190565b6020808252601e908201527f536166654d6174683a207375627472616374696f6e206f766572666c6f770000604082015260600190565b60006020825260018060a01b038351166020830152602083015160408301526040830151151560608301526060830151608080840152612bfb60a0840182612825565b949350505050565b90815260200190565b918252602082015260400190565b60405181810167ffffffffffffffff81118282101715612c3957600080fd5b604052919050565b60009081526020902090565b6001600160a01b038116811461228957600080fd5b801515811461228957600080fdfea264697066735822122000c656d14b9d1218890fdc852614cbc1887a9dc19ebb18aa4a0b8c5ba82a496764736f6c63430006060033",
  "immutableReferences": {},
  "source": "pragma solidity ^0.6.6;\npragma experimental ABIEncoderV2;\n\nimport \"@openzeppelin/contracts/access/Ownable.sol\";\nimport \"@openzeppelin/contracts/math/SafeMath.sol\";\nimport \"@openzeppelin/contracts/token/ERC20/IERC20.sol\";\nimport \"@openzeppelin/contracts/token/ERC721/IERC721.sol\";\nimport \"@openzeppelin/contracts/token/ERC721/ERC721Holder.sol\";\nimport \"@openzeppelin/contracts/token/ERC1155/IERC1155.sol\";\nimport \"@openzeppelin/contracts/token/ERC1155/ERC1155Holder.sol\";\nimport \"./interfaces/IZNS.sol\";\n\ncontract ZAuction is ERC721Holder, ERC1155Holder {\n  using SafeMath for uint;\n    uint256 public auctionID;\n    IZNS public znsRegistryContract;\n    address public zns721;\n\n    mapping(uint256 => bool) public openAuction;\n    mapping(uint256 => bool) public auctionIDtoType;\n    mapping(uint256 => Auction721) public idToAuction721;\n    mapping(uint256 => Auction1155) public idToAuction1155;\n    mapping(address => uint256) public addressNFTtoFee;\n    mapping(uint256 => uint256) public znsIDtoFee;\n    mapping(address => IERC20) public addressNFTtoAddressFeeERC20;\n    mapping(uint256 => IERC20) public znsIDtoAddressFeeERC20;\n    mapping(address => address) public addressNFTtoCreator;\n    mapping(uint256 => address) public znsIDtoCreator;\n\n    struct Auction721 {\n        IERC721 nftContract;\n        IERC20 bidERC20Contract;\n        address seller;\n        address highestBidder;\n        uint256 highestBid;\n        uint256 nftId;\n        uint256 startPrice;\n        uint256 bidID;\n        bool isZNS;\n        mapping(uint256 => BidInfo) bids;\n    }\n\n    struct Auction1155 {\n        IERC1155 nftContract;\n        IERC20 bidERC20Contract;\n        address seller;\n        address highestBidder;\n        uint256 highestBid;\n        uint256 nftId;\n        uint256 startPrice;\n        uint256 bidID;\n        uint256 amount;\n        bytes callData;\n        mapping(uint256 => BidInfo) bids;\n    }\n\n    struct BidInfo {\n        address bidder;\n        uint256 bidAmount;\n        bool bidApproved;\n        string IPFShash;\n    }\n\n    event AuctionCreated(\n      address NFTcontract,\n      address ERC20BidContract,\n      uint256 TokenID,\n      uint256 StartPrice,\n      uint256 Amount,\n      bool Is1155,\n      bool IsZNS\n    );\n    event BidPlaced(uint256 AuctionID, uint256 BidAmount);\n    event BidAccepted(uint256 AuctionID, uint256 BidID);\n    event AuctionCancled(uint256 AuctionID);\n    event BidCancled(uint256 AuctionID, uint256 BidID);\n    event CreatorsFeeSet(address ERC20, address NFTcontract, uint256 feePercent, bool IsZNS);\n\n    constructor(IZNS _znsRegAdd, address _ZND721) public {\n        znsRegistryContract = _znsRegAdd;\n        zns721 = _ZND721;\n    }\n\n    /**\n@notice createAuction allows a NFT owner to create an auction for both a 721 and 1155 NFT\n@param _NFTcontract is the address of the NFT contract whos token is being auctioned\n@param _bidERC20 is the address of the ERC20 contract this auction will be held in\n@param _tokenId is the ID of the NFT token(s) being auctioned\n@param _startPrice is the starting price of the auction priced in the bid ERC20 token\n@param _amount is an amount of NFTs to be transfered(1155 only, set to 0 if ERC721)\n@param _is1155 is a bool representing whether or not the NFT being auctioned is ERC1155\n@param _callData is the relevant call data for the NFT if it is ERC1155(leave blank if ERC721)\n**/\n    function createAuction(\n        address _NFTcontract,\n        IERC20 _bidERC20,\n        uint256 _tokenId,\n        uint256 _startPrice,\n        uint256 _amount,\n        bool _is1155,\n        bool _isZNS,\n        bytes memory _callData\n    ) public {\n        auctionID++;\n        if (_is1155) {\n            IERC1155 nft = IERC1155(_NFTcontract);\n            if(address(addressNFTtoAddressFeeERC20[_NFTcontract]) != address(0)){\n              require(addressNFTtoAddressFeeERC20[_NFTcontract] == _bidERC20);\n            }\n            require(nft.balanceOf(msg.sender, _tokenId) >= 1);\n            Auction1155 memory auction = idToAuction1155[auctionID];\n            auction.nftContract = nft;\n            auction.seller = msg.sender;\n            auction.bidERC20Contract = _bidERC20;\n            auction.startPrice = _startPrice;\n            auction.nftId = _tokenId;\n            auction.amount = _amount;\n            auction.callData = _callData;\n\n            idToAuction1155[auctionID] = auction;\n            openAuction[auctionID] = true;\n            auctionIDtoType[auctionID] = true;\n        } else {\n            IERC721 nft = IERC721(_NFTcontract);\n            require(msg.sender == nft.ownerOf(_tokenId));\n            if(address(addressNFTtoAddressFeeERC20[_NFTcontract]) != address(0)){\n              require(addressNFTtoAddressFeeERC20[_NFTcontract] == _bidERC20);\n            }\n            Auction721 memory auction = idToAuction721[auctionID];\n            auction.nftContract = nft;\n            auction.seller = msg.sender;\n            auction.bidERC20Contract = _bidERC20;\n            auction.startPrice = _startPrice;\n            auction.nftId = _tokenId;\n            auction.isZNS = _isZNS;\n\n            idToAuction721[auctionID] = auction;\n            openAuction[auctionID] = true;\n            auctionIDtoType[auctionID] = false;\n        }\n        emit AuctionCreated(\n           _NFTcontract,\n         address(_bidERC20),\n         _tokenId,\n         _startPrice,\n         _amount,\n         _is1155,\n         _isZNS\n       );\n    }\n\n    /**\n@notice bid allows any user to bid on an auction\n@param _auctionID is the number representing the ID of the auction being bid on\n@param _bidAmount is the ERC20 amount being placed as a bid for the auction\n@param _IPFShash is an optional IPFS hash that allows a bidder to relay a message to the NFT owner\n**/\n    function bid(\n        uint256 _auctionID,\n        uint256 _bidAmount,\n        string memory _IPFShash\n    ) public {\n        require(openAuction[_auctionID], \"ERROR: Auction has ended\");\n        if (auctionIDtoType[_auctionID]) {\n            Auction1155 storage auction = idToAuction1155[_auctionID];\n            auction.bidID = auction.bidID++;\n\n            BidInfo memory currentBid =\n                BidInfo({\n                    bidder: msg.sender,\n                    bidAmount: _bidAmount,\n                    bidApproved: false,\n                    IPFShash: _IPFShash\n                });\n\n            auction.bids[auction.bidID] = currentBid;\n\n            if (_bidAmount >= auction.highestBid) {\n                auction.highestBidder = msg.sender;\n                auction.highestBid = _bidAmount;\n            }\n        } else {\n            Auction721 storage auction = idToAuction721[_auctionID];\n            auction.bidID = auction.bidID++;\n            BidInfo memory currentBid =\n                BidInfo({\n                    bidder: msg.sender,\n                    bidAmount: _bidAmount,\n                    bidApproved: false,\n                    IPFShash: _IPFShash\n                });\n\n            auction.bids[auction.bidID] = currentBid;\n            if (_bidAmount >= auction.highestBid) {\n                auction.highestBidder = msg.sender;\n                auction.highestBid = _bidAmount;\n            }\n        }\n        emit BidPlaced(_auctionID, _bidAmount);\n    }\n\n    /**\n@notice acceptBid allows an NFT owner/auctioner to accept a placed bid\n@param _auctionID is the number representing the Auction where the bid is placed\n@param _bidID is the number representing the bid being accepted\n@dev this function allows an NFT owner to accept ANY placed bid regardless of if it is the highest bid or not\n**/\n    function acceptBid(uint256 _auctionID, uint256 _bidID) public {\n        require(openAuction[_auctionID], \"ERROR: Auction has ended\");\n\n        if (auctionIDtoType[_auctionID]) {\n            Auction1155 storage auction = idToAuction1155[_auctionID];\n            BidInfo memory currentBid = auction.bids[_bidID];\n            require(\n                auction.seller == msg.sender,\n                \"ERROR: You are not the owner of this NFT Auction\"\n            );\n            require(\n                auction.bidERC20Contract.balanceOf(currentBid.bidder) >=\n                    currentBid.bidAmount,\n                \"Bidders balance too low\"\n            );\n            uint fee;\n            if(addressNFTtoFee[address(auction.nftContract)] != 0) {\n              fee = _percent(\n                currentBid.bidAmount,\n                addressNFTtoFee[address(auction.nftContract)],\n                2\n              );\n            }\n            uint remainder = currentBid.bidAmount.sub(fee);\n\n            auction.bidERC20Contract.transferFrom(\n                currentBid.bidder,\n                auction.seller,\n                remainder\n            );\n              if(addressNFTtoCreator[address(auction.nftContract)] != address(0)) {\n            auction.bidERC20Contract.transferFrom(\n                currentBid.bidder,\n                addressNFTtoCreator[address(auction.nftContract)],\n                fee\n            );\n          }\n            auction.nftContract.safeTransferFrom(\n                auction.seller,\n                currentBid.bidder,\n                auction.nftId,\n                auction.amount,\n                auction.callData\n            );\n        } else {\n            Auction721 storage auction = idToAuction721[_auctionID];\n            BidInfo memory currentBid = auction.bids[_bidID];\n            require(\n                auction.seller == msg.sender,\n                \"ERROR: You are not the owner of this NFT Auction\"\n            );\n            require(\n                auction.bidERC20Contract.balanceOf(currentBid.bidder) >=\n                    currentBid.bidAmount,\n                \"Bidders balance too low\"\n            );\n            uint fee;\n\n            if(addressNFTtoFee[address(auction.nftContract)] != 0\n          || znsIDtoFee[auction.nftId] != 0) {\n            if(!auction.isZNS){\n               fee =\n               _percent(\n                currentBid.bidAmount,\n                addressNFTtoFee[address(auction.nftContract)],\n                1\n              );\n            } else {\n               fee = _percent(\n                currentBid.bidAmount,\n                znsIDtoFee[auction.nftId],\n                1\n              );\n\n            }\n          }\n            uint remainder = currentBid.bidAmount.sub(fee);\n\n            auction.bidERC20Contract.transferFrom(\n                currentBid.bidder,\n                auction.seller,\n                remainder\n            );\n            if(addressNFTtoCreator[address(auction.nftContract)] != address(0)) {\n              auction.bidERC20Contract.transferFrom(\n                currentBid.bidder,\n                addressNFTtoCreator[address(auction.nftContract)],\n                fee\n              );\n            }\n            auction.nftContract.safeTransferFrom(\n                auction.seller,\n                currentBid.bidder,\n                auction.nftId\n            );\n        }\n        openAuction[_auctionID] = false;\n        emit BidAccepted( _auctionID,  _bidID);\n    }\n\n    /**\n@notice cancel allows an NFT owner/ auction creator to cancle their auction\n@param _auctionID is the number representing the auction that is being cancled\n**/\n    function cancel(uint256 _auctionID) public {\n        require(openAuction[_auctionID], \"ERROR: Auction has ended\");\n        if (auctionIDtoType[_auctionID]) {\n            Auction1155 memory auction = idToAuction1155[_auctionID];\n            require(auction.seller == msg.sender);\n            delete idToAuction1155[_auctionID];\n        } else {\n            Auction721 memory auction = idToAuction721[_auctionID];\n            require(auction.seller == msg.sender);\n            delete idToAuction1155[_auctionID];\n        }\n        openAuction[_auctionID] = false;\n        emit AuctionCancled(_auctionID);\n    }\n\n    /**\n@notice cancelBid allows a bidder to cancel their bid\n@param _auctionID is the number representing the auction that is being cancled\n@param _bidID is the number representing the users bid\n**/\n    function cancelBid(uint256 _auctionID, uint256 _bidID) public {\n        require(openAuction[_auctionID], \"ERROR: Auction has ended\");\n        if (auctionIDtoType[_auctionID]) {\n            Auction1155 storage auction = idToAuction1155[_auctionID];\n            require(auction.bids[_bidID].bidder == msg.sender);\n            delete auction.bids[_bidID];\n        } else {\n            Auction721 storage auction = idToAuction721[_auctionID];\n            require(auction.bids[_bidID].bidder == msg.sender);\n            delete auction.bids[_bidID];\n        }\n        emit BidCancled(_auctionID, _bidID);\n\n    }\n\n    /**\n@notice setCreatorFees allows the owner of an NFT contract OR the owner of a ZNS domain to\n        set a creator fee for all sales of their NFTs through the platform\n@param _ERC20FeeAdd is the address of the ERC20 contract NFT will be purchased in\n@param _NFTContractAdd is the address of the NFT contract they own\n@param _feePercentage is the percentage of a sale that will be collected in fee's\n@param _znsID is the ZNS ID for a ZNS domain\n@param _isZNS is a bool representing whether or not the NFT set is a ZNS domain\n**/\n    function setCreatorFees(\n        IERC20 _ERC20FeeAdd,\n        address _NFTContractAdd,\n        uint256 _feePercentage,\n        uint256 _znsID,\n        bool _isZNS\n    ) public {\n        if (_isZNS) {\n          require(msg.sender == znsRegistryContract.creatorOf(_znsID));\n          znsIDtoFee[_znsID] = _feePercentage;\n          znsIDtoAddressFeeERC20[_znsID] = _ERC20FeeAdd;\n          znsIDtoCreator[_znsID] = msg.sender;\n        } else {\n          Ownable nft = Ownable(_NFTContractAdd);\n          require(msg.sender == nft.owner());\n          addressNFTtoFee[_NFTContractAdd] = _feePercentage;\n          addressNFTtoAddressFeeERC20[_NFTContractAdd] = _ERC20FeeAdd;\n          addressNFTtoCreator[_NFTContractAdd] = msg.sender;\n        }\n        emit CreatorsFeeSet(address(_ERC20FeeAdd), _NFTContractAdd, _feePercentage, _isZNS);\n    }\n\n/**\n@notice viewBid allows for the front end to easily retreive a specific bids info\n@param _auctionID is the number representing the auction that is being cancled\n@param _bidID is the number representing the users bid\n**/\n    function viewBid(uint _auctionID, uint _bidID) public view returns(BidInfo memory) {\n      if(auctionIDtoType[_auctionID]){\n        Auction1155 storage auction = idToAuction1155[_auctionID];\n        return auction.bids[_bidID];\n    } else {\n        Auction721 storage auction = idToAuction721[_auctionID];\n        return auction.bids[_bidID];\n      }\n    }\n\n    /**\n    @notice percent is an internal function used to calculate the ratio between a given numerator && denominator\n    @param _numerator is the numerator of the equation\n    @param _denominator is the denominator of the equation\n    @param _precision is a precision point to ensure that decimals dont trail outside what the EVM can handle\n    **/\n    function _percent(\n        uint256 _numerator,\n        uint256 _denominator,\n        uint256 _precision\n    ) public pure returns (uint256 quotient) {\n        // caution, check safe-to-multiply here\n        uint256 numerator = _numerator * 10**(_precision + 1);\n        // with rounding of last digit\n        uint256 _quotient = ((numerator / _denominator) + 5) / 10;\n        return (_quotient);\n    }\n}\n",
  "sourcePath": "/home/stan36/repos/zer0/zAuction/contracts/ZAuction.sol",
  "compiler": {
    "name": "solc",
    "version": "0.6.6+commit.6c089d02.Emscripten.clang"
  },
  "schemaVersion": "3.3.2",
  "updatedAt": "2021-02-26T23:22:10.016Z",
  "devdoc": {
    "methods": {
      "_percent(uint256,uint256,uint256)": {
        "params": {
          "_denominator": "is the denominator of the equation",
          "_numerator": "is the numerator of the equation",
          "_precision": "is a precision point to ensure that decimals dont trail outside what the EVM can handle*"
        }
      },
      "acceptBid(uint256,uint256)": {
        "details": "this function allows an NFT owner to accept ANY placed bid regardless of if it is the highest bid or not*",
        "params": {
          "_auctionID": "is the number representing the Auction where the bid is placed",
          "_bidID": "is the number representing the bid being accepted"
        }
      },
      "bid(uint256,uint256,string)": {
        "params": {
          "_IPFShash": "is an optional IPFS hash that allows a bidder to relay a message to the NFT owner*",
          "_auctionID": "is the number representing the ID of the auction being bid on",
          "_bidAmount": "is the ERC20 amount being placed as a bid for the auction"
        }
      },
      "cancel(uint256)": {
        "params": {
          "_auctionID": "is the number representing the auction that is being cancled*"
        }
      },
      "cancelBid(uint256,uint256)": {
        "params": {
          "_auctionID": "is the number representing the auction that is being cancled",
          "_bidID": "is the number representing the users bid*"
        }
      },
      "createAuction(address,address,uint256,uint256,uint256,bool,bool,bytes)": {
        "params": {
          "_NFTcontract": "is the address of the NFT contract whos token is being auctioned",
          "_amount": "is an amount of NFTs to be transfered(1155 only, set to 0 if ERC721)",
          "_bidERC20": "is the address of the ERC20 contract this auction will be held in",
          "_callData": "is the relevant call data for the NFT if it is ERC1155(leave blank if ERC721)*",
          "_is1155": "is a bool representing whether or not the NFT being auctioned is ERC1155",
          "_startPrice": "is the starting price of the auction priced in the bid ERC20 token",
          "_tokenId": "is the ID of the NFT token(s) being auctioned"
        }
      },
      "onERC721Received(address,address,uint256,bytes)": {
        "details": "See {IERC721Receiver-onERC721Received}.     * Always returns `IERC721Receiver.onERC721Received.selector`."
      },
      "setCreatorFees(address,address,uint256,uint256,bool)": {
        "params": {
          "_ERC20FeeAdd": "is the address of the ERC20 contract NFT will be purchased in",
          "_NFTContractAdd": "is the address of the NFT contract they own",
          "_feePercentage": "is the percentage of a sale that will be collected in fee's",
          "_isZNS": "is a bool representing whether or not the NFT set is a ZNS domain*",
          "_znsID": "is the ZNS ID for a ZNS domain"
        }
      },
      "supportsInterface(bytes4)": {
        "details": "See {IERC165-supportsInterface}.     * Time complexity O(1), guaranteed to always use less than 30 000 gas."
      },
      "viewBid(uint256,uint256)": {
        "params": {
          "_auctionID": "is the number representing the auction that is being cancled",
          "_bidID": "is the number representing the users bid*"
        }
      }
    }
  },
  "userdoc": {
    "methods": {
      "_percent(uint256,uint256,uint256)": {
        "notice": "percent is an internal function used to calculate the ratio between a given numerator && denominator"
      },
      "acceptBid(uint256,uint256)": {
        "notice": "acceptBid allows an NFT owner/auctioner to accept a placed bid"
      },
      "bid(uint256,uint256,string)": {
        "notice": "bid allows any user to bid on an auction"
      },
      "cancel(uint256)": {
        "notice": "cancel allows an NFT owner/ auction creator to cancle their auction"
      },
      "cancelBid(uint256,uint256)": {
        "notice": "cancelBid allows a bidder to cancel their bid"
      },
      "createAuction(address,address,uint256,uint256,uint256,bool,bool,bytes)": {
        "notice": "createAuction allows a NFT owner to create an auction for both a 721 and 1155 NFT"
      },
      "setCreatorFees(address,address,uint256,uint256,bool)": {
        "notice": "setCreatorFees allows the owner of an NFT contract OR the owner of a ZNS domain to set a creator fee for all sales of their NFTs through the platform"
      },
      "viewBid(uint256,uint256)": {
        "notice": "viewBid allows for the front end to easily retreive a specific bids info"
      }
    }
  }
}